{
  "_format": "hh-sol-artifact-1",
  "contractName": "VotingV2",
  "sourceName": "contracts/Voting.sol",
  "abi": [
    {
      "inputs": [],
      "stateMutability": "nonpayable",
      "type": "constructor"
    },
    {
      "anonymous": false,
      "inputs": [
        {
          "indexed": true,
          "internalType": "uint256",
          "name": "candidateId",
          "type": "uint256"
        },
        {
          "indexed": false,
          "internalType": "string",
          "name": "name",
          "type": "string"
        },
        {
          "indexed": false,
          "internalType": "string",
          "name": "partyName",
          "type": "string"
        },
        {
          "indexed": false,
          "internalType": "uint8",
          "name": "stateCode",
          "type": "uint8"
        },
        {
          "indexed": false,
          "internalType": "uint8",
          "name": "constituencyCode",
          "type": "uint8"
        }
      ],
      "name": "CandidateAdded",
      "type": "event"
    },
    {
      "anonymous": false,
      "inputs": [
        {
          "indexed": true,
          "internalType": "uint256",
          "name": "obfuscatedId",
          "type": "uint256"
        },
        {
          "indexed": false,
          "internalType": "uint256",
          "name": "timestamp",
          "type": "uint256"
        },
        {
          "indexed": false,
          "internalType": "uint256",
          "name": "version",
          "type": "uint256"
        }
      ],
      "name": "VoteCast",
      "type": "event"
    },
    {
      "anonymous": false,
      "inputs": [
        {
          "indexed": true,
          "internalType": "address",
          "name": "voter",
          "type": "address"
        },
        {
          "indexed": false,
          "internalType": "uint256",
          "name": "version",
          "type": "uint256"
        },
        {
          "indexed": false,
          "internalType": "uint256",
          "name": "timestamp",
          "type": "uint256"
        }
      ],
      "name": "VoteUpdated",
      "type": "event"
    },
    {
      "anonymous": false,
      "inputs": [
        {
          "indexed": true,
          "internalType": "address",
          "name": "voter",
          "type": "address"
        },
        {
          "indexed": false,
          "internalType": "uint8",
          "name": "stateCode",
          "type": "uint8"
        },
        {
          "indexed": false,
          "internalType": "uint8",
          "name": "constituencyCode",
          "type": "uint8"
        }
      ],
      "name": "VoterAuthorized",
      "type": "event"
    },
    {
      "anonymous": false,
      "inputs": [
        {
          "indexed": false,
          "internalType": "bool",
          "name": "isActive",
          "type": "bool"
        }
      ],
      "name": "VotingStatusChanged",
      "type": "event"
    },
    {
      "anonymous": false,
      "inputs": [
        {
          "indexed": false,
          "internalType": "uint256",
          "name": "startTime",
          "type": "uint256"
        },
        {
          "indexed": false,
          "internalType": "uint256",
          "name": "endTime",
          "type": "uint256"
        }
      ],
      "name": "VotingTimelineSet",
      "type": "event"
    },
    {
      "inputs": [],
      "name": "MAX_REVOTES",
      "outputs": [
        {
          "internalType": "uint256",
          "name": "",
          "type": "uint256"
        }
      ],
      "stateMutability": "view",
      "type": "function"
    },
    {
      "inputs": [],
      "name": "REVOTE_LOCKOUT",
      "outputs": [
        {
          "internalType": "uint256",
          "name": "",
          "type": "uint256"
        }
      ],
      "stateMutability": "view",
      "type": "function"
    },
    {
      "inputs": [
        {
          "internalType": "string",
          "name": "_name",
          "type": "string"
        },
        {
          "internalType": "string",
          "name": "_partyName",
          "type": "string"
        },
        {
          "internalType": "string",
          "name": "_partySymbol",
          "type": "string"
        },
        {
          "internalType": "uint8",
          "name": "_stateCode",
          "type": "uint8"
        },
        {
          "internalType": "uint8",
          "name": "_constituencyCode",
          "type": "uint8"
        }
      ],
      "name": "addCandidate",
      "outputs": [],
      "stateMutability": "nonpayable",
      "type": "function"
    },
    {
      "inputs": [
        {
          "internalType": "string",
          "name": "_name",
          "type": "string"
        }
      ],
      "name": "addCandidateSimple",
      "outputs": [],
      "stateMutability": "nonpayable",
      "type": "function"
    },
    {
      "inputs": [],
      "name": "admin",
      "outputs": [
        {
          "internalType": "address",
          "name": "",
          "type": "address"
        }
      ],
      "stateMutability": "view",
      "type": "function"
    },
    {
      "inputs": [
        {
          "internalType": "address",
          "name": "_voter",
          "type": "address"
        },
        {
          "internalType": "uint8",
          "name": "_stateCode",
          "type": "uint8"
        },
        {
          "internalType": "uint8",
          "name": "_constituencyCode",
          "type": "uint8"
        }
      ],
      "name": "authorizeVoter",
      "outputs": [],
      "stateMutability": "nonpayable",
      "type": "function"
    },
    {
      "inputs": [
        {
          "internalType": "address",
          "name": "_voter",
          "type": "address"
        }
      ],
      "name": "authorizeVoterSimple",
      "outputs": [],
      "stateMutability": "nonpayable",
      "type": "function"
    },
    {
      "inputs": [
        {
          "internalType": "address[]",
          "name": "_voters",
          "type": "address[]"
        }
      ],
      "name": "authorizeVotersBatch",
      "outputs": [],
      "stateMutability": "nonpayable",
      "type": "function"
    },
    {
      "inputs": [
        {
          "internalType": "uint256",
          "name": "",
          "type": "uint256"
        }
      ],
      "name": "candidates",
      "outputs": [
        {
          "internalType": "uint32",
          "name": "id",
          "type": "uint32"
        },
        {
          "internalType": "uint8",
          "name": "stateCode",
          "type": "uint8"
        },
        {
          "internalType": "uint8",
          "name": "constituencyCode",
          "type": "uint8"
        },
        {
          "internalType": "uint64",
          "name": "voteCount",
          "type": "uint64"
        },
        {
          "internalType": "string",
          "name": "name",
          "type": "string"
        },
        {
          "internalType": "string",
          "name": "partyName",
          "type": "string"
        },
        {
          "internalType": "string",
          "name": "partySymbol",
          "type": "string"
        }
      ],
      "stateMutability": "view",
      "type": "function"
    },
    {
      "inputs": [],
      "name": "candidatesCount",
      "outputs": [
        {
          "internalType": "uint32",
          "name": "",
          "type": "uint32"
        }
      ],
      "stateMutability": "view",
      "type": "function"
    },
    {
      "inputs": [],
      "name": "disableTimeline",
      "outputs": [],
      "stateMutability": "nonpayable",
      "type": "function"
    },
    {
      "inputs": [],
      "name": "electionIPFSHash",
      "outputs": [
        {
          "internalType": "string",
          "name": "",
          "type": "string"
        }
      ],
      "stateMutability": "view",
      "type": "function"
    },
    {
      "inputs": [],
      "name": "endVoting",
      "outputs": [],
      "stateMutability": "nonpayable",
      "type": "function"
    },
    {
      "inputs": [],
      "name": "getAllCandidates",
      "outputs": [
        {
          "components": [
            {
              "internalType": "uint32",
              "name": "id",
              "type": "uint32"
            },
            {
              "internalType": "uint8",
              "name": "stateCode",
              "type": "uint8"
            },
            {
              "internalType": "uint8",
              "name": "constituencyCode",
              "type": "uint8"
            },
            {
              "internalType": "uint64",
              "name": "voteCount",
              "type": "uint64"
            },
            {
              "internalType": "string",
              "name": "name",
              "type": "string"
            },
            {
              "internalType": "string",
              "name": "partyName",
              "type": "string"
            },
            {
              "internalType": "string",
              "name": "partySymbol",
              "type": "string"
            }
          ],
          "internalType": "struct VotingV2.Candidate[]",
          "name": "",
          "type": "tuple[]"
        }
      ],
      "stateMutability": "view",
      "type": "function"
    },
    {
      "inputs": [
        {
          "internalType": "uint256",
          "name": "_candidateId",
          "type": "uint256"
        }
      ],
      "name": "getCandidate",
      "outputs": [
        {
          "components": [
            {
              "internalType": "uint32",
              "name": "id",
              "type": "uint32"
            },
            {
              "internalType": "uint8",
              "name": "stateCode",
              "type": "uint8"
            },
            {
              "internalType": "uint8",
              "name": "constituencyCode",
              "type": "uint8"
            },
            {
              "internalType": "uint64",
              "name": "voteCount",
              "type": "uint64"
            },
            {
              "internalType": "string",
              "name": "name",
              "type": "string"
            },
            {
              "internalType": "string",
              "name": "partyName",
              "type": "string"
            },
            {
              "internalType": "string",
              "name": "partySymbol",
              "type": "string"
            }
          ],
          "internalType": "struct VotingV2.Candidate",
          "name": "",
          "type": "tuple"
        }
      ],
      "stateMutability": "view",
      "type": "function"
    },
    {
      "inputs": [
        {
          "internalType": "uint8",
          "name": "_stateCode",
          "type": "uint8"
        },
        {
          "internalType": "uint8",
          "name": "_constituencyCode",
          "type": "uint8"
        }
      ],
      "name": "getCandidatesByConstituency",
      "outputs": [
        {
          "components": [
            {
              "internalType": "uint32",
              "name": "id",
              "type": "uint32"
            },
            {
              "internalType": "uint8",
              "name": "stateCode",
              "type": "uint8"
            },
            {
              "internalType": "uint8",
              "name": "constituencyCode",
              "type": "uint8"
            },
            {
              "internalType": "uint64",
              "name": "voteCount",
              "type": "uint64"
            },
            {
              "internalType": "string",
              "name": "name",
              "type": "string"
            },
            {
              "internalType": "string",
              "name": "partyName",
              "type": "string"
            },
            {
              "internalType": "string",
              "name": "partySymbol",
              "type": "string"
            }
          ],
          "internalType": "struct VotingV2.Candidate[]",
          "name": "",
          "type": "tuple[]"
        }
      ],
      "stateMutability": "view",
      "type": "function"
    },
    {
      "inputs": [],
      "name": "getRevoteConfig",
      "outputs": [
        {
          "internalType": "uint256",
          "name": "maxRevotes",
          "type": "uint256"
        },
        {
          "internalType": "uint256",
          "name": "lockoutSeconds",
          "type": "uint256"
        },
        {
          "internalType": "bool",
          "name": "revoteWindowOpen",
          "type": "bool"
        }
      ],
      "stateMutability": "view",
      "type": "function"
    },
    {
      "inputs": [],
      "name": "getTotalVotes",
      "outputs": [
        {
          "internalType": "uint256",
          "name": "",
          "type": "uint256"
        }
      ],
      "stateMutability": "view",
      "type": "function"
    },
    {
      "inputs": [
        {
          "internalType": "address",
          "name": "_voter",
          "type": "address"
        }
      ],
      "name": "getVoteReceipt",
      "outputs": [
        {
          "internalType": "bytes32",
          "name": "receiptHash",
          "type": "bytes32"
        }
      ],
      "stateMutability": "view",
      "type": "function"
    },
    {
      "inputs": [
        {
          "internalType": "address",
          "name": "_voter",
          "type": "address"
        }
      ],
      "name": "getVoterInfo",
      "outputs": [
        {
          "internalType": "bool",
          "name": "isAuthorized",
          "type": "bool"
        },
        {
          "internalType": "bool",
          "name": "hasVoted",
          "type": "bool"
        },
        {
          "internalType": "uint8",
          "name": "stateCode",
          "type": "uint8"
        },
        {
          "internalType": "uint8",
          "name": "constituencyCode",
          "type": "uint8"
        },
        {
          "internalType": "uint256",
          "name": "voteVersion",
          "type": "uint256"
        },
        {
          "internalType": "bool",
          "name": "canRevote",
          "type": "bool"
        }
      ],
      "stateMutability": "view",
      "type": "function"
    },
    {
      "inputs": [],
      "name": "getVotingTimeline",
      "outputs": [
        {
          "internalType": "bool",
          "name": "_timelineEnabled",
          "type": "bool"
        },
        {
          "internalType": "uint256",
          "name": "_startTime",
          "type": "uint256"
        },
        {
          "internalType": "uint256",
          "name": "_endTime",
          "type": "uint256"
        },
        {
          "internalType": "bool",
          "name": "_isActive",
          "type": "bool"
        }
      ],
      "stateMutability": "view",
      "type": "function"
    },
    {
      "inputs": [],
      "name": "getWinner",
      "outputs": [
        {
          "components": [
            {
              "internalType": "uint32",
              "name": "id",
              "type": "uint32"
            },
            {
              "internalType": "uint8",
              "name": "stateCode",
              "type": "uint8"
            },
            {
              "internalType": "uint8",
              "name": "constituencyCode",
              "type": "uint8"
            },
            {
              "internalType": "uint64",
              "name": "voteCount",
              "type": "uint64"
            },
            {
              "internalType": "string",
              "name": "name",
              "type": "string"
            },
            {
              "internalType": "string",
              "name": "partyName",
              "type": "string"
            },
            {
              "internalType": "string",
              "name": "partySymbol",
              "type": "string"
            }
          ],
          "internalType": "struct VotingV2.Candidate",
          "name": "",
          "type": "tuple"
        }
      ],
      "stateMutability": "view",
      "type": "function"
    },
    {
      "inputs": [
        {
          "internalType": "address",
          "name": "_voter",
          "type": "address"
        }
      ],
      "name": "hasVoterVoted",
      "outputs": [
        {
          "internalType": "bool",
          "name": "",
          "type": "bool"
        }
      ],
      "stateMutability": "view",
      "type": "function"
    },
    {
      "inputs": [
        {
          "internalType": "address",
          "name": "forwarder",
          "type": "address"
        }
      ],
      "name": "isTrustedForwarder",
      "outputs": [
        {
          "internalType": "bool",
          "name": "",
          "type": "bool"
        }
      ],
      "stateMutability": "view",
      "type": "function"
    },
    {
      "inputs": [
        {
          "internalType": "address",
          "name": "_voter",
          "type": "address"
        }
      ],
      "name": "isVoterAuthorized",
      "outputs": [
        {
          "internalType": "bool",
          "name": "",
          "type": "bool"
        }
      ],
      "stateMutability": "view",
      "type": "function"
    },
    {
      "inputs": [
        {
          "internalType": "string[]",
          "name": "_names",
          "type": "string[]"
        },
        {
          "internalType": "string[]",
          "name": "_partyNames",
          "type": "string[]"
        },
        {
          "internalType": "string[]",
          "name": "_partySymbols",
          "type": "string[]"
        },
        {
          "internalType": "uint8[]",
          "name": "_stateCodes",
          "type": "uint8[]"
        },
        {
          "internalType": "uint8[]",
          "name": "_constituencyCodes",
          "type": "uint8[]"
        }
      ],
      "name": "resetAndLoadCandidates",
      "outputs": [],
      "stateMutability": "nonpayable",
      "type": "function"
    },
    {
      "inputs": [
        {
          "internalType": "string",
          "name": "_hash",
          "type": "string"
        }
      ],
      "name": "setElectionIPFSHash",
      "outputs": [],
      "stateMutability": "nonpayable",
      "type": "function"
    },
    {
      "inputs": [
        {
          "internalType": "address",
          "name": "_forwarder",
          "type": "address"
        }
      ],
      "name": "setTrustedForwarder",
      "outputs": [],
      "stateMutability": "nonpayable",
      "type": "function"
    },
    {
      "inputs": [
        {
          "internalType": "uint256",
          "name": "_startTime",
          "type": "uint256"
        },
        {
          "internalType": "uint256",
          "name": "_endTime",
          "type": "uint256"
        }
      ],
      "name": "setVotingTimeline",
      "outputs": [],
      "stateMutability": "nonpayable",
      "type": "function"
    },
    {
      "inputs": [
        {
          "internalType": "bool",
          "name": "_enabled",
          "type": "bool"
        }
      ],
      "name": "setZKPMode",
      "outputs": [],
      "stateMutability": "nonpayable",
      "type": "function"
    },
    {
      "inputs": [],
      "name": "startVoting",
      "outputs": [],
      "stateMutability": "nonpayable",
      "type": "function"
    },
    {
      "inputs": [],
      "name": "timelineEnabled",
      "outputs": [
        {
          "internalType": "bool",
          "name": "",
          "type": "bool"
        }
      ],
      "stateMutability": "view",
      "type": "function"
    },
    {
      "inputs": [],
      "name": "trustedForwarder",
      "outputs": [
        {
          "internalType": "address",
          "name": "",
          "type": "address"
        }
      ],
      "stateMutability": "view",
      "type": "function"
    },
    {
      "inputs": [
        {
          "internalType": "uint256",
          "name": "_candidateId",
          "type": "uint256"
        },
        {
          "internalType": "uint256",
          "name": "_secretSalt",
          "type": "uint256"
        }
      ],
      "name": "vote",
      "outputs": [],
      "stateMutability": "nonpayable",
      "type": "function"
    },
    {
      "inputs": [
        {
          "internalType": "address",
          "name": "",
          "type": "address"
        }
      ],
      "name": "voters",
      "outputs": [
        {
          "internalType": "bool",
          "name": "isAuthorized",
          "type": "bool"
        },
        {
          "internalType": "bool",
          "name": "hasVoted",
          "type": "bool"
        },
        {
          "internalType": "uint8",
          "name": "stateCode",
          "type": "uint8"
        },
        {
          "internalType": "uint8",
          "name": "constituencyCode",
          "type": "uint8"
        },
        {
          "internalType": "bytes32",
          "name": "lastVoteCommitment",
          "type": "bytes32"
        },
        {
          "internalType": "uint32",
          "name": "voteVersion",
          "type": "uint32"
        }
      ],
      "stateMutability": "view",
      "type": "function"
    },
    {
      "inputs": [],
      "name": "votingActive",
      "outputs": [
        {
          "internalType": "bool",
          "name": "",
          "type": "bool"
        }
      ],
      "stateMutability": "view",
      "type": "function"
    },
    {
      "inputs": [],
      "name": "votingEndTime",
      "outputs": [
        {
          "internalType": "uint256",
          "name": "",
          "type": "uint256"
        }
      ],
      "stateMutability": "view",
      "type": "function"
    },
    {
      "inputs": [],
      "name": "votingStartTime",
      "outputs": [
        {
          "internalType": "uint256",
          "name": "",
          "type": "uint256"
        }
      ],
      "stateMutability": "view",
      "type": "function"
    },
    {
      "inputs": [],
      "name": "zkpEnabled",
      "outputs": [
        {
          "internalType": "bool",
          "name": "",
          "type": "bool"
        }
      ],
      "stateMutability": "view",
      "type": "function"
    }
  ],
  "bytecode": "0x608060405234801561001057600080fd5b506000805462ffffff60a01b1933166001600160b81b0319909116179055600180546001600160a01b031916905561447a8061004d6000396000f3fe608060405234801561001057600080fd5b506004361061023d5760003560e01c80638e7ea5b21161013b578063a3ec138d116100b8578063da7422281161007c578063da74222814610601578063efbe52a514610614578063f3535ed914610627578063f851a4401461063c578063fd11f97a1461064f57600080fd5b8063a3ec138d14610527578063b384abef146105b8578063bb8e2626146105cb578063c3403ddf146105d4578063c64bd70a146105dc57600080fd5b806399010a3f116100ff57806399010a3f1461049a57806399999dbb146104ae5780639a0e7d66146104c15780639befb302146104c95780639ed1f255146104dc57600080fd5b80638e7ea5b21461041857806394c1866114610420578063952fedbd14610461578063963ae6961461047457806396459c971461048757600080fd5b80632d35a8a2116101c9578063572b6c051161018d578063572b6c051461039c57806376d85285146103be5780637ab8c2af146103c65780637da0a877146103d95780637de9eb361461040457600080fd5b80632d35a8a2146103015780632e6997fe1461032d5780633477ee2e1461034257806335b8e82014610368578063408e27271461038857600080fd5b80631fcef3a6116102105780631fcef3a6146102ac5780632019a608146102bf57806320a75b6f146102c857806320d94185146102db578063233af203146102ee57600080fd5b8063072da235146102425780630ea21eae1461025d5780631ea736e0146102995780631ec6b60a146102a2575b600080fd5b61024a600381565b6040519081526020015b60405180910390f35b61028961026b366004613a61565b6001600160a01b031660009081526006602052604090205460ff1690565b6040519015158152602001610254565b61024a60035481565b6102aa610680565b005b6102aa6102ba366004613acb565b610793565b61024a60025481565b61024a6102d6366004613a61565b610a4e565b6102aa6102e9366004613a61565b610b37565b6102aa6102fc366004613b22565b610c9f565b60005461031890600160b81b900463ffffffff1681565b60405163ffffffff9091168152602001610254565b610335610ce9565b6040516102549190613ca6565b610355610350366004613d08565b610fc6565b6040516102549796959493929190613d21565b61037b610376366004613d08565b6111b6565b6040516102549190613d95565b60005461028990600160a01b900460ff1681565b6102896103aa366004613a61565b6001546001600160a01b0391821691161490565b6102aa611441565b6102aa6103d4366004613db9565b6114bc565b6001546103ec906001600160a01b031681565b6040516001600160a01b039091168152602001610254565b60005461028990600160a81b900460ff1681565b61037b61164e565b60005460025460035460ff600160a81b8404811693600160a01b90041660408051941515855260208501939093529183015215156060820152608001610254565b6102aa61046f366004613dfc565b611991565b6102aa610482366004613efa565b611cad565b610335610495366004613f2f565b611ee6565b60005461028990600160b01b900460ff1681565b6102aa6104bc366004613f62565b612303565b61024a612385565b6102aa6104d7366004613f84565b6123de565b6104ef6104ea366004613a61565b612961565b604080519615158752941515602087015260ff93841694860194909452911660608401526080830152151560a082015260c001610254565b61057c610535366004613a61565b60066020526000908152604090208054600182015460029092015460ff80831693610100840482169362010000810483169363010000009091049092169163ffffffff1686565b604080519615158752941515602087015260ff9384169486019490945291166060840152608083015263ffffffff1660a082015260c001610254565b6102aa6105c6366004614074565b612a68565b61024a61070881565b6102aa613525565b6105e461369c565b604080519384526020840192909252151590820152606001610254565b6102aa61060f366004613a61565b6136e8565b6102aa610622366004614074565b6137c4565b61062f6138db565b6040516102549190614096565b6000546103ec906001600160a01b031681565b61028961065d366004613a61565b6001600160a01b0316600090815260066020526040902054610100900460ff1690565b6000546001600160a01b0316610694613969565b6001600160a01b0316146106c35760405162461bcd60e51b81526004016106ba906140a9565b60405180910390fd5b600054600160a01b900460ff16156106ed5760405162461bcd60e51b81526004016106ba906140eb565b600054600160b81b900463ffffffff166107495760405162461bcd60e51b815260206004820152601760248201527f4e6f2063616e646964617465732061646465642079657400000000000000000060448201526064016106ba565b6000805460ff60a01b1916600160a01b179055604051600181527f9069a1a16ace751e8690f383e12f87b01e8488ba387e626810bd113fef0417f9906020015b60405180910390a1565b6000546001600160a01b03166107a7613969565b6001600160a01b0316146107cd5760405162461bcd60e51b81526004016106ba906140a9565b600054600160a01b900460ff16156107f75760405162461bcd60e51b81526004016106ba906140eb565b806108445760405162461bcd60e51b815260206004820152601e60248201527f43616e646964617465206e616d652063616e6e6f7420626520656d707479000060448201526064016106ba565b60008054600160b81b900463ffffffff1690601761086183614138565b91906101000a81548163ffffffff021916908363ffffffff160217905550506040518060e00160405280600060179054906101000a900463ffffffff1663ffffffff168152602001600060ff168152602001600060ff16815260200160006001600160401b0316815260200183838080601f016020809104026020016040519081016040528093929190818152602001838380828437600092018290525093855250506040805160208181018352848252808601919091528151808201835284815294820194909452825463ffffffff600160b81b90910481168452600585529281902085518154958701519287015160608801516001600160401b0316600160301b0267ffffffffffffffff60301b1960ff928316600160281b02166dffffffffffffffffff00000000001992909516600160201b0264ffffffffff19909816929096169190911795909517949094161791909117825550608082015160018201906109ce90826141de565b5060a082015160028201906109e390826141de565b5060c082015160038201906109f890826141de565b505060008054604051600160b81b90910463ffffffff1692507f6135a8aa9d6cc5d530ba4b0a845dee7aa1a1fdae782c52af9b878ed15a2f3be791610a42918691869181906142c6565b60405180910390a25050565b6001600160a01b038116600090815260066020526040812054610100900460ff16610abb5760405162461bcd60e51b815260206004820152601760248201527f566f74657220686173206e6f7420766f7465642079657400000000000000000060448201526064016106ba565b506001600160a01b03811660009081526006602090815260409182902060020154825160609490941b6bffffffffffffffffffffffff191684830152466034850152641d9bdd195960da1b605485015260e01b6001600160e01b03191660598401528151808403603d018152605d909301909152815191012090565b6000546001600160a01b0316610b4b613969565b6001600160a01b031614610b715760405162461bcd60e51b81526004016106ba906140a9565b6001600160a01b038116610bbf5760405162461bcd60e51b8152602060048201526015602482015274496e76616c696420766f746572206164647265737360581b60448201526064016106ba565b6001600160a01b03811660009081526006602052604090205460ff1615610c285760405162461bcd60e51b815260206004820152601b60248201527f566f74657220697320616c726561647920617574686f72697a6564000000000060448201526064016106ba565b6001600160a01b03811660008181526006602090815260408083208054600163ffffffff199182168117835582018590556002909101805490911690558051838152918201929092527f8566080dad97874e0793db9668cb0c866def86b15a575f648354a6d13cde5238910160405180910390a250565b6000546001600160a01b0316610cb3613969565b6001600160a01b031614610cd95760405162461bcd60e51b81526004016106ba906140a9565b6004610ce582826141de565b5050565b6000805460609190600160b81b900463ffffffff166001600160401b03811115610d1557610d15613b0c565b604051908082528060200260200182016040528015610d4e57816020015b610d3b61399d565b815260200190600190039081610d335790505b50905060015b600054600160b81b900463ffffffff168111610fc057600081815260056020908152604091829020825160e081018452815463ffffffff81168252600160201b810460ff90811694830194909452600160281b810490931693810193909352600160301b9091046001600160401b03166060830152600181018054608084019190610dde9061415b565b80601f0160208091040260200160405190810160405280929190818152602001828054610e0a9061415b565b8015610e575780601f10610e2c57610100808354040283529160200191610e57565b820191906000526020600020905b815481529060010190602001808311610e3a57829003601f168201915b50505050508152602001600282018054610e709061415b565b80601f0160208091040260200160405190810160405280929190818152602001828054610e9c9061415b565b8015610ee95780601f10610ebe57610100808354040283529160200191610ee9565b820191906000526020600020905b815481529060010190602001808311610ecc57829003601f168201915b50505050508152602001600382018054610f029061415b565b80601f0160208091040260200160405190810160405280929190818152602001828054610f2e9061415b565b8015610f7b5780601f10610f5057610100808354040283529160200191610f7b565b820191906000526020600020905b815481529060010190602001808311610f5e57829003601f168201915b50505050508152505082600183610f929190614308565b81518110610fa257610fa261431b565b60200260200101819052508080610fb890614331565b915050610d54565b50919050565b6005602052600090815260409020805460018201805463ffffffff831693600160201b840460ff90811694600160281b810490911693600160301b9091046001600160401b0316926110179061415b565b80601f01602080910402602001604051908101604052809291908181526020018280546110439061415b565b80156110905780601f1061106557610100808354040283529160200191611090565b820191906000526020600020905b81548152906001019060200180831161107357829003601f168201915b5050505050908060020180546110a59061415b565b80601f01602080910402602001604051908101604052809291908181526020018280546110d19061415b565b801561111e5780601f106110f35761010080835404028352916020019161111e565b820191906000526020600020905b81548152906001019060200180831161110157829003601f168201915b5050505050908060030180546111339061415b565b80601f016020809104026020016040519081016040528092919081815260200182805461115f9061415b565b80156111ac5780601f10611181576101008083540402835291602001916111ac565b820191906000526020600020905b81548152906001019060200180831161118f57829003601f168201915b5050505050905087565b6111be61399d565b6000821180156111dd5750600054600160b81b900463ffffffff168211155b6112205760405162461bcd60e51b8152602060048201526014602482015273125b9d985b1a590818d85b991a59185d1948125160621b60448201526064016106ba565b600082815260056020908152604091829020825160e081018452815463ffffffff81168252600160201b810460ff90811694830194909452600160281b810490931693810193909352600160301b9091046001600160401b031660608301526001810180546080840191906112949061415b565b80601f01602080910402602001604051908101604052809291908181526020018280546112c09061415b565b801561130d5780601f106112e25761010080835404028352916020019161130d565b820191906000526020600020905b8154815290600101906020018083116112f057829003601f168201915b505050505081526020016002820180546113269061415b565b80601f01602080910402602001604051908101604052809291908181526020018280546113529061415b565b801561139f5780601f106113745761010080835404028352916020019161139f565b820191906000526020600020905b81548152906001019060200180831161138257829003601f168201915b505050505081526020016003820180546113b89061415b565b80601f01602080910402602001604051908101604052809291908181526020018280546113e49061415b565b80156114315780601f1061140657610100808354040283529160200191611431565b820191906000526020600020905b81548152906001019060200180831161141457829003601f168201915b5050505050815250509050919050565b6000546001600160a01b0316611455613969565b6001600160a01b03161461147b5760405162461bcd60e51b81526004016106ba906140a9565b600054600160a01b900460ff16156114a55760405162461bcd60e51b81526004016106ba906140eb565b6000805460ff60a81b191681556002819055600355565b6000546001600160a01b03166114d0613969565b6001600160a01b0316146114f65760405162461bcd60e51b81526004016106ba906140a9565b6001600160a01b0383166115445760405162461bcd60e51b8152602060048201526015602482015274496e76616c696420766f746572206164647265737360581b60448201526064016106ba565b6001600160a01b03831660009081526006602052604090205460ff16156115ad5760405162461bcd60e51b815260206004820152601b60248201527f566f74657220697320616c726561647920617574686f72697a6564000000000060448201526064016106ba565b6001600160a01b03831660008181526006602090815260408083208054600162ffffff199091166201000060ff8a811691820292909217831763ff00000019166301000000928a16928302178455918301959095556002909101805463ffffffff191690558151908152918201929092527f8566080dad97874e0793db9668cb0c866def86b15a575f648354a6d13cde5238910160405180910390a2505050565b61165661399d565b600054600160b81b900463ffffffff166116b25760405162461bcd60e51b815260206004820152601760248201527f4e6f2063616e6469646174657320617661696c61626c6500000000000000000060448201526064016106ba565b60008060015b600054600160b81b900463ffffffff16811161172b57600081815260056020526040902054600160301b90046001600160401b031683101561171957600081815260056020526040902054600160301b90046001600160401b031692509050805b8061172381614331565b9150506116b8565b50600081116117705760405162461bcd60e51b8152602060048201526011602482015270139bc81d9bdd195cc818d85cdd081e595d607a1b60448201526064016106ba565b600081815260056020908152604091829020825160e081018452815463ffffffff81168252600160201b810460ff90811694830194909452600160281b810490931693810193909352600160301b9091046001600160401b031660608301526001810180546080840191906117e49061415b565b80601f01602080910402602001604051908101604052809291908181526020018280546118109061415b565b801561185d5780601f106118325761010080835404028352916020019161185d565b820191906000526020600020905b81548152906001019060200180831161184057829003601f168201915b505050505081526020016002820180546118769061415b565b80601f01602080910402602001604051908101604052809291908181526020018280546118a29061415b565b80156118ef5780601f106118c4576101008083540402835291602001916118ef565b820191906000526020600020905b8154815290600101906020018083116118d257829003601f168201915b505050505081526020016003820180546119089061415b565b80601f01602080910402602001604051908101604052809291908181526020018280546119349061415b565b80156119815780601f1061195657610100808354040283529160200191611981565b820191906000526020600020905b81548152906001019060200180831161196457829003601f168201915b5050505050815250509250505090565b6000546001600160a01b03166119a5613969565b6001600160a01b0316146119cb5760405162461bcd60e51b81526004016106ba906140a9565b600054600160a01b900460ff16156119f55760405162461bcd60e51b81526004016106ba906140eb565b86611a425760405162461bcd60e51b815260206004820152601e60248201527f43616e646964617465206e616d652063616e6e6f7420626520656d707479000060448201526064016106ba565b60008054600160b81b900463ffffffff16906017611a5f83614138565b91906101000a81548163ffffffff021916908363ffffffff160217905550506040518060e00160405280600060179054906101000a900463ffffffff1663ffffffff1681526020018360ff1681526020018260ff16815260200160006001600160401b0316815260200189898080601f016020809104026020016040519081016040528093929190818152602001838380828437600092019190915250505090825250604080516020601f8a0181900481028201810190925288815291810191908990899081908401838280828437600092019190915250505090825250604080516020601f8801819004810282018101909252868152918101919087908790819084018382808284376000920182905250939094525050805463ffffffff600160b81b909104811682526005602090815260409283902085518154928701519487015160608801516001600160401b0316600160301b0267ffffffffffffffff60301b1960ff928316600160281b02166dffffffffffffffffff00000000001992909716600160201b0264ffffffffff19909516929095169190911792909217919091169290921717815560808301519091506001820190611c2290826141de565b5060a08201516002820190611c3790826141de565b5060c08201516003820190611c4c90826141de565b5050600054604051600160b81b90910463ffffffff1691507f6135a8aa9d6cc5d530ba4b0a845dee7aa1a1fdae782c52af9b878ed15a2f3be790611c9b908b908b908b908b908990899061434a565b60405180910390a25050505050505050565b6000546001600160a01b0316611cc1613969565b6001600160a01b031614611ce75760405162461bcd60e51b81526004016106ba906140a9565b6032811115611d695760405162461bcd60e51b815260206004820152604260248201527f42617463682073697a652065786365656473206d6178696d756d206f6620353060448201527f20746f2070726576656e7420626c6f636b20676173206c696d697420726576656064820152611c9d60f21b608482015260a4016106ba565b8060005b81811015611ee0576000848483818110611d8957611d8961431b565b9050602002016020810190611d9e9190613a61565b90506001600160a01b03811615801590611dd157506001600160a01b03811660009081526006602052604090205460ff16155b15611ecf576040805160c081018252600180825260006020808401828152848601838152606086018481526080870185815260a088018681526001600160a01b038b16808852600687528a882099518a5496519551945161ffff1990971690151561ff00191617610100951515959095029490941763ffff000019166201000060ff9485160263ff00000019161763010000009390951692909202939093178755915194860194909455516002909401805463ffffffff191663ffffffff90951694909417909355835181815292830152917f8566080dad97874e0793db9668cb0c866def86b15a575f648354a6d13cde5238910160405180910390a25b50611ed981614331565b9050611d6d565b50505050565b6000805460609190600160b81b900463ffffffff166001600160401b03811115611f1257611f12613b0c565b604051908082528060200260200182016040528015611f4b57816020015b611f3861399d565b815260200190600190039081611f305790505b509050600060015b600054600160b81b900463ffffffff16811161224b5760008181526005602052604090205460ff878116600160201b909204161480611fa85750600081815260056020526040902054600160201b900460ff16155b8015611fee575060008181526005602052604090205460ff868116600160281b909204161480611fee5750600081815260056020526040902054600160281b900460ff16155b1561223957600081815260056020908152604091829020825160e081018452815463ffffffff81168252600160201b810460ff90811694830194909452600160281b810490931693810193909352600160301b9091046001600160401b031660608301526001810180546080840191906120679061415b565b80601f01602080910402602001604051908101604052809291908181526020018280546120939061415b565b80156120e05780601f106120b5576101008083540402835291602001916120e0565b820191906000526020600020905b8154815290600101906020018083116120c357829003601f168201915b505050505081526020016002820180546120f99061415b565b80601f01602080910402602001604051908101604052809291908181526020018280546121259061415b565b80156121725780601f1061214757610100808354040283529160200191612172565b820191906000526020600020905b81548152906001019060200180831161215557829003601f168201915b5050505050815260200160038201805461218b9061415b565b80601f01602080910402602001604051908101604052809291908181526020018280546121b79061415b565b80156122045780601f106121d957610100808354040283529160200191612204565b820191906000526020600020905b8154815290600101906020018083116121e757829003601f168201915b50505050508152505083838151811061221f5761221f61431b565b6020026020010181905250818061223590614331565b9250505b8061224381614331565b915050611f53565b506000816001600160401b0381111561226657612266613b0c565b60405190808252806020026020018201604052801561229f57816020015b61228c61399d565b8152602001906001900390816122845790505b50905060005b828110156122f7578381815181106122bf576122bf61431b565b60200260200101518282815181106122d9576122d961431b565b602002602001018190525080806122ef90614331565b9150506122a5565b50925050505b92915050565b6000546001600160a01b0316612317613969565b6001600160a01b03161461233d5760405162461bcd60e51b81526004016106ba906140a9565b600054600160a01b900460ff16156123675760405162461bcd60e51b81526004016106ba906140eb565b60008054911515600160b01b0260ff60b01b19909216919091179055565b60008060015b600054600160b81b900463ffffffff168111610fc0576000818152600560205260409020546123ca90600160301b90046001600160401b031683614391565b9150806123d681614331565b91505061238b565b6000546001600160a01b03166123f2613969565b6001600160a01b0316146124185760405162461bcd60e51b81526004016106ba906140a9565b600054600160a01b900460ff16156124425760405162461bcd60e51b81526004016106ba906140eb565b888714801561245057508885145b801561245b57508883145b801561246657508881145b6124b25760405162461bcd60e51b815260206004820152601860248201527f4172726179206c656e67746873206d757374206d61746368000000000000000060448201526064016106ba565b60328911156125135760405162461bcd60e51b815260206004820152602760248201527f546f6f206d616e792063616e6469646174657320666f72206f6e65207472616e60448201526639b0b1ba34b7b760c91b60648201526084016106ba565b60015b600054600160b81b900463ffffffff16811161258e57600081815260056020526040812080546dffffffffffffffffffffffffffff191681559061255d60018301826139ef565b61256b6002830160006139ef565b6125796003830160006139ef565b5050808061258690614331565b915050612516565b506000805463ffffffff60b81b191681555b898110156129545760008054600160b81b900463ffffffff169060176125c583614138565b91906101000a81548163ffffffff021916908363ffffffff160217905550506040518060e00160405280600060179054906101000a900463ffffffff1663ffffffff16815260200186868481811061261f5761261f61431b565b905060200201602081019061263491906143a4565b60ff16815260200184848481811061264e5761264e61431b565b905060200201602081019061266391906143a4565b60ff168152600060208201526040018c8c848181106126845761268461431b565b905060200281019061269691906143bf565b8080601f0160208091040260200160405190810160405280939291908181526020018383808284376000920191909152505050908252506020018a8a848181106126e2576126e261431b565b90506020028101906126f491906143bf565b8080601f0160208091040260200160405190810160405280939291908181526020018383808284376000920191909152505050908252506020018888848181106127405761274061431b565b905060200281019061275291906143bf565b8080601f0160208091040260200160405190810160405280939291908181526020018383808284376000920182905250939094525050805463ffffffff600160b81b909104811682526005602090815260409283902085518154928701519487015160608801516001600160401b0316600160301b0267ffffffffffffffff60301b1960ff928316600160281b02166dffffffffffffffffff00000000001992909716600160201b0264ffffffffff1990951692909516919091179290921791909116929092171781556080830151909150600182019061283390826141de565b5060a0820151600282019061284890826141de565b5060c0820151600382019061285d90826141de565b5050600054600160b81b900463ffffffff1690507f6135a8aa9d6cc5d530ba4b0a845dee7aa1a1fdae782c52af9b878ed15a2f3be78c8c848181106128a4576128a461431b565b90506020028101906128b691906143bf565b8c8c868181106128c8576128c861431b565b90506020028101906128da91906143bf565b8a8a888181106128ec576128ec61431b565b905060200201602081019061290191906143a4565b8989898181106129135761291361431b565b905060200201602081019061292891906143a4565b60405161293a9695949392919061434a565b60405180910390a28061294c81614331565b9150506125a0565b5050505050505050505050565b6001600160a01b0381166000908152600660209081526040808320815160c081018352815460ff808216151583526101008204811615801596840187905262010000830482169584019590955263010000009091041660608201526001820154608082015260029091015463ffffffff1660a0820152839283928392839283928391906129f8575060038260a0015163ffffffff16105b9050808015612a105750600054600160a81b900460ff165b8015612a1e57506000600354115b15612a3857610708600354612a339190614308565b421090505b815160208301516040840151606085015160a090950151929c919b50995092975063ffffffff1695509350915050565b600054600160a01b900460ff16612ab85760405162461bcd60e51b8152602060048201526014602482015273566f74696e67206973206e6f742061637469766560601b60448201526064016106ba565b600054600160a81b900460ff1615612b6857600254421015612b1c5760405162461bcd60e51b815260206004820152601a60248201527f566f74696e6720686173206e6f7420737461727465642079657400000000000060448201526064016106ba565b600354421115612b685760405162461bcd60e51b8152602060048201526017602482015276159bdd1a5b99c81c195c9a5bd9081a185cc8195b991959604a1b60448201526064016106ba565b600054600160b01b900460ff1615612be85760405162461bcd60e51b815260206004820152603760248201527f5a4b50206d6f6465206973206163746976653a2075736520746865205a4b502060448201527f766f74696e6720636f6e747261637420696e737465616400000000000000000060648201526084016106ba565b6000546001600160a01b0316612bfc613969565b6001600160a01b031603612c465760405162461bcd60e51b815260206004820152601160248201527041646d696e2063616e6e6f7420766f746560781b60448201526064016106ba565b80600003612c855760405162461bcd60e51b815260206004820152600c60248201526b125b9d985b1a59081cd85b1d60a21b60448201526064016106ba565b600060066000612c93613969565b6001600160a01b031681526020808201929092526040908101600020815160c081018352815460ff808216151580845261010083048216151596840196909652620100008204811694830194909452630100000090049092166060830152600181015460808301526002015463ffffffff1660a08201529150612d585760405162461bcd60e51b815260206004820152601e60248201527f596f7520617265206e6f7420617574686f72697a656420746f20766f7465000060448201526064016106ba565b600083118015612d775750600054600160b81b900463ffffffff168311155b612dba5760405162461bcd60e51b8152602060048201526014602482015273125b9d985b1a590818d85b991a59185d1948125160621b60448201526064016106ba565b806020015115612f555760038160a0015163ffffffff1610612e1e5760405162461bcd60e51b815260206004820152601d60248201527f4d6178696d756d2072652d766f7465206c696d6974207265616368656400000060448201526064016106ba565b600054600160a81b900460ff168015612e3957506000600354115b15612eb957610708600354612e4e9190614308565b4210612eb95760405162461bcd60e51b815260206004820152603460248201527f52652d766f74696e672077696e646f772068617320636c6f7365642e2046696e60448201527330b6103b37ba32b99030b932903637b1b5b2b21760611b60648201526084016106ba565b608081015160009081526007602052604090205463ffffffff168015801590612ef5575060005463ffffffff600160b81b909104811690821611155b15612f535763ffffffff811660009081526005602052604090208054600160301b90046001600160401b0316906006612f2d83614405565b91906101000a8154816001600160401b0302191690836001600160401b03160217905550505b505b6000838152600560209081526040808320815160e081018352815463ffffffff81168252600160201b810460ff90811695830195909552600160281b810490941692810192909252600160301b9092046001600160401b03166060820152600182018054919291608084019190612fcb9061415b565b80601f0160208091040260200160405190810160405280929190818152602001828054612ff79061415b565b80156130445780601f1061301957610100808354040283529160200191613044565b820191906000526020600020905b81548152906001019060200180831161302757829003601f168201915b5050505050815260200160028201805461305d9061415b565b80601f01602080910402602001604051908101604052809291908181526020018280546130899061415b565b80156130d65780601f106130ab576101008083540402835291602001916130d6565b820191906000526020600020905b8154815290600101906020018083116130b957829003601f168201915b505050505081526020016003820180546130ef9061415b565b80601f016020809104026020016040519081016040528092919081815260200182805461311b9061415b565b80156131685780601f1061313d57610100808354040283529160200191613168565b820191906000526020600020905b81548152906001019060200180831161314b57829003601f168201915b5050505050815250509050816040015160ff166000141580156131915750602081015160ff1615155b1561320a57806020015160ff16826040015160ff161461320a5760405162461bcd60e51b815260206004820152602e60248201527f596f752063616e206f6e6c7920766f746520666f722063616e6469646174657360448201526d20696e20796f757220737461746560901b60648201526084016106ba565b606082015160ff16158015906132265750604081015160ff1615155b156132a657806040015160ff16826060015160ff16146132a65760405162461bcd60e51b815260206004820152603560248201527f596f752063616e206f6e6c7920766f746520666f722063616e6469646174657360448201527420696e20796f757220636f6e7374697475656e637960581b60648201526084016106ba565b600160208381019190915260408051808301879052808201869052815180820383018152606090910190915280519101206080830181905260a083018051906132ee82614138565b63ffffffff169052508260066000613304613969565b6001600160a01b0316815260208082019290925260409081016000908120845181548686015187860151606089015161ffff1990931693151561ff00191693909317610100911515919091021763ffff000019166201000060ff9384160263ff000000191617630100000092909116919091021781556080850151600182015560a0909401516002909401805463ffffffff1990811663ffffffff96871617909155858252600784528282208054909116948a1694909417909355878352600590915290208054600160301b90046001600160401b03169060066133e783614428565b91906101000a8154816001600160401b0302191690836001600160401b031602179055505084613415613969565b4286604051602001613452949392919093845260609290921b6bffffffffffffffffffffffff191660208401526034830152605482015260740190565b60408051601f19818403018152828252805160209182012060a087015142855263ffffffff1691840191909152917f24930ecca7f60d4736cd965cb5522694ea4b32308405d3f88fea2f59eff63caa910160405180910390a260018360a0015163ffffffff16111561351e576134c6613969565b6001600160a01b03167f338e5997c317851fce0b89c180051473a7db2b2769a378a34443540b375336678460a001514260405161351592919063ffffffff929092168252602082015260400190565b60405180910390a25b5050505050565b6000546001600160a01b0316613539613969565b6001600160a01b03161461355f5760405162461bcd60e51b81526004016106ba906140a9565b600054600160a01b900460ff166135af5760405162461bcd60e51b8152602060048201526014602482015273566f74696e67206973206e6f742061637469766560601b60448201526064016106ba565b600054600160a81b900460ff161561365f576002544210156136135760405162461bcd60e51b815260206004820152601a60248201527f566f74696e6720686173206e6f7420737461727465642079657400000000000060448201526064016106ba565b60035442111561365f5760405162461bcd60e51b8152602060048201526017602482015276159bdd1a5b99c81c195c9a5bd9081a185cc8195b991959604a1b60448201526064016106ba565b6000805460ff60a01b191681556040519081527f9069a1a16ace751e8690f383e12f87b01e8488ba387e626810bd113fef0417f990602001610789565b6000805481908190600190600160a81b900460ff1680156136bf57506000600354115b156136d9576107086003546136d49190614308565b421090505b60039461070894509092509050565b6000546001600160a01b03166136fc613969565b6001600160a01b0316146137225760405162461bcd60e51b81526004016106ba906140a9565b600054600160a01b900460ff161561374c5760405162461bcd60e51b81526004016106ba906140eb565b6001600160a01b0381166137a25760405162461bcd60e51b815260206004820152601960248201527f496e76616c696420666f7277617264657220616464726573730000000000000060448201526064016106ba565b600180546001600160a01b0319166001600160a01b0392909216919091179055565b6000546001600160a01b03166137d8613969565b6001600160a01b0316146137fe5760405162461bcd60e51b81526004016106ba906140a9565b600054600160a01b900460ff16156138285760405162461bcd60e51b81526004016106ba906140eb565b8181116138815760405162461bcd60e51b815260206004820152602160248201527f456e642074696d65206d7573742062652061667465722073746172742074696d6044820152606560f81b60648201526084016106ba565b600282905560038190556000805460ff60a81b1916600160a81b17905560408051838152602081018390527fa9f7a30954268b69f72fd46bd5e2c3dc8895e8ad643f8533bcdaf2e3af606e56910160405180910390a15050565b600480546138e89061415b565b80601f01602080910402602001604051908101604052809291908181526020018280546139149061415b565b80156139615780601f1061393657610100808354040283529160200191613961565b820191906000526020600020905b81548152906001019060200180831161394457829003601f168201915b505050505081565b60006014361080159061398657506001546001600160a01b031633145b15613998575060131936013560601c90565b503390565b6040518060e00160405280600063ffffffff168152602001600060ff168152602001600060ff16815260200160006001600160401b031681526020016060815260200160608152602001606081525090565b5080546139fb9061415b565b6000825580601f10613a0b575050565b601f016020900490600052602060002090810190613a299190613a2c565b50565b5b80821115613a415760008155600101613a2d565b5090565b80356001600160a01b0381168114613a5c57600080fd5b919050565b600060208284031215613a7357600080fd5b613a7c82613a45565b9392505050565b60008083601f840112613a9557600080fd5b5081356001600160401b03811115613aac57600080fd5b602083019150836020828501011115613ac457600080fd5b9250929050565b60008060208385031215613ade57600080fd5b82356001600160401b03811115613af457600080fd5b613b0085828601613a83565b90969095509350505050565b634e487b7160e01b600052604160045260246000fd5b600060208284031215613b3457600080fd5b81356001600160401b0380821115613b4b57600080fd5b818401915084601f830112613b5f57600080fd5b813581811115613b7157613b71613b0c565b604051601f8201601f19908116603f01168101908382118183101715613b9957613b99613b0c565b81604052828152876020848701011115613bb257600080fd5b826020860160208301376000928101602001929092525095945050505050565b6000815180845260005b81811015613bf857602081850181015186830182015201613bdc565b506000602082860101526020601f19601f83011685010191505092915050565b63ffffffff815116825260ff602082015116602083015260ff60408201511660408301526001600160401b0360608201511660608301526000608082015160e06080850152613c6a60e0850182613bd2565b905060a083015184820360a0860152613c838282613bd2565b91505060c083015184820360c0860152613c9d8282613bd2565b95945050505050565b6000602080830181845280855180835260408601915060408160051b870101925083870160005b82811015613cfb57603f19888603018452613ce9858351613c18565b94509285019290850190600101613ccd565b5092979650505050505050565b600060208284031215613d1a57600080fd5b5035919050565b63ffffffff8816815260ff8716602082015260ff861660408201526001600160401b038516606082015260e060808201526000613d6160e0830186613bd2565b82810360a0840152613d738186613bd2565b905082810360c0840152613d878185613bd2565b9a9950505050505050505050565b602081526000613a7c6020830184613c18565b803560ff81168114613a5c57600080fd5b600080600060608486031215613dce57600080fd5b613dd784613a45565b9250613de560208501613da8565b9150613df360408501613da8565b90509250925092565b60008060008060008060008060a0898b031215613e1857600080fd5b88356001600160401b0380821115613e2f57600080fd5b613e3b8c838d01613a83565b909a50985060208b0135915080821115613e5457600080fd5b613e608c838d01613a83565b909850965060408b0135915080821115613e7957600080fd5b50613e868b828c01613a83565b9095509350613e99905060608a01613da8565b9150613ea760808a01613da8565b90509295985092959890939650565b60008083601f840112613ec857600080fd5b5081356001600160401b03811115613edf57600080fd5b6020830191508360208260051b8501011115613ac457600080fd5b60008060208385031215613f0d57600080fd5b82356001600160401b03811115613f2357600080fd5b613b0085828601613eb6565b60008060408385031215613f4257600080fd5b613f4b83613da8565b9150613f5960208401613da8565b90509250929050565b600060208284031215613f7457600080fd5b81358015158114613a7c57600080fd5b60008060008060008060008060008060a08b8d031215613fa357600080fd5b8a356001600160401b0380821115613fba57600080fd5b613fc68e838f01613eb6565b909c509a5060208d0135915080821115613fdf57600080fd5b613feb8e838f01613eb6565b909a50985060408d013591508082111561400457600080fd5b6140108e838f01613eb6565b909850965060608d013591508082111561402957600080fd5b6140358e838f01613eb6565b909650945060808d013591508082111561404e57600080fd5b5061405b8d828e01613eb6565b915080935050809150509295989b9194979a5092959850565b6000806040838503121561408757600080fd5b50508035926020909101359150565b602081526000613a7c6020830184613bd2565b60208082526022908201527f4f6e6c792061646d696e2063616e20706572666f726d2074686973206163746960408201526137b760f11b606082015260800190565b6020808252601a908201527f566f74696e672069732063757272656e746c7920616374697665000000000000604082015260600190565b634e487b7160e01b600052601160045260246000fd5b600063ffffffff80831681810361415157614151614122565b6001019392505050565b600181811c9082168061416f57607f821691505b602082108103610fc057634e487b7160e01b600052602260045260246000fd5b601f8211156141d957600081815260208120601f850160051c810160208610156141b65750805b601f850160051c820191505b818110156141d5578281556001016141c2565b5050505b505050565b81516001600160401b038111156141f7576141f7613b0c565b61420b81614205845461415b565b8461418f565b602080601f83116001811461424057600084156142285750858301515b600019600386901b1c1916600185901b1785556141d5565b600085815260208120601f198616915b8281101561426f57888601518255948401946001909101908401614250565b508582101561428d5787850151600019600388901b60f8161c191681555b5050505050600190811b01905550565b81835281816020850137506000828201602090810191909152601f909101601f19169091010190565b6080815260006142da60808301868861429d565b8281036020840152600081526020810191505060ff8416604083015260ff8316606083015295945050505050565b818103818111156122fd576122fd614122565b634e487b7160e01b600052603260045260246000fd5b60006001820161434357614343614122565b5060010190565b60808152600061435e60808301888a61429d565b828103602084015261437181878961429d565b91505060ff8416604083015260ff83166060830152979650505050505050565b808201808211156122fd576122fd614122565b6000602082840312156143b657600080fd5b613a7c82613da8565b6000808335601e198436030181126143d657600080fd5b8301803591506001600160401b038211156143f057600080fd5b602001915036819003821315613ac457600080fd5b60006001600160401b0382168061441e5761441e614122565b6000190192915050565b60006001600160401b038083168181036141515761415161412256fea264697066735822122024971165188eba839d4d6322377ede08dc4ee87892b021c77a8afa13d48dbc4064736f6c63430008130033",
  "linkReferences": {},
  "deployedLinkReferences": {}
}