{
  "_format": "hh-sol-artifact-1",
  "contractName": "VotingV2",
  "sourceName": "contracts/Voting.sol",
  "abi": [
    {
      "inputs": [],
      "stateMutability": "nonpayable",
      "type": "constructor"
    },
    {
      "anonymous": false,
      "inputs": [
        {
          "indexed": true,
          "internalType": "uint256",
          "name": "candidateId",
          "type": "uint256"
        },
        {
          "indexed": false,
          "internalType": "string",
          "name": "name",
          "type": "string"
        },
        {
          "indexed": false,
          "internalType": "string",
          "name": "partyName",
          "type": "string"
        },
        {
          "indexed": false,
          "internalType": "uint8",
          "name": "stateCode",
          "type": "uint8"
        },
        {
          "indexed": false,
          "internalType": "uint8",
          "name": "constituencyCode",
          "type": "uint8"
        }
      ],
      "name": "CandidateAdded",
      "type": "event"
    },
    {
      "anonymous": false,
      "inputs": [
        {
          "indexed": true,
          "internalType": "uint256",
          "name": "obfuscatedId",
          "type": "uint256"
        },
        {
          "indexed": false,
          "internalType": "uint256",
          "name": "timestamp",
          "type": "uint256"
        },
        {
          "indexed": false,
          "internalType": "uint256",
          "name": "version",
          "type": "uint256"
        }
      ],
      "name": "VoteCast",
      "type": "event"
    },
    {
      "anonymous": false,
      "inputs": [
        {
          "indexed": true,
          "internalType": "address",
          "name": "voter",
          "type": "address"
        },
        {
          "indexed": false,
          "internalType": "uint256",
          "name": "version",
          "type": "uint256"
        },
        {
          "indexed": false,
          "internalType": "uint256",
          "name": "timestamp",
          "type": "uint256"
        }
      ],
      "name": "VoteUpdated",
      "type": "event"
    },
    {
      "anonymous": false,
      "inputs": [
        {
          "indexed": true,
          "internalType": "address",
          "name": "voter",
          "type": "address"
        },
        {
          "indexed": false,
          "internalType": "uint8",
          "name": "stateCode",
          "type": "uint8"
        },
        {
          "indexed": false,
          "internalType": "uint8",
          "name": "constituencyCode",
          "type": "uint8"
        }
      ],
      "name": "VoterAuthorized",
      "type": "event"
    },
    {
      "anonymous": false,
      "inputs": [
        {
          "indexed": false,
          "internalType": "bool",
          "name": "isActive",
          "type": "bool"
        }
      ],
      "name": "VotingStatusChanged",
      "type": "event"
    },
    {
      "anonymous": false,
      "inputs": [
        {
          "indexed": false,
          "internalType": "uint256",
          "name": "startTime",
          "type": "uint256"
        },
        {
          "indexed": false,
          "internalType": "uint256",
          "name": "endTime",
          "type": "uint256"
        }
      ],
      "name": "VotingTimelineSet",
      "type": "event"
    },
    {
      "inputs": [],
      "name": "MAX_REVOTES",
      "outputs": [
        {
          "internalType": "uint256",
          "name": "",
          "type": "uint256"
        }
      ],
      "stateMutability": "view",
      "type": "function"
    },
    {
      "inputs": [],
      "name": "REVOTE_LOCKOUT",
      "outputs": [
        {
          "internalType": "uint256",
          "name": "",
          "type": "uint256"
        }
      ],
      "stateMutability": "view",
      "type": "function"
    },
    {
      "inputs": [
        {
          "internalType": "string",
          "name": "_name",
          "type": "string"
        },
        {
          "internalType": "string",
          "name": "_partyName",
          "type": "string"
        },
        {
          "internalType": "string",
          "name": "_partySymbol",
          "type": "string"
        },
        {
          "internalType": "uint8",
          "name": "_stateCode",
          "type": "uint8"
        },
        {
          "internalType": "uint8",
          "name": "_constituencyCode",
          "type": "uint8"
        }
      ],
      "name": "addCandidate",
      "outputs": [],
      "stateMutability": "nonpayable",
      "type": "function"
    },
    {
      "inputs": [
        {
          "internalType": "string",
          "name": "_name",
          "type": "string"
        }
      ],
      "name": "addCandidateSimple",
      "outputs": [],
      "stateMutability": "nonpayable",
      "type": "function"
    },
    {
      "inputs": [],
      "name": "admin",
      "outputs": [
        {
          "internalType": "address",
          "name": "",
          "type": "address"
        }
      ],
      "stateMutability": "view",
      "type": "function"
    },
    {
      "inputs": [
        {
          "internalType": "address",
          "name": "_voter",
          "type": "address"
        },
        {
          "internalType": "uint8",
          "name": "_stateCode",
          "type": "uint8"
        },
        {
          "internalType": "uint8",
          "name": "_constituencyCode",
          "type": "uint8"
        }
      ],
      "name": "authorizeVoter",
      "outputs": [],
      "stateMutability": "nonpayable",
      "type": "function"
    },
    {
      "inputs": [
        {
          "internalType": "address",
          "name": "_voter",
          "type": "address"
        }
      ],
      "name": "authorizeVoterSimple",
      "outputs": [],
      "stateMutability": "nonpayable",
      "type": "function"
    },
    {
      "inputs": [
        {
          "internalType": "address[]",
          "name": "_voters",
          "type": "address[]"
        }
      ],
      "name": "authorizeVotersBatch",
      "outputs": [],
      "stateMutability": "nonpayable",
      "type": "function"
    },
    {
      "inputs": [
        {
          "internalType": "uint256",
          "name": "",
          "type": "uint256"
        }
      ],
      "name": "candidates",
      "outputs": [
        {
          "internalType": "uint32",
          "name": "id",
          "type": "uint32"
        },
        {
          "internalType": "uint8",
          "name": "stateCode",
          "type": "uint8"
        },
        {
          "internalType": "uint8",
          "name": "constituencyCode",
          "type": "uint8"
        },
        {
          "internalType": "uint64",
          "name": "voteCount",
          "type": "uint64"
        },
        {
          "internalType": "string",
          "name": "name",
          "type": "string"
        },
        {
          "internalType": "string",
          "name": "partyName",
          "type": "string"
        },
        {
          "internalType": "string",
          "name": "partySymbol",
          "type": "string"
        }
      ],
      "stateMutability": "view",
      "type": "function"
    },
    {
      "inputs": [],
      "name": "candidatesCount",
      "outputs": [
        {
          "internalType": "uint32",
          "name": "",
          "type": "uint32"
        }
      ],
      "stateMutability": "view",
      "type": "function"
    },
    {
      "inputs": [],
      "name": "disableTimeline",
      "outputs": [],
      "stateMutability": "nonpayable",
      "type": "function"
    },
    {
      "inputs": [],
      "name": "electionIPFSHash",
      "outputs": [
        {
          "internalType": "string",
          "name": "",
          "type": "string"
        }
      ],
      "stateMutability": "view",
      "type": "function"
    },
    {
      "inputs": [],
      "name": "endVoting",
      "outputs": [],
      "stateMutability": "nonpayable",
      "type": "function"
    },
    {
      "inputs": [],
      "name": "getAllCandidates",
      "outputs": [
        {
          "components": [
            {
              "internalType": "uint32",
              "name": "id",
              "type": "uint32"
            },
            {
              "internalType": "uint8",
              "name": "stateCode",
              "type": "uint8"
            },
            {
              "internalType": "uint8",
              "name": "constituencyCode",
              "type": "uint8"
            },
            {
              "internalType": "uint64",
              "name": "voteCount",
              "type": "uint64"
            },
            {
              "internalType": "string",
              "name": "name",
              "type": "string"
            },
            {
              "internalType": "string",
              "name": "partyName",
              "type": "string"
            },
            {
              "internalType": "string",
              "name": "partySymbol",
              "type": "string"
            }
          ],
          "internalType": "struct VotingV2.Candidate[]",
          "name": "",
          "type": "tuple[]"
        }
      ],
      "stateMutability": "view",
      "type": "function"
    },
    {
      "inputs": [
        {
          "internalType": "uint256",
          "name": "_candidateId",
          "type": "uint256"
        }
      ],
      "name": "getCandidate",
      "outputs": [
        {
          "components": [
            {
              "internalType": "uint32",
              "name": "id",
              "type": "uint32"
            },
            {
              "internalType": "uint8",
              "name": "stateCode",
              "type": "uint8"
            },
            {
              "internalType": "uint8",
              "name": "constituencyCode",
              "type": "uint8"
            },
            {
              "internalType": "uint64",
              "name": "voteCount",
              "type": "uint64"
            },
            {
              "internalType": "string",
              "name": "name",
              "type": "string"
            },
            {
              "internalType": "string",
              "name": "partyName",
              "type": "string"
            },
            {
              "internalType": "string",
              "name": "partySymbol",
              "type": "string"
            }
          ],
          "internalType": "struct VotingV2.Candidate",
          "name": "",
          "type": "tuple"
        }
      ],
      "stateMutability": "view",
      "type": "function"
    },
    {
      "inputs": [
        {
          "internalType": "uint8",
          "name": "_stateCode",
          "type": "uint8"
        },
        {
          "internalType": "uint8",
          "name": "_constituencyCode",
          "type": "uint8"
        }
      ],
      "name": "getCandidatesByConstituency",
      "outputs": [
        {
          "components": [
            {
              "internalType": "uint32",
              "name": "id",
              "type": "uint32"
            },
            {
              "internalType": "uint8",
              "name": "stateCode",
              "type": "uint8"
            },
            {
              "internalType": "uint8",
              "name": "constituencyCode",
              "type": "uint8"
            },
            {
              "internalType": "uint64",
              "name": "voteCount",
              "type": "uint64"
            },
            {
              "internalType": "string",
              "name": "name",
              "type": "string"
            },
            {
              "internalType": "string",
              "name": "partyName",
              "type": "string"
            },
            {
              "internalType": "string",
              "name": "partySymbol",
              "type": "string"
            }
          ],
          "internalType": "struct VotingV2.Candidate[]",
          "name": "",
          "type": "tuple[]"
        }
      ],
      "stateMutability": "view",
      "type": "function"
    },
    {
      "inputs": [],
      "name": "getRevoteConfig",
      "outputs": [
        {
          "internalType": "uint256",
          "name": "maxRevotes",
          "type": "uint256"
        },
        {
          "internalType": "uint256",
          "name": "lockoutSeconds",
          "type": "uint256"
        },
        {
          "internalType": "bool",
          "name": "revoteWindowOpen",
          "type": "bool"
        }
      ],
      "stateMutability": "view",
      "type": "function"
    },
    {
      "inputs": [],
      "name": "getTotalVotes",
      "outputs": [
        {
          "internalType": "uint256",
          "name": "",
          "type": "uint256"
        }
      ],
      "stateMutability": "view",
      "type": "function"
    },
    {
      "inputs": [
        {
          "internalType": "address",
          "name": "_voter",
          "type": "address"
        }
      ],
      "name": "getVoteReceipt",
      "outputs": [
        {
          "internalType": "bytes32",
          "name": "receiptHash",
          "type": "bytes32"
        }
      ],
      "stateMutability": "view",
      "type": "function"
    },
    {
      "inputs": [
        {
          "internalType": "address",
          "name": "_voter",
          "type": "address"
        }
      ],
      "name": "getVoterInfo",
      "outputs": [
        {
          "internalType": "bool",
          "name": "isAuthorized",
          "type": "bool"
        },
        {
          "internalType": "bool",
          "name": "hasVoted",
          "type": "bool"
        },
        {
          "internalType": "uint8",
          "name": "stateCode",
          "type": "uint8"
        },
        {
          "internalType": "uint8",
          "name": "constituencyCode",
          "type": "uint8"
        },
        {
          "internalType": "uint256",
          "name": "voteVersion",
          "type": "uint256"
        },
        {
          "internalType": "bool",
          "name": "canRevote",
          "type": "bool"
        }
      ],
      "stateMutability": "view",
      "type": "function"
    },
    {
      "inputs": [],
      "name": "getVotingTimeline",
      "outputs": [
        {
          "internalType": "bool",
          "name": "_timelineEnabled",
          "type": "bool"
        },
        {
          "internalType": "uint256",
          "name": "_startTime",
          "type": "uint256"
        },
        {
          "internalType": "uint256",
          "name": "_endTime",
          "type": "uint256"
        },
        {
          "internalType": "bool",
          "name": "_isActive",
          "type": "bool"
        }
      ],
      "stateMutability": "view",
      "type": "function"
    },
    {
      "inputs": [],
      "name": "getWinner",
      "outputs": [
        {
          "components": [
            {
              "internalType": "uint32",
              "name": "id",
              "type": "uint32"
            },
            {
              "internalType": "uint8",
              "name": "stateCode",
              "type": "uint8"
            },
            {
              "internalType": "uint8",
              "name": "constituencyCode",
              "type": "uint8"
            },
            {
              "internalType": "uint64",
              "name": "voteCount",
              "type": "uint64"
            },
            {
              "internalType": "string",
              "name": "name",
              "type": "string"
            },
            {
              "internalType": "string",
              "name": "partyName",
              "type": "string"
            },
            {
              "internalType": "string",
              "name": "partySymbol",
              "type": "string"
            }
          ],
          "internalType": "struct VotingV2.Candidate",
          "name": "",
          "type": "tuple"
        }
      ],
      "stateMutability": "view",
      "type": "function"
    },
    {
      "inputs": [
        {
          "internalType": "address",
          "name": "_voter",
          "type": "address"
        }
      ],
      "name": "hasVoterVoted",
      "outputs": [
        {
          "internalType": "bool",
          "name": "",
          "type": "bool"
        }
      ],
      "stateMutability": "view",
      "type": "function"
    },
    {
      "inputs": [
        {
          "internalType": "address",
          "name": "forwarder",
          "type": "address"
        }
      ],
      "name": "isTrustedForwarder",
      "outputs": [
        {
          "internalType": "bool",
          "name": "",
          "type": "bool"
        }
      ],
      "stateMutability": "view",
      "type": "function"
    },
    {
      "inputs": [
        {
          "internalType": "address",
          "name": "_voter",
          "type": "address"
        }
      ],
      "name": "isVoterAuthorized",
      "outputs": [
        {
          "internalType": "bool",
          "name": "",
          "type": "bool"
        }
      ],
      "stateMutability": "view",
      "type": "function"
    },
    {
      "inputs": [
        {
          "internalType": "string",
          "name": "_hash",
          "type": "string"
        }
      ],
      "name": "setElectionIPFSHash",
      "outputs": [],
      "stateMutability": "nonpayable",
      "type": "function"
    },
    {
      "inputs": [
        {
          "internalType": "address",
          "name": "_forwarder",
          "type": "address"
        }
      ],
      "name": "setTrustedForwarder",
      "outputs": [],
      "stateMutability": "nonpayable",
      "type": "function"
    },
    {
      "inputs": [
        {
          "internalType": "uint256",
          "name": "_startTime",
          "type": "uint256"
        },
        {
          "internalType": "uint256",
          "name": "_endTime",
          "type": "uint256"
        }
      ],
      "name": "setVotingTimeline",
      "outputs": [],
      "stateMutability": "nonpayable",
      "type": "function"
    },
    {
      "inputs": [
        {
          "internalType": "bool",
          "name": "_enabled",
          "type": "bool"
        }
      ],
      "name": "setZKPMode",
      "outputs": [],
      "stateMutability": "nonpayable",
      "type": "function"
    },
    {
      "inputs": [],
      "name": "startVoting",
      "outputs": [],
      "stateMutability": "nonpayable",
      "type": "function"
    },
    {
      "inputs": [],
      "name": "timelineEnabled",
      "outputs": [
        {
          "internalType": "bool",
          "name": "",
          "type": "bool"
        }
      ],
      "stateMutability": "view",
      "type": "function"
    },
    {
      "inputs": [],
      "name": "trustedForwarder",
      "outputs": [
        {
          "internalType": "address",
          "name": "",
          "type": "address"
        }
      ],
      "stateMutability": "view",
      "type": "function"
    },
    {
      "inputs": [
        {
          "internalType": "uint256",
          "name": "_candidateId",
          "type": "uint256"
        },
        {
          "internalType": "uint256",
          "name": "_secretSalt",
          "type": "uint256"
        }
      ],
      "name": "vote",
      "outputs": [],
      "stateMutability": "nonpayable",
      "type": "function"
    },
    {
      "inputs": [
        {
          "internalType": "address",
          "name": "",
          "type": "address"
        }
      ],
      "name": "voters",
      "outputs": [
        {
          "internalType": "bool",
          "name": "isAuthorized",
          "type": "bool"
        },
        {
          "internalType": "bool",
          "name": "hasVoted",
          "type": "bool"
        },
        {
          "internalType": "uint8",
          "name": "stateCode",
          "type": "uint8"
        },
        {
          "internalType": "uint8",
          "name": "constituencyCode",
          "type": "uint8"
        },
        {
          "internalType": "uint32",
          "name": "lastCandidateId",
          "type": "uint32"
        },
        {
          "internalType": "uint32",
          "name": "voteVersion",
          "type": "uint32"
        }
      ],
      "stateMutability": "view",
      "type": "function"
    },
    {
      "inputs": [],
      "name": "votingActive",
      "outputs": [
        {
          "internalType": "bool",
          "name": "",
          "type": "bool"
        }
      ],
      "stateMutability": "view",
      "type": "function"
    },
    {
      "inputs": [],
      "name": "votingEndTime",
      "outputs": [
        {
          "internalType": "uint256",
          "name": "",
          "type": "uint256"
        }
      ],
      "stateMutability": "view",
      "type": "function"
    },
    {
      "inputs": [],
      "name": "votingStartTime",
      "outputs": [
        {
          "internalType": "uint256",
          "name": "",
          "type": "uint256"
        }
      ],
      "stateMutability": "view",
      "type": "function"
    },
    {
      "inputs": [],
      "name": "zkpEnabled",
      "outputs": [
        {
          "internalType": "bool",
          "name": "",
          "type": "bool"
        }
      ],
      "stateMutability": "view",
      "type": "function"
    }
  ],
  "bytecode": "0x608060405234801561001057600080fd5b506000805462ffffff60a01b1933166001600160b81b0319909116179055600180546001600160a01b0319169055613c1b8061004d6000396000f3fe608060405234801561001057600080fd5b50600436106102325760003560e01c80638e7ea5b211610130578063a3ec138d116100b8578063da7422281161007c578063da742228146105ea578063efbe52a5146105fd578063f3535ed914610610578063f851a44014610625578063fd11f97a1461063857600080fd5b8063a3ec138d14610509578063b384abef146105a1578063bb8e2626146105b4578063c3403ddf146105bd578063c64bd70a146105c557600080fd5b806396459c97116100ff57806396459c971461047c57806399010a3f1461048f57806399999dbb146104a35780639a0e7d66146104b65780639ed1f255146104be57600080fd5b80638e7ea5b21461040d57806394c1866114610415578063952fedbd14610456578063963ae6961461046957600080fd5b80632d35a8a2116101be578063572b6c0511610182578063572b6c051461039157806376d85285146103b35780637ab8c2af146103bb5780637da0a877146103ce5780637de9eb36146103f957600080fd5b80632d35a8a2146102f65780632e6997fe146103225780633477ee2e1461033757806335b8e8201461035d578063408e27271461037d57600080fd5b80631fcef3a6116102055780631fcef3a6146102a15780632019a608146102b457806320a75b6f146102bd57806320d94185146102d0578063233af203146102e357600080fd5b8063072da235146102375780630ea21eae146102525780631ea736e01461028e5780631ec6b60a14610297575b600080fd5b61023f600381565b6040519081526020015b60405180910390f35b61027e610260366004613358565b6001600160a01b031660009081526006602052604090205460ff1690565b6040519015158152602001610249565b61023f60035481565b61029f610669565b005b61029f6102af3660046133c2565b61076c565b61023f60025481565b61023f6102cb366004613358565b610a1a565b61029f6102de366004613358565b610b02565b61029f6102f1366004613419565b610c49565b60005461030d90600160b81b900463ffffffff1681565b60405163ffffffff9091168152602001610249565b61032a610c83565b604051610249919061359d565b61034a6103453660046135ff565b610f60565b6040516102499796959493929190613618565b61037061036b3660046135ff565b611150565b604051610249919061368c565b60005461027e90600160a01b900460ff1681565b61027e61039f366004613358565b6001546001600160a01b0391821691161490565b61029f6113db565b61029f6103c93660046136b0565b611446565b6001546103e1906001600160a01b031681565b6040516001600160a01b039091168152602001610249565b60005461027e90600160a81b900460ff1681565b6103706115c9565b60005460025460035460ff600160a81b8404811693600160a01b90041660408051941515855260208501939093529183015215156060820152608001610249565b61029f6104643660046136f3565b61190c565b61029f6104773660046137ad565b611c1b565b61032a61048a366004613821565b611e58565b60005461027e90600160b01b900460ff1681565b61029f6104b1366004613854565b612275565b61023f6122e7565b6104d16104cc366004613358565b612340565b604080519615158752941515602087015260ff93841694860194909452911660608401526080830152151560a082015260c001610249565b610562610517366004613358565b60066020526000908152604090205460ff808216916101008104821691620100008204811691630100000081049091169063ffffffff600160201b8204811691600160401b90041686565b604080519615158752941515602087015260ff938416948601949094529116606084015263ffffffff90811660808401521660a082015260c001610249565b61029f6105af366004613876565b61244c565b61023f61070881565b61029f612ea2565b6105cd613009565b604080519384526020840192909252151590820152606001610249565b61029f6105f8366004613358565b613055565b61029f61060b366004613876565b613121565b610618613228565b6040516102499190613898565b6000546103e1906001600160a01b031681565b61027e610646366004613358565b6001600160a01b0316600090815260066020526040902054610100900460ff1690565b6000546001600160a01b0316331461069c5760405162461bcd60e51b8152600401610693906138ab565b60405180910390fd5b600054600160a01b900460ff16156106c65760405162461bcd60e51b8152600401610693906138ed565b600054600160b81b900463ffffffff166107225760405162461bcd60e51b815260206004820152601760248201527f4e6f2063616e64696461746573206164646564207965740000000000000000006044820152606401610693565b6000805460ff60a01b1916600160a01b179055604051600181527f9069a1a16ace751e8690f383e12f87b01e8488ba387e626810bd113fef0417f9906020015b60405180910390a1565b6000546001600160a01b031633146107965760405162461bcd60e51b8152600401610693906138ab565b600054600160a01b900460ff16156107c05760405162461bcd60e51b8152600401610693906138ed565b8061080d5760405162461bcd60e51b815260206004820152601e60248201527f43616e646964617465206e616d652063616e6e6f7420626520656d70747900006044820152606401610693565b60008054600160b81b900463ffffffff1690601761082a8361393a565b91906101000a81548163ffffffff021916908363ffffffff160217905550506040518060e00160405280600060179054906101000a900463ffffffff1663ffffffff168152602001600060ff168152602001600060ff16815260200160006001600160401b0316815260200183838080601f016020809104026020016040519081016040528093929190818152602001838380828437600092018290525093855250506040805160208181018352848252808601919091528151808201835284815294820194909452825463ffffffff600160b81b90910481168452600585529281902085518154958701519287015160608801516001600160401b0316600160301b026dffffffffffffffff0000000000001960ff928316600160281b02166dffffffffffffffffff00000000001992909516600160201b0264ffffffffff199098169290961691909117959095179490941617919091178255506080820151600182019061099a90826139e0565b5060a082015160028201906109af90826139e0565b5060c082015160038201906109c490826139e0565b505060008054604051600160b81b90910463ffffffff1692507f6135a8aa9d6cc5d530ba4b0a845dee7aa1a1fdae782c52af9b878ed15a2f3be791610a0e91869186918190613ac8565b60405180910390a25050565b6001600160a01b038116600090815260066020526040812054610100900460ff16610a875760405162461bcd60e51b815260206004820152601760248201527f566f74657220686173206e6f7420766f746564207965740000000000000000006044820152606401610693565b506001600160a01b03811660009081526006602090815260409182902054825160609490941b6001600160601b03191684830152466034850152641d9bdd195960da1b6054850152600160401b900460e01b6001600160e01b03191660598401528151808403603d018152605d909301909152815191012090565b6000546001600160a01b03163314610b2c5760405162461bcd60e51b8152600401610693906138ab565b6001600160a01b038116610b7a5760405162461bcd60e51b8152602060048201526015602482015274496e76616c696420766f746572206164647265737360581b6044820152606401610693565b6001600160a01b03811660009081526006602052604090205460ff1615610be35760405162461bcd60e51b815260206004820152601b60248201527f566f74657220697320616c726561647920617574686f72697a656400000000006044820152606401610693565b6001600160a01b038116600081815260066020908152604080832080546001600160601b03191660011790558051838152918201929092527f8566080dad97874e0793db9668cb0c866def86b15a575f648354a6d13cde5238910160405180910390a250565b6000546001600160a01b03163314610c735760405162461bcd60e51b8152600401610693906138ab565b6004610c7f82826139e0565b5050565b6000805460609190600160b81b900463ffffffff166001600160401b03811115610caf57610caf613403565b604051908082528060200260200182016040528015610ce857816020015b610cd56132ea565b815260200190600190039081610ccd5790505b50905060015b600054600160b81b900463ffffffff168111610f5a57600081815260056020908152604091829020825160e081018452815463ffffffff81168252600160201b810460ff90811694830194909452600160281b810490931693810193909352600160301b9091046001600160401b03166060830152600181018054608084019190610d789061395d565b80601f0160208091040260200160405190810160405280929190818152602001828054610da49061395d565b8015610df15780601f10610dc657610100808354040283529160200191610df1565b820191906000526020600020905b815481529060010190602001808311610dd457829003601f168201915b50505050508152602001600282018054610e0a9061395d565b80601f0160208091040260200160405190810160405280929190818152602001828054610e369061395d565b8015610e835780601f10610e5857610100808354040283529160200191610e83565b820191906000526020600020905b815481529060010190602001808311610e6657829003601f168201915b50505050508152602001600382018054610e9c9061395d565b80601f0160208091040260200160405190810160405280929190818152602001828054610ec89061395d565b8015610f155780601f10610eea57610100808354040283529160200191610f15565b820191906000526020600020905b815481529060010190602001808311610ef857829003601f168201915b50505050508152505082600183610f2c9190613b0a565b81518110610f3c57610f3c613b1d565b60200260200101819052508080610f5290613b33565b915050610cee565b50919050565b6005602052600090815260409020805460018201805463ffffffff831693600160201b840460ff90811694600160281b810490911693600160301b9091046001600160401b031692610fb19061395d565b80601f0160208091040260200160405190810160405280929190818152602001828054610fdd9061395d565b801561102a5780601f10610fff5761010080835404028352916020019161102a565b820191906000526020600020905b81548152906001019060200180831161100d57829003601f168201915b50505050509080600201805461103f9061395d565b80601f016020809104026020016040519081016040528092919081815260200182805461106b9061395d565b80156110b85780601f1061108d576101008083540402835291602001916110b8565b820191906000526020600020905b81548152906001019060200180831161109b57829003601f168201915b5050505050908060030180546110cd9061395d565b80601f01602080910402602001604051908101604052809291908181526020018280546110f99061395d565b80156111465780601f1061111b57610100808354040283529160200191611146565b820191906000526020600020905b81548152906001019060200180831161112957829003601f168201915b5050505050905087565b6111586132ea565b6000821180156111775750600054600160b81b900463ffffffff168211155b6111ba5760405162461bcd60e51b8152602060048201526014602482015273125b9d985b1a590818d85b991a59185d1948125160621b6044820152606401610693565b600082815260056020908152604091829020825160e081018452815463ffffffff81168252600160201b810460ff90811694830194909452600160281b810490931693810193909352600160301b9091046001600160401b0316606083015260018101805460808401919061122e9061395d565b80601f016020809104026020016040519081016040528092919081815260200182805461125a9061395d565b80156112a75780601f1061127c576101008083540402835291602001916112a7565b820191906000526020600020905b81548152906001019060200180831161128a57829003601f168201915b505050505081526020016002820180546112c09061395d565b80601f01602080910402602001604051908101604052809291908181526020018280546112ec9061395d565b80156113395780601f1061130e57610100808354040283529160200191611339565b820191906000526020600020905b81548152906001019060200180831161131c57829003601f168201915b505050505081526020016003820180546113529061395d565b80601f016020809104026020016040519081016040528092919081815260200182805461137e9061395d565b80156113cb5780601f106113a0576101008083540402835291602001916113cb565b820191906000526020600020905b8154815290600101906020018083116113ae57829003601f168201915b5050505050815250509050919050565b6000546001600160a01b031633146114055760405162461bcd60e51b8152600401610693906138ab565b600054600160a01b900460ff161561142f5760405162461bcd60e51b8152600401610693906138ed565b6000805460ff60a81b191681556002819055600355565b6000546001600160a01b031633146114705760405162461bcd60e51b8152600401610693906138ab565b6001600160a01b0383166114be5760405162461bcd60e51b8152602060048201526015602482015274496e76616c696420766f746572206164647265737360581b6044820152606401610693565b6001600160a01b03831660009081526006602052604090205460ff16156115275760405162461bcd60e51b815260206004820152601b60248201527f566f74657220697320616c726561647920617574686f72697a656400000000006044820152606401610693565b6001600160a01b0383166000818152600660209081526040918290208054600162ffffff199091166201000060ff89811691820292909217929092176bffffffffffffffffff000000191663010000009188169182026bffffffffffffffff000000001916179092558351908152918201527f8566080dad97874e0793db9668cb0c866def86b15a575f648354a6d13cde5238910160405180910390a2505050565b6115d16132ea565b600054600160b81b900463ffffffff1661162d5760405162461bcd60e51b815260206004820152601760248201527f4e6f2063616e6469646174657320617661696c61626c650000000000000000006044820152606401610693565b60008060015b600054600160b81b900463ffffffff1681116116a657600081815260056020526040902054600160301b90046001600160401b031683101561169457600081815260056020526040902054600160301b90046001600160401b031692509050805b8061169e81613b33565b915050611633565b50600081116116eb5760405162461bcd60e51b8152602060048201526011602482015270139bc81d9bdd195cc818d85cdd081e595d607a1b6044820152606401610693565b600081815260056020908152604091829020825160e081018452815463ffffffff81168252600160201b810460ff90811694830194909452600160281b810490931693810193909352600160301b9091046001600160401b0316606083015260018101805460808401919061175f9061395d565b80601f016020809104026020016040519081016040528092919081815260200182805461178b9061395d565b80156117d85780601f106117ad576101008083540402835291602001916117d8565b820191906000526020600020905b8154815290600101906020018083116117bb57829003601f168201915b505050505081526020016002820180546117f19061395d565b80601f016020809104026020016040519081016040528092919081815260200182805461181d9061395d565b801561186a5780601f1061183f5761010080835404028352916020019161186a565b820191906000526020600020905b81548152906001019060200180831161184d57829003601f168201915b505050505081526020016003820180546118839061395d565b80601f01602080910402602001604051908101604052809291908181526020018280546118af9061395d565b80156118fc5780601f106118d1576101008083540402835291602001916118fc565b820191906000526020600020905b8154815290600101906020018083116118df57829003601f168201915b5050505050815250509250505090565b6000546001600160a01b031633146119365760405162461bcd60e51b8152600401610693906138ab565b600054600160a01b900460ff16156119605760405162461bcd60e51b8152600401610693906138ed565b866119ad5760405162461bcd60e51b815260206004820152601e60248201527f43616e646964617465206e616d652063616e6e6f7420626520656d70747900006044820152606401610693565b60008054600160b81b900463ffffffff169060176119ca8361393a565b91906101000a81548163ffffffff021916908363ffffffff160217905550506040518060e00160405280600060179054906101000a900463ffffffff1663ffffffff1681526020018360ff1681526020018260ff16815260200160006001600160401b0316815260200189898080601f016020809104026020016040519081016040528093929190818152602001838380828437600092019190915250505090825250604080516020601f8a0181900481028201810190925288815291810191908990899081908401838280828437600092019190915250505090825250604080516020601f8801819004810282018101909252868152918101919087908790819084018382808284376000920182905250939094525050805463ffffffff600160b81b909104811682526005602090815260409283902085518154928701519487015160608801516001600160401b0316600160301b026dffffffffffffffff0000000000001960ff928316600160281b02166dffffffffffffffffff00000000001992909716600160201b0264ffffffffff19909516929095169190911792909217919091169290921717815560808301519091506001820190611b9090826139e0565b5060a08201516002820190611ba590826139e0565b5060c08201516003820190611bba90826139e0565b5050600054604051600160b81b90910463ffffffff1691507f6135a8aa9d6cc5d530ba4b0a845dee7aa1a1fdae782c52af9b878ed15a2f3be790611c09908b908b908b908b9089908990613b4c565b60405180910390a25050505050505050565b6000546001600160a01b03163314611c455760405162461bcd60e51b8152600401610693906138ab565b6032811115611cc75760405162461bcd60e51b815260206004820152604260248201527f42617463682073697a652065786365656473206d6178696d756d206f6620353060448201527f20746f2070726576656e7420626c6f636b20676173206c696d697420726576656064820152611c9d60f21b608482015260a401610693565b8060005b81811015611e52576000848483818110611ce757611ce7613b1d565b9050602002016020810190611cfc9190613358565b90506001600160a01b03811615801590611d2f57506001600160a01b03811660009081526006602052604090205460ff16155b15611e41576040805160c0810182526001815260006020808301828152838501838152606085018481526080860185815260a087018681526001600160a01b038a1680885260068752898820985189549651955194519351925161ffff1990971690151561ff00191617610100951515959095029490941763ffff000019166201000060ff9485160263ff00000019161763010000009390921692909202176bffffffffffffffff000000001916600160201b63ffffffff9283160263ffffffff60401b191617600160401b91909316029190911790935583518281529081019190915290917f8566080dad97874e0793db9668cb0c866def86b15a575f648354a6d13cde5238910160405180910390a25b50611e4b81613b33565b9050611ccb565b50505050565b6000805460609190600160b81b900463ffffffff166001600160401b03811115611e8457611e84613403565b604051908082528060200260200182016040528015611ebd57816020015b611eaa6132ea565b815260200190600190039081611ea25790505b509050600060015b600054600160b81b900463ffffffff1681116121bd5760008181526005602052604090205460ff878116600160201b909204161480611f1a5750600081815260056020526040902054600160201b900460ff16155b8015611f60575060008181526005602052604090205460ff868116600160281b909204161480611f605750600081815260056020526040902054600160281b900460ff16155b156121ab57600081815260056020908152604091829020825160e081018452815463ffffffff81168252600160201b810460ff90811694830194909452600160281b810490931693810193909352600160301b9091046001600160401b03166060830152600181018054608084019190611fd99061395d565b80601f01602080910402602001604051908101604052809291908181526020018280546120059061395d565b80156120525780601f1061202757610100808354040283529160200191612052565b820191906000526020600020905b81548152906001019060200180831161203557829003601f168201915b5050505050815260200160028201805461206b9061395d565b80601f01602080910402602001604051908101604052809291908181526020018280546120979061395d565b80156120e45780601f106120b9576101008083540402835291602001916120e4565b820191906000526020600020905b8154815290600101906020018083116120c757829003601f168201915b505050505081526020016003820180546120fd9061395d565b80601f01602080910402602001604051908101604052809291908181526020018280546121299061395d565b80156121765780601f1061214b57610100808354040283529160200191612176565b820191906000526020600020905b81548152906001019060200180831161215957829003601f168201915b50505050508152505083838151811061219157612191613b1d565b602002602001018190525081806121a790613b33565b9250505b806121b581613b33565b915050611ec5565b506000816001600160401b038111156121d8576121d8613403565b60405190808252806020026020018201604052801561221157816020015b6121fe6132ea565b8152602001906001900390816121f65790505b50905060005b828110156122695783818151811061223157612231613b1d565b602002602001015182828151811061224b5761224b613b1d565b6020026020010181905250808061226190613b33565b915050612217565b50925050505b92915050565b6000546001600160a01b0316331461229f5760405162461bcd60e51b8152600401610693906138ab565b600054600160a01b900460ff16156122c95760405162461bcd60e51b8152600401610693906138ed565b60008054911515600160b01b0260ff60b01b19909216919091179055565b60008060015b600054600160b81b900463ffffffff168111610f5a5760008181526005602052604090205461232c90600160301b90046001600160401b031683613b93565b91508061233881613b33565b9150506122ed565b6001600160a01b0381166000908152600660209081526040808320815160c081018352905460ff80821615158352610100820481161580159584018690526201000083048216948401949094526301000000820416606083015263ffffffff600160201b820481166080840152600160401b9091041660a0820152839283928392839283928391906123dc575060038260a0015163ffffffff16105b90508080156123f45750600054600160a81b900460ff165b801561240257506000600354115b1561241c576107086003546124179190613b0a565b421090505b815160208301516040840151606085015160a090950151929c919b50995092975063ffffffff1695509350915050565b600054600160a01b900460ff1661249c5760405162461bcd60e51b8152602060048201526014602482015273566f74696e67206973206e6f742061637469766560601b6044820152606401610693565b600054600160a81b900460ff161561254c576002544210156125005760405162461bcd60e51b815260206004820152601a60248201527f566f74696e6720686173206e6f742073746172746564207965740000000000006044820152606401610693565b60035442111561254c5760405162461bcd60e51b8152602060048201526017602482015276159bdd1a5b99c81c195c9a5bd9081a185cc8195b991959604a1b6044820152606401610693565b600054600160b01b900460ff16156125cc5760405162461bcd60e51b815260206004820152603760248201527f5a4b50206d6f6465206973206163746976653a2075736520746865205a4b502060448201527f766f74696e6720636f6e747261637420696e73746561640000000000000000006064820152608401610693565b6000546001600160a01b03166125e06132b6565b6001600160a01b03160361262a5760405162461bcd60e51b815260206004820152601160248201527041646d696e2063616e6e6f7420766f746560781b6044820152606401610693565b6000600660006126386132b6565b6001600160a01b031681526020808201929092526040908101600020815160c081018352905460ff80821615158084526101008304821615159584019590955262010000820481169383019390935263010000008104909216606082015263ffffffff600160201b830481166080830152600160401b90920490911660a082015291506127075760405162461bcd60e51b815260206004820152601e60248201527f596f7520617265206e6f7420617574686f72697a656420746f20766f746500006044820152606401610693565b6000831180156127265750600054600160b81b900463ffffffff168311155b6127695760405162461bcd60e51b8152602060048201526014602482015273125b9d985b1a590818d85b991a59185d1948125160621b6044820152606401610693565b8060200151156128fb5760038160a0015163ffffffff16106127cd5760405162461bcd60e51b815260206004820152601d60248201527f4d6178696d756d2072652d766f7465206c696d697420726561636865640000006044820152606401610693565b600054600160a81b900460ff1680156127e857506000600354115b15612868576107086003546127fd9190613b0a565b42106128685760405162461bcd60e51b815260206004820152603460248201527f52652d766f74696e672077696e646f772068617320636c6f7365642e2046696e60448201527330b6103b37ba32b99030b932903637b1b5b2b21760611b6064820152608401610693565b6000816080015163ffffffff161180156128995750600054608082015163ffffffff600160b81b9092048216911611155b156128fb57608081015163ffffffff1660009081526005602052604090208054600160301b90046001600160401b03169060066128d583613ba6565b91906101000a8154816001600160401b0302191690836001600160401b03160217905550505b6000838152600560209081526040808320815160e081018352815463ffffffff81168252600160201b810460ff90811695830195909552600160281b810490941692810192909252600160301b9092046001600160401b031660608201526001820180549192916080840191906129719061395d565b80601f016020809104026020016040519081016040528092919081815260200182805461299d9061395d565b80156129ea5780601f106129bf576101008083540402835291602001916129ea565b820191906000526020600020905b8154815290600101906020018083116129cd57829003601f168201915b50505050508152602001600282018054612a039061395d565b80601f0160208091040260200160405190810160405280929190818152602001828054612a2f9061395d565b8015612a7c5780601f10612a5157610100808354040283529160200191612a7c565b820191906000526020600020905b815481529060010190602001808311612a5f57829003601f168201915b50505050508152602001600382018054612a959061395d565b80601f0160208091040260200160405190810160405280929190818152602001828054612ac19061395d565b8015612b0e5780601f10612ae357610100808354040283529160200191612b0e565b820191906000526020600020905b815481529060010190602001808311612af157829003601f168201915b5050505050815250509050816040015160ff16600014158015612b375750602081015160ff1615155b15612bb057806020015160ff16826040015160ff1614612bb05760405162461bcd60e51b815260206004820152602e60248201527f596f752063616e206f6e6c7920766f746520666f722063616e6469646174657360448201526d20696e20796f757220737461746560901b6064820152608401610693565b606082015160ff1615801590612bcc5750604081015160ff1615155b15612c4c57806040015160ff16826060015160ff1614612c4c5760405162461bcd60e51b815260206004820152603560248201527f596f752063616e206f6e6c7920766f746520666f722063616e6469646174657360448201527420696e20796f757220636f6e7374697475656e637960581b6064820152608401610693565b6001602083015263ffffffff8416608083015260a08201805190612c6f8261393a565b63ffffffff169052508160066000612c856132b6565b6001600160a01b0316815260208082019290925260409081016000908120845181548686015187860151606089015160808a015160a0909a015161ffff1990941694151561ff00191694909417610100921515929092029190911763ffff000019166201000060ff9283160263ff00000019161763010000009190931602919091176bffffffffffffffff000000001916600160201b63ffffffff9788160263ffffffff60401b191617600160401b969091169590950294909417909355868352600590915290208054600160301b90046001600160401b0316906006612d6b83613bc9565b91906101000a8154816001600160401b0302191690836001600160401b031602179055505083612d996132b6565b4285604051602001612dd1949392919093845260609290921b6001600160601b03191660208401526034830152605482015260740190565b60408051601f19818403018152828252805160209182012060a086015142855263ffffffff1691840191909152917f24930ecca7f60d4736cd965cb5522694ea4b32308405d3f88fea2f59eff63caa910160405180910390a260018260a0015163ffffffff161115611e5257612e456132b6565b6001600160a01b03167f338e5997c317851fce0b89c180051473a7db2b2769a378a34443540b375336678360a0015142604051612e9492919063ffffffff929092168252602082015260400190565b60405180910390a250505050565b6000546001600160a01b03163314612ecc5760405162461bcd60e51b8152600401610693906138ab565b600054600160a01b900460ff16612f1c5760405162461bcd60e51b8152602060048201526014602482015273566f74696e67206973206e6f742061637469766560601b6044820152606401610693565b600054600160a81b900460ff1615612fcc57600254421015612f805760405162461bcd60e51b815260206004820152601a60248201527f566f74696e6720686173206e6f742073746172746564207965740000000000006044820152606401610693565b600354421115612fcc5760405162461bcd60e51b8152602060048201526017602482015276159bdd1a5b99c81c195c9a5bd9081a185cc8195b991959604a1b6044820152606401610693565b6000805460ff60a01b191681556040519081527f9069a1a16ace751e8690f383e12f87b01e8488ba387e626810bd113fef0417f990602001610762565b6000805481908190600190600160a81b900460ff16801561302c57506000600354115b15613046576107086003546130419190613b0a565b421090505b60039461070894509092509050565b6000546001600160a01b0316331461307f5760405162461bcd60e51b8152600401610693906138ab565b600054600160a01b900460ff16156130a95760405162461bcd60e51b8152600401610693906138ed565b6001600160a01b0381166130ff5760405162461bcd60e51b815260206004820152601960248201527f496e76616c696420666f727761726465722061646472657373000000000000006044820152606401610693565b600180546001600160a01b0319166001600160a01b0392909216919091179055565b6000546001600160a01b0316331461314b5760405162461bcd60e51b8152600401610693906138ab565b600054600160a01b900460ff16156131755760405162461bcd60e51b8152600401610693906138ed565b8181116131ce5760405162461bcd60e51b815260206004820152602160248201527f456e642074696d65206d7573742062652061667465722073746172742074696d6044820152606560f81b6064820152608401610693565b600282905560038190556000805460ff60a81b1916600160a81b17905560408051838152602081018390527fa9f7a30954268b69f72fd46bd5e2c3dc8895e8ad643f8533bcdaf2e3af606e56910160405180910390a15050565b600480546132359061395d565b80601f01602080910402602001604051908101604052809291908181526020018280546132619061395d565b80156132ae5780601f10613283576101008083540402835291602001916132ae565b820191906000526020600020905b81548152906001019060200180831161329157829003601f168201915b505050505081565b6000601436108015906132d357506001546001600160a01b031633145b156132e5575060131936013560601c90565b503390565b6040518060e00160405280600063ffffffff168152602001600060ff168152602001600060ff16815260200160006001600160401b031681526020016060815260200160608152602001606081525090565b80356001600160a01b038116811461335357600080fd5b919050565b60006020828403121561336a57600080fd5b6133738261333c565b9392505050565b60008083601f84011261338c57600080fd5b5081356001600160401b038111156133a357600080fd5b6020830191508360208285010111156133bb57600080fd5b9250929050565b600080602083850312156133d557600080fd5b82356001600160401b038111156133eb57600080fd5b6133f78582860161337a565b90969095509350505050565b634e487b7160e01b600052604160045260246000fd5b60006020828403121561342b57600080fd5b81356001600160401b038082111561344257600080fd5b818401915084601f83011261345657600080fd5b81358181111561346857613468613403565b604051601f8201601f19908116603f0116810190838211818310171561349057613490613403565b816040528281528760208487010111156134a957600080fd5b826020860160208301376000928101602001929092525095945050505050565b6000815180845260005b818110156134ef576020818501810151868301820152016134d3565b506000602082860101526020601f19601f83011685010191505092915050565b63ffffffff815116825260ff602082015116602083015260ff60408201511660408301526001600160401b0360608201511660608301526000608082015160e0608085015261356160e08501826134c9565b905060a083015184820360a086015261357a82826134c9565b91505060c083015184820360c086015261359482826134c9565b95945050505050565b6000602080830181845280855180835260408601915060408160051b870101925083870160005b828110156135f257603f198886030184526135e085835161350f565b945092850192908501906001016135c4565b5092979650505050505050565b60006020828403121561361157600080fd5b5035919050565b63ffffffff8816815260ff8716602082015260ff861660408201526001600160401b038516606082015260e06080820152600061365860e08301866134c9565b82810360a084015261366a81866134c9565b905082810360c084015261367e81856134c9565b9a9950505050505050505050565b602081526000613373602083018461350f565b803560ff8116811461335357600080fd5b6000806000606084860312156136c557600080fd5b6136ce8461333c565b92506136dc6020850161369f565b91506136ea6040850161369f565b90509250925092565b60008060008060008060008060a0898b03121561370f57600080fd5b88356001600160401b038082111561372657600080fd5b6137328c838d0161337a565b909a50985060208b013591508082111561374b57600080fd5b6137578c838d0161337a565b909850965060408b013591508082111561377057600080fd5b5061377d8b828c0161337a565b9095509350613790905060608a0161369f565b915061379e60808a0161369f565b90509295985092959890939650565b600080602083850312156137c057600080fd5b82356001600160401b03808211156137d757600080fd5b818501915085601f8301126137eb57600080fd5b8135818111156137fa57600080fd5b8660208260051b850101111561380f57600080fd5b60209290920196919550909350505050565b6000806040838503121561383457600080fd5b61383d8361369f565b915061384b6020840161369f565b90509250929050565b60006020828403121561386657600080fd5b8135801515811461337357600080fd5b6000806040838503121561388957600080fd5b50508035926020909101359150565b60208152600061337360208301846134c9565b60208082526022908201527f4f6e6c792061646d696e2063616e20706572666f726d2074686973206163746960408201526137b760f11b606082015260800190565b6020808252601a908201527f566f74696e672069732063757272656e746c7920616374697665000000000000604082015260600190565b634e487b7160e01b600052601160045260246000fd5b600063ffffffff80831681810361395357613953613924565b6001019392505050565b600181811c9082168061397157607f821691505b602082108103610f5a57634e487b7160e01b600052602260045260246000fd5b601f8211156139db57600081815260208120601f850160051c810160208610156139b85750805b601f850160051c820191505b818110156139d7578281556001016139c4565b5050505b505050565b81516001600160401b038111156139f9576139f9613403565b613a0d81613a07845461395d565b84613991565b602080601f831160018114613a425760008415613a2a5750858301515b600019600386901b1c1916600185901b1785556139d7565b600085815260208120601f198616915b82811015613a7157888601518255948401946001909101908401613a52565b5085821015613a8f5787850151600019600388901b60f8161c191681555b5050505050600190811b01905550565b81835281816020850137506000828201602090810191909152601f909101601f19169091010190565b608081526000613adc608083018688613a9f565b8281036020840152600081526020810191505060ff8416604083015260ff8316606083015295945050505050565b8181038181111561226f5761226f613924565b634e487b7160e01b600052603260045260246000fd5b600060018201613b4557613b45613924565b5060010190565b608081526000613b6060808301888a613a9f565b8281036020840152613b73818789613a9f565b91505060ff8416604083015260ff83166060830152979650505050505050565b8082018082111561226f5761226f613924565b60006001600160401b03821680613bbf57613bbf613924565b6000190192915050565b60006001600160401b038083168181036139535761395361392456fea2646970667358221220d718ee0be02fd05f900c53dc198c950eaf51d8d6e1472d76c3954f0112c5226964736f6c63430008130033",
  "linkReferences": {},
  "deployedLinkReferences": {}
}