{
  "_format": "hh-sol-artifact-1",
  "contractName": "Voting",
  "sourceName": "contracts/Voting.sol",
  "abi": [
    {
      "inputs": [],
      "stateMutability": "nonpayable",
      "type": "constructor"
    },
    {
      "anonymous": false,
      "inputs": [
        {
          "indexed": true,
          "internalType": "uint256",
          "name": "candidateId",
          "type": "uint256"
        },
        {
          "indexed": false,
          "internalType": "string",
          "name": "name",
          "type": "string"
        }
      ],
      "name": "CandidateAdded",
      "type": "event"
    },
    {
      "anonymous": false,
      "inputs": [
        {
          "indexed": true,
          "internalType": "address",
          "name": "voter",
          "type": "address"
        },
        {
          "indexed": true,
          "internalType": "uint256",
          "name": "candidateId",
          "type": "uint256"
        }
      ],
      "name": "VoteCast",
      "type": "event"
    },
    {
      "anonymous": false,
      "inputs": [
        {
          "indexed": true,
          "internalType": "address",
          "name": "voter",
          "type": "address"
        }
      ],
      "name": "VoterAuthorized",
      "type": "event"
    },
    {
      "anonymous": false,
      "inputs": [
        {
          "indexed": false,
          "internalType": "bool",
          "name": "isActive",
          "type": "bool"
        }
      ],
      "name": "VotingStatusChanged",
      "type": "event"
    },
    {
      "inputs": [
        {
          "internalType": "string",
          "name": "_name",
          "type": "string"
        }
      ],
      "name": "addCandidate",
      "outputs": [],
      "stateMutability": "nonpayable",
      "type": "function"
    },
    {
      "inputs": [],
      "name": "admin",
      "outputs": [
        {
          "internalType": "address",
          "name": "",
          "type": "address"
        }
      ],
      "stateMutability": "view",
      "type": "function"
    },
    {
      "inputs": [
        {
          "internalType": "address",
          "name": "_voter",
          "type": "address"
        }
      ],
      "name": "authorizeVoter",
      "outputs": [],
      "stateMutability": "nonpayable",
      "type": "function"
    },
    {
      "inputs": [
        {
          "internalType": "address[]",
          "name": "_voters",
          "type": "address[]"
        }
      ],
      "name": "authorizeVotersBatch",
      "outputs": [],
      "stateMutability": "nonpayable",
      "type": "function"
    },
    {
      "inputs": [
        {
          "internalType": "uint256",
          "name": "",
          "type": "uint256"
        }
      ],
      "name": "candidates",
      "outputs": [
        {
          "internalType": "uint256",
          "name": "id",
          "type": "uint256"
        },
        {
          "internalType": "string",
          "name": "name",
          "type": "string"
        },
        {
          "internalType": "uint256",
          "name": "voteCount",
          "type": "uint256"
        }
      ],
      "stateMutability": "view",
      "type": "function"
    },
    {
      "inputs": [],
      "name": "candidatesCount",
      "outputs": [
        {
          "internalType": "uint256",
          "name": "",
          "type": "uint256"
        }
      ],
      "stateMutability": "view",
      "type": "function"
    },
    {
      "inputs": [],
      "name": "endVoting",
      "outputs": [],
      "stateMutability": "nonpayable",
      "type": "function"
    },
    {
      "inputs": [],
      "name": "getAllCandidates",
      "outputs": [
        {
          "components": [
            {
              "internalType": "uint256",
              "name": "id",
              "type": "uint256"
            },
            {
              "internalType": "string",
              "name": "name",
              "type": "string"
            },
            {
              "internalType": "uint256",
              "name": "voteCount",
              "type": "uint256"
            }
          ],
          "internalType": "struct Voting.Candidate[]",
          "name": "",
          "type": "tuple[]"
        }
      ],
      "stateMutability": "view",
      "type": "function"
    },
    {
      "inputs": [
        {
          "internalType": "uint256",
          "name": "_candidateId",
          "type": "uint256"
        }
      ],
      "name": "getCandidate",
      "outputs": [
        {
          "components": [
            {
              "internalType": "uint256",
              "name": "id",
              "type": "uint256"
            },
            {
              "internalType": "string",
              "name": "name",
              "type": "string"
            },
            {
              "internalType": "uint256",
              "name": "voteCount",
              "type": "uint256"
            }
          ],
          "internalType": "struct Voting.Candidate",
          "name": "",
          "type": "tuple"
        }
      ],
      "stateMutability": "view",
      "type": "function"
    },
    {
      "inputs": [],
      "name": "getTotalVotes",
      "outputs": [
        {
          "internalType": "uint256",
          "name": "",
          "type": "uint256"
        }
      ],
      "stateMutability": "view",
      "type": "function"
    },
    {
      "inputs": [
        {
          "internalType": "address",
          "name": "_voter",
          "type": "address"
        }
      ],
      "name": "getVoterChoice",
      "outputs": [
        {
          "internalType": "uint256",
          "name": "",
          "type": "uint256"
        }
      ],
      "stateMutability": "view",
      "type": "function"
    },
    {
      "inputs": [],
      "name": "getWinner",
      "outputs": [
        {
          "components": [
            {
              "internalType": "uint256",
              "name": "id",
              "type": "uint256"
            },
            {
              "internalType": "string",
              "name": "name",
              "type": "string"
            },
            {
              "internalType": "uint256",
              "name": "voteCount",
              "type": "uint256"
            }
          ],
          "internalType": "struct Voting.Candidate",
          "name": "",
          "type": "tuple"
        }
      ],
      "stateMutability": "view",
      "type": "function"
    },
    {
      "inputs": [
        {
          "internalType": "address",
          "name": "_voter",
          "type": "address"
        }
      ],
      "name": "hasVoterVoted",
      "outputs": [
        {
          "internalType": "bool",
          "name": "",
          "type": "bool"
        }
      ],
      "stateMutability": "view",
      "type": "function"
    },
    {
      "inputs": [
        {
          "internalType": "address",
          "name": "_voter",
          "type": "address"
        }
      ],
      "name": "isVoterAuthorized",
      "outputs": [
        {
          "internalType": "bool",
          "name": "",
          "type": "bool"
        }
      ],
      "stateMutability": "view",
      "type": "function"
    },
    {
      "inputs": [],
      "name": "startVoting",
      "outputs": [],
      "stateMutability": "nonpayable",
      "type": "function"
    },
    {
      "inputs": [
        {
          "internalType": "uint256",
          "name": "_candidateId",
          "type": "uint256"
        }
      ],
      "name": "vote",
      "outputs": [],
      "stateMutability": "nonpayable",
      "type": "function"
    },
    {
      "inputs": [
        {
          "internalType": "address",
          "name": "",
          "type": "address"
        }
      ],
      "name": "voters",
      "outputs": [
        {
          "internalType": "bool",
          "name": "isAuthorized",
          "type": "bool"
        },
        {
          "internalType": "bool",
          "name": "hasVoted",
          "type": "bool"
        },
        {
          "internalType": "uint256",
          "name": "votedCandidateId",
          "type": "uint256"
        }
      ],
      "stateMutability": "view",
      "type": "function"
    },
    {
      "inputs": [],
      "name": "votingActive",
      "outputs": [
        {
          "internalType": "bool",
          "name": "",
          "type": "bool"
        }
      ],
      "stateMutability": "view",
      "type": "function"
    }
  ],
  "bytecode": "0x608060405234801561001057600080fd5b506000805460ff60a01b1933166001600160a81b03199091161790556116688061003b6000396000f3fe608060405234801561001057600080fd5b50600436106101165760003560e01c80638847103b116100a2578063a3ec138d11610071578063a3ec138d14610244578063c3403ddf14610295578063f851a4401461029d578063fd11f97a146102c8578063fd47b368146102f957600080fd5b80638847103b1461020e5780638e7ea5b214610221578063963ae696146102295780639a0e7d661461023c57600080fd5b80632e6997fe116100e95780632e6997fe146101905780633477ee2e146101a557806335b8e820146101c7578063408e2727146101e7578063462e91ec146101fb57600080fd5b80630121b93f1461011b5780630ea21eae146101305780631ec6b60a146101715780632d35a8a214610179575b600080fd5b61012e610129366004611132565b61030c565b005b61015c61013e366004611167565b6001600160a01b031660009081526002602052604090205460ff1690565b60405190151581526020015b60405180910390f35b61012e6104e4565b61018260035481565b604051908152602001610168565b610198610604565b6040516101689190611202565b6101b86101b3366004611132565b610786565b60405161016893929190611264565b6101da6101d5366004611132565b610830565b604051610168919061128d565b60005461015c90600160a01b900460ff1681565b61012e6102093660046112e7565b61096d565b61018261021c366004611167565b610ae6565b6101da610b72565b61012e61023736600461137c565b610d43565b610182610f0e565b610278610252366004611167565b6002602052600090815260409020805460019091015460ff808316926101009004169083565b604080519315158452911515602084015290820152606001610168565b61012e610f4d565b6000546102b0906001600160a01b031681565b6040516001600160a01b039091168152602001610168565b61015c6102d6366004611167565b6001600160a01b0316600090815260026020526040902054610100900460ff1690565b61012e610307366004611167565b611004565b600054600160a01b900460ff166103615760405162461bcd60e51b8152602060048201526014602482015273566f74696e67206973206e6f742061637469766560601b60448201526064015b60405180910390fd5b3360009081526002602052604090205460ff166103c05760405162461bcd60e51b815260206004820152601e60248201527f596f7520617265206e6f7420617574686f72697a656420746f20766f746500006044820152606401610358565b33600090815260026020526040902054610100900460ff161561041e5760405162461bcd60e51b8152602060048201526016602482015275165bdd481a185d9948185b1c9958591e481d9bdd195960521b6044820152606401610358565b60008111801561043057506003548111155b6104735760405162461bcd60e51b8152602060048201526014602482015273125b9d985b1a590818d85b991a59185d1948125160621b6044820152606401610358565b336000908152600260208181526040808420805461ff00191661010017815560019081018690558585529091528220018054916104af8361143f565b9091555050604051819033907fa36cc2bebb74db33e9f88110a07ef56e1b31b24b4c4f51b54b1664266e29f45b90600090a350565b6000546001600160a01b0316331461050e5760405162461bcd60e51b815260040161035890611458565b600054600160a01b900460ff16156105685760405162461bcd60e51b815260206004820152601a60248201527f566f74696e672069732063757272656e746c79206163746976650000000000006044820152606401610358565b6000600354116105ba5760405162461bcd60e51b815260206004820152601760248201527f4e6f2063616e64696461746573206164646564207965740000000000000000006044820152606401610358565b6000805460ff60a01b1916600160a01b179055604051600181527f9069a1a16ace751e8690f383e12f87b01e8488ba387e626810bd113fef0417f9906020015b60405180910390a1565b6060600060035467ffffffffffffffff811115610623576106236112a0565b60405190808252806020026020018201604052801561067857816020015b61066560405180606001604052806000815260200160608152602001600081525090565b8152602001906001900390816106415790505b50905060015b600354811161078057600081815260016020818152604092839020835160608101909452805484529182018054918401916106b89061149a565b80601f01602080910402602001604051908101604052809291908181526020018280546106e49061149a565b80156107315780601f1061070657610100808354040283529160200191610731565b820191906000526020600020905b81548152906001019060200180831161071457829003601f168201915b505050505081526020016002820154815250508260018361075291906114ce565b81518110610762576107626114e7565b602002602001018190525080806107789061143f565b91505061067e565b50919050565b6001602081905260009182526040909120805491810180546107a79061149a565b80601f01602080910402602001604051908101604052809291908181526020018280546107d39061149a565b80156108205780601f106107f557610100808354040283529160200191610820565b820191906000526020600020905b81548152906001019060200180831161080357829003601f168201915b5050505050908060020154905083565b61085460405180606001604052806000815260200160608152602001600081525090565b60008211801561086657506003548211155b6108a95760405162461bcd60e51b8152602060048201526014602482015273125b9d985b1a590818d85b991a59185d1948125160621b6044820152606401610358565b600082815260016020818152604092839020835160608101909452805484529182018054918401916108da9061149a565b80601f01602080910402602001604051908101604052809291908181526020018280546109069061149a565b80156109535780601f1061092857610100808354040283529160200191610953565b820191906000526020600020905b81548152906001019060200180831161093657829003601f168201915b505050505081526020016002820154815250509050919050565b6000546001600160a01b031633146109975760405162461bcd60e51b815260040161035890611458565b600054600160a01b900460ff16156109f15760405162461bcd60e51b815260206004820152601a60248201527f566f74696e672069732063757272656e746c79206163746976650000000000006044820152606401610358565b6000815111610a425760405162461bcd60e51b815260206004820152601e60248201527f43616e646964617465206e616d652063616e6e6f7420626520656d70747900006044820152606401610358565b60038054906000610a528361143f565b909155505060408051606081018252600354808252602080830185815260008486018190529283526001918290529390912082518155925191929190820190610a9b908261154c565b50604082015181600201559050506003547fe83b2a43e7e82d975c8a0a6d2f045153c869e111136a34d1889ab7b598e396a382604051610adb919061160c565b60405180910390a250565b6001600160a01b038116600090815260026020526040812054610100900460ff16610b535760405162461bcd60e51b815260206004820152601760248201527f566f74657220686173206e6f7420766f746564207965740000000000000000006044820152606401610358565b506001600160a01b031660009081526002602052604090206001015490565b610b9660405180606001604052806000815260200160608152602001600081525090565b600060035411610be85760405162461bcd60e51b815260206004820152601760248201527f4e6f2063616e6469646174657320617661696c61626c650000000000000000006044820152606401610358565b60008060015b6003548111610c3a57600081815260016020526040902060020154831015610c285760008181526001602052604090206002015492509050805b80610c328161143f565b915050610bee565b5060008111610c7f5760405162461bcd60e51b8152602060048201526011602482015270139bc81d9bdd195cc818d85cdd081e595d607a1b6044820152606401610358565b60008181526001602081815260409283902083516060810190945280548452918201805491840191610cb09061149a565b80601f0160208091040260200160405190810160405280929190818152602001828054610cdc9061149a565b8015610d295780601f10610cfe57610100808354040283529160200191610d29565b820191906000526020600020905b815481529060010190602001808311610d0c57829003601f168201915b505050505081526020016002820154815250509250505090565b6000546001600160a01b03163314610d6d5760405162461bcd60e51b815260040161035890611458565b60005b8151811015610f0a5760026000838381518110610d8f57610d8f6114e7565b6020908102919091018101516001600160a01b031682528101919091526040016000205460ff16158015610def575060006001600160a01b0316828281518110610ddb57610ddb6114e7565b60200260200101516001600160a01b031614155b15610ef857600160026000848481518110610e0c57610e0c6114e7565b60200260200101516001600160a01b03166001600160a01b0316815260200190815260200160002060000160006101000a81548160ff021916908315150217905550600060026000848481518110610e6657610e666114e7565b60200260200101516001600160a01b03166001600160a01b0316815260200190815260200160002060000160016101000a81548160ff021916908315150217905550818181518110610eba57610eba6114e7565b60200260200101516001600160a01b03167f0ca65a9f1f88bd7257ac852d1062853358f81cdc56f9634dcbeed6090f8dfb4360405160405180910390a25b80610f028161143f565b915050610d70565b5050565b60008060015b600354811161078057600081815260016020526040902060020154610f39908361161f565b915080610f458161143f565b915050610f14565b6000546001600160a01b03163314610f775760405162461bcd60e51b815260040161035890611458565b600054600160a01b900460ff16610fc75760405162461bcd60e51b8152602060048201526014602482015273566f74696e67206973206e6f742061637469766560601b6044820152606401610358565b6000805460ff60a01b191681556040519081527f9069a1a16ace751e8690f383e12f87b01e8488ba387e626810bd113fef0417f9906020016105fa565b6000546001600160a01b0316331461102e5760405162461bcd60e51b815260040161035890611458565b6001600160a01b03811661107c5760405162461bcd60e51b8152602060048201526015602482015274496e76616c696420766f746572206164647265737360581b6044820152606401610358565b6001600160a01b03811660009081526002602052604090205460ff16156110e55760405162461bcd60e51b815260206004820152601b60248201527f566f74657220697320616c726561647920617574686f72697a656400000000006044820152606401610358565b6001600160a01b038116600081815260026020526040808220805461ffff19166001179055517f0ca65a9f1f88bd7257ac852d1062853358f81cdc56f9634dcbeed6090f8dfb439190a250565b60006020828403121561114457600080fd5b5035919050565b80356001600160a01b038116811461116257600080fd5b919050565b60006020828403121561117957600080fd5b6111828261114b565b9392505050565b6000815180845260005b818110156111af57602081850181015186830182015201611193565b506000602082860101526020601f19601f83011685010191505092915050565b8051825260006020820151606060208501526111ee6060850182611189565b604093840151949093019390935250919050565b6000602080830181845280855180835260408601915060408160051b870101925083870160005b8281101561125757603f198886030184526112458583516111cf565b94509285019290850190600101611229565b5092979650505050505050565b83815260606020820152600061127d6060830185611189565b9050826040830152949350505050565b60208152600061118260208301846111cf565b634e487b7160e01b600052604160045260246000fd5b604051601f8201601f1916810167ffffffffffffffff811182821017156112df576112df6112a0565b604052919050565b600060208083850312156112fa57600080fd5b823567ffffffffffffffff8082111561131257600080fd5b818501915085601f83011261132657600080fd5b813581811115611338576113386112a0565b61134a601f8201601f191685016112b6565b9150808252868482850101111561136057600080fd5b8084840185840137600090820190930192909252509392505050565b6000602080838503121561138f57600080fd5b823567ffffffffffffffff808211156113a757600080fd5b818501915085601f8301126113bb57600080fd5b8135818111156113cd576113cd6112a0565b8060051b91506113de8483016112b6565b81815291830184019184810190888411156113f857600080fd5b938501935b8385101561141d5761140e8561114b565b825293850193908501906113fd565b98975050505050505050565b634e487b7160e01b600052601160045260246000fd5b60006001820161145157611451611429565b5060010190565b60208082526022908201527f4f6e6c792061646d696e2063616e20706572666f726d2074686973206163746960408201526137b760f11b606082015260800190565b600181811c908216806114ae57607f821691505b60208210810361078057634e487b7160e01b600052602260045260246000fd5b818103818111156114e1576114e1611429565b92915050565b634e487b7160e01b600052603260045260246000fd5b601f82111561154757600081815260208120601f850160051c810160208610156115245750805b601f850160051c820191505b8181101561154357828155600101611530565b5050505b505050565b815167ffffffffffffffff811115611566576115666112a0565b61157a81611574845461149a565b846114fd565b602080601f8311600181146115af57600084156115975750858301515b600019600386901b1c1916600185901b178555611543565b600085815260208120601f198616915b828110156115de578886015182559484019460019091019084016115bf565b50858210156115fc5787850151600019600388901b60f8161c191681555b5050505050600190811b01905550565b6020815260006111826020830184611189565b808201808211156114e1576114e161142956fea2646970667358221220ac4b881f460ef4b7f625d3f523ece0a921024f1b7bd6c6dcd8099c7ddb0f33ee64736f6c63430008130033",
  "linkReferences": {},
  "deployedLinkReferences": {}
}