{
  "_format": "hh-sol-artifact-1",
  "contractName": "Voting",
  "sourceName": "contracts/Voting.sol",
  "abi": [
    {
      "inputs": [],
      "stateMutability": "nonpayable",
      "type": "constructor"
    },
    {
      "anonymous": false,
      "inputs": [
        {
          "indexed": true,
          "internalType": "uint256",
          "name": "candidateId",
          "type": "uint256"
        },
        {
          "indexed": false,
          "internalType": "string",
          "name": "name",
          "type": "string"
        },
        {
          "indexed": false,
          "internalType": "string",
          "name": "partyName",
          "type": "string"
        },
        {
          "indexed": false,
          "internalType": "uint8",
          "name": "stateCode",
          "type": "uint8"
        },
        {
          "indexed": false,
          "internalType": "uint8",
          "name": "constituencyCode",
          "type": "uint8"
        }
      ],
      "name": "CandidateAdded",
      "type": "event"
    },
    {
      "anonymous": false,
      "inputs": [
        {
          "indexed": true,
          "internalType": "address",
          "name": "voter",
          "type": "address"
        },
        {
          "indexed": true,
          "internalType": "uint256",
          "name": "candidateId",
          "type": "uint256"
        }
      ],
      "name": "VoteCast",
      "type": "event"
    },
    {
      "anonymous": false,
      "inputs": [
        {
          "indexed": true,
          "internalType": "address",
          "name": "voter",
          "type": "address"
        },
        {
          "indexed": false,
          "internalType": "uint8",
          "name": "stateCode",
          "type": "uint8"
        },
        {
          "indexed": false,
          "internalType": "uint8",
          "name": "constituencyCode",
          "type": "uint8"
        }
      ],
      "name": "VoterAuthorized",
      "type": "event"
    },
    {
      "anonymous": false,
      "inputs": [
        {
          "indexed": false,
          "internalType": "bool",
          "name": "isActive",
          "type": "bool"
        }
      ],
      "name": "VotingStatusChanged",
      "type": "event"
    },
    {
      "anonymous": false,
      "inputs": [
        {
          "indexed": false,
          "internalType": "uint256",
          "name": "startTime",
          "type": "uint256"
        },
        {
          "indexed": false,
          "internalType": "uint256",
          "name": "endTime",
          "type": "uint256"
        }
      ],
      "name": "VotingTimelineSet",
      "type": "event"
    },
    {
      "inputs": [
        {
          "internalType": "string",
          "name": "_name",
          "type": "string"
        },
        {
          "internalType": "string",
          "name": "_partyName",
          "type": "string"
        },
        {
          "internalType": "string",
          "name": "_partySymbol",
          "type": "string"
        },
        {
          "internalType": "uint8",
          "name": "_stateCode",
          "type": "uint8"
        },
        {
          "internalType": "uint8",
          "name": "_constituencyCode",
          "type": "uint8"
        }
      ],
      "name": "addCandidate",
      "outputs": [],
      "stateMutability": "nonpayable",
      "type": "function"
    },
    {
      "inputs": [
        {
          "internalType": "string",
          "name": "_name",
          "type": "string"
        }
      ],
      "name": "addCandidateSimple",
      "outputs": [],
      "stateMutability": "nonpayable",
      "type": "function"
    },
    {
      "inputs": [],
      "name": "admin",
      "outputs": [
        {
          "internalType": "address",
          "name": "",
          "type": "address"
        }
      ],
      "stateMutability": "view",
      "type": "function"
    },
    {
      "inputs": [
        {
          "internalType": "address",
          "name": "_voter",
          "type": "address"
        },
        {
          "internalType": "uint8",
          "name": "_stateCode",
          "type": "uint8"
        },
        {
          "internalType": "uint8",
          "name": "_constituencyCode",
          "type": "uint8"
        }
      ],
      "name": "authorizeVoter",
      "outputs": [],
      "stateMutability": "nonpayable",
      "type": "function"
    },
    {
      "inputs": [
        {
          "internalType": "address",
          "name": "_voter",
          "type": "address"
        }
      ],
      "name": "authorizeVoterSimple",
      "outputs": [],
      "stateMutability": "nonpayable",
      "type": "function"
    },
    {
      "inputs": [
        {
          "internalType": "address[]",
          "name": "_voters",
          "type": "address[]"
        }
      ],
      "name": "authorizeVotersBatch",
      "outputs": [],
      "stateMutability": "nonpayable",
      "type": "function"
    },
    {
      "inputs": [
        {
          "internalType": "uint256",
          "name": "",
          "type": "uint256"
        }
      ],
      "name": "candidates",
      "outputs": [
        {
          "internalType": "uint256",
          "name": "id",
          "type": "uint256"
        },
        {
          "internalType": "string",
          "name": "name",
          "type": "string"
        },
        {
          "internalType": "string",
          "name": "partyName",
          "type": "string"
        },
        {
          "internalType": "string",
          "name": "partySymbol",
          "type": "string"
        },
        {
          "internalType": "uint8",
          "name": "stateCode",
          "type": "uint8"
        },
        {
          "internalType": "uint8",
          "name": "constituencyCode",
          "type": "uint8"
        },
        {
          "internalType": "uint256",
          "name": "voteCount",
          "type": "uint256"
        }
      ],
      "stateMutability": "view",
      "type": "function"
    },
    {
      "inputs": [],
      "name": "candidatesCount",
      "outputs": [
        {
          "internalType": "uint256",
          "name": "",
          "type": "uint256"
        }
      ],
      "stateMutability": "view",
      "type": "function"
    },
    {
      "inputs": [],
      "name": "disableTimeline",
      "outputs": [],
      "stateMutability": "nonpayable",
      "type": "function"
    },
    {
      "inputs": [],
      "name": "endVoting",
      "outputs": [],
      "stateMutability": "nonpayable",
      "type": "function"
    },
    {
      "inputs": [],
      "name": "getAllCandidates",
      "outputs": [
        {
          "components": [
            {
              "internalType": "uint256",
              "name": "id",
              "type": "uint256"
            },
            {
              "internalType": "string",
              "name": "name",
              "type": "string"
            },
            {
              "internalType": "string",
              "name": "partyName",
              "type": "string"
            },
            {
              "internalType": "string",
              "name": "partySymbol",
              "type": "string"
            },
            {
              "internalType": "uint8",
              "name": "stateCode",
              "type": "uint8"
            },
            {
              "internalType": "uint8",
              "name": "constituencyCode",
              "type": "uint8"
            },
            {
              "internalType": "uint256",
              "name": "voteCount",
              "type": "uint256"
            }
          ],
          "internalType": "struct Voting.Candidate[]",
          "name": "",
          "type": "tuple[]"
        }
      ],
      "stateMutability": "view",
      "type": "function"
    },
    {
      "inputs": [
        {
          "internalType": "uint256",
          "name": "_candidateId",
          "type": "uint256"
        }
      ],
      "name": "getCandidate",
      "outputs": [
        {
          "components": [
            {
              "internalType": "uint256",
              "name": "id",
              "type": "uint256"
            },
            {
              "internalType": "string",
              "name": "name",
              "type": "string"
            },
            {
              "internalType": "string",
              "name": "partyName",
              "type": "string"
            },
            {
              "internalType": "string",
              "name": "partySymbol",
              "type": "string"
            },
            {
              "internalType": "uint8",
              "name": "stateCode",
              "type": "uint8"
            },
            {
              "internalType": "uint8",
              "name": "constituencyCode",
              "type": "uint8"
            },
            {
              "internalType": "uint256",
              "name": "voteCount",
              "type": "uint256"
            }
          ],
          "internalType": "struct Voting.Candidate",
          "name": "",
          "type": "tuple"
        }
      ],
      "stateMutability": "view",
      "type": "function"
    },
    {
      "inputs": [
        {
          "internalType": "uint8",
          "name": "_stateCode",
          "type": "uint8"
        },
        {
          "internalType": "uint8",
          "name": "_constituencyCode",
          "type": "uint8"
        }
      ],
      "name": "getCandidatesByConstituency",
      "outputs": [
        {
          "components": [
            {
              "internalType": "uint256",
              "name": "id",
              "type": "uint256"
            },
            {
              "internalType": "string",
              "name": "name",
              "type": "string"
            },
            {
              "internalType": "string",
              "name": "partyName",
              "type": "string"
            },
            {
              "internalType": "string",
              "name": "partySymbol",
              "type": "string"
            },
            {
              "internalType": "uint8",
              "name": "stateCode",
              "type": "uint8"
            },
            {
              "internalType": "uint8",
              "name": "constituencyCode",
              "type": "uint8"
            },
            {
              "internalType": "uint256",
              "name": "voteCount",
              "type": "uint256"
            }
          ],
          "internalType": "struct Voting.Candidate[]",
          "name": "",
          "type": "tuple[]"
        }
      ],
      "stateMutability": "view",
      "type": "function"
    },
    {
      "inputs": [],
      "name": "getTotalVotes",
      "outputs": [
        {
          "internalType": "uint256",
          "name": "",
          "type": "uint256"
        }
      ],
      "stateMutability": "view",
      "type": "function"
    },
    {
      "inputs": [
        {
          "internalType": "address",
          "name": "_voter",
          "type": "address"
        }
      ],
      "name": "getVoteReceipt",
      "outputs": [
        {
          "internalType": "bytes32",
          "name": "receiptHash",
          "type": "bytes32"
        }
      ],
      "stateMutability": "view",
      "type": "function"
    },
    {
      "inputs": [
        {
          "internalType": "address",
          "name": "_voter",
          "type": "address"
        }
      ],
      "name": "getVoterChoice",
      "outputs": [
        {
          "internalType": "uint256",
          "name": "",
          "type": "uint256"
        }
      ],
      "stateMutability": "view",
      "type": "function"
    },
    {
      "inputs": [
        {
          "internalType": "address",
          "name": "_voter",
          "type": "address"
        }
      ],
      "name": "getVoterInfo",
      "outputs": [
        {
          "internalType": "bool",
          "name": "isAuthorized",
          "type": "bool"
        },
        {
          "internalType": "bool",
          "name": "hasVoted",
          "type": "bool"
        },
        {
          "internalType": "uint8",
          "name": "stateCode",
          "type": "uint8"
        },
        {
          "internalType": "uint8",
          "name": "constituencyCode",
          "type": "uint8"
        },
        {
          "internalType": "uint256",
          "name": "votedCandidateId",
          "type": "uint256"
        }
      ],
      "stateMutability": "view",
      "type": "function"
    },
    {
      "inputs": [],
      "name": "getVotingTimeline",
      "outputs": [
        {
          "internalType": "bool",
          "name": "_timelineEnabled",
          "type": "bool"
        },
        {
          "internalType": "uint256",
          "name": "_startTime",
          "type": "uint256"
        },
        {
          "internalType": "uint256",
          "name": "_endTime",
          "type": "uint256"
        },
        {
          "internalType": "bool",
          "name": "_isActive",
          "type": "bool"
        }
      ],
      "stateMutability": "view",
      "type": "function"
    },
    {
      "inputs": [],
      "name": "getWinner",
      "outputs": [
        {
          "components": [
            {
              "internalType": "uint256",
              "name": "id",
              "type": "uint256"
            },
            {
              "internalType": "string",
              "name": "name",
              "type": "string"
            },
            {
              "internalType": "string",
              "name": "partyName",
              "type": "string"
            },
            {
              "internalType": "string",
              "name": "partySymbol",
              "type": "string"
            },
            {
              "internalType": "uint8",
              "name": "stateCode",
              "type": "uint8"
            },
            {
              "internalType": "uint8",
              "name": "constituencyCode",
              "type": "uint8"
            },
            {
              "internalType": "uint256",
              "name": "voteCount",
              "type": "uint256"
            }
          ],
          "internalType": "struct Voting.Candidate",
          "name": "",
          "type": "tuple"
        }
      ],
      "stateMutability": "view",
      "type": "function"
    },
    {
      "inputs": [
        {
          "internalType": "address",
          "name": "_voter",
          "type": "address"
        }
      ],
      "name": "hasVoterVoted",
      "outputs": [
        {
          "internalType": "bool",
          "name": "",
          "type": "bool"
        }
      ],
      "stateMutability": "view",
      "type": "function"
    },
    {
      "inputs": [
        {
          "internalType": "address",
          "name": "_voter",
          "type": "address"
        }
      ],
      "name": "isVoterAuthorized",
      "outputs": [
        {
          "internalType": "bool",
          "name": "",
          "type": "bool"
        }
      ],
      "stateMutability": "view",
      "type": "function"
    },
    {
      "inputs": [
        {
          "internalType": "uint256",
          "name": "_startTime",
          "type": "uint256"
        },
        {
          "internalType": "uint256",
          "name": "_endTime",
          "type": "uint256"
        }
      ],
      "name": "setVotingTimeline",
      "outputs": [],
      "stateMutability": "nonpayable",
      "type": "function"
    },
    {
      "inputs": [],
      "name": "startVoting",
      "outputs": [],
      "stateMutability": "nonpayable",
      "type": "function"
    },
    {
      "inputs": [],
      "name": "timelineEnabled",
      "outputs": [
        {
          "internalType": "bool",
          "name": "",
          "type": "bool"
        }
      ],
      "stateMutability": "view",
      "type": "function"
    },
    {
      "inputs": [
        {
          "internalType": "uint256",
          "name": "_candidateId",
          "type": "uint256"
        }
      ],
      "name": "vote",
      "outputs": [],
      "stateMutability": "nonpayable",
      "type": "function"
    },
    {
      "inputs": [
        {
          "internalType": "address",
          "name": "",
          "type": "address"
        }
      ],
      "name": "voters",
      "outputs": [
        {
          "internalType": "bool",
          "name": "isAuthorized",
          "type": "bool"
        },
        {
          "internalType": "bool",
          "name": "hasVoted",
          "type": "bool"
        },
        {
          "internalType": "uint256",
          "name": "votedCandidateId",
          "type": "uint256"
        },
        {
          "internalType": "uint8",
          "name": "stateCode",
          "type": "uint8"
        },
        {
          "internalType": "uint8",
          "name": "constituencyCode",
          "type": "uint8"
        }
      ],
      "stateMutability": "view",
      "type": "function"
    },
    {
      "inputs": [],
      "name": "votingActive",
      "outputs": [
        {
          "internalType": "bool",
          "name": "",
          "type": "bool"
        }
      ],
      "stateMutability": "view",
      "type": "function"
    },
    {
      "inputs": [],
      "name": "votingEndTime",
      "outputs": [
        {
          "internalType": "uint256",
          "name": "",
          "type": "uint256"
        }
      ],
      "stateMutability": "view",
      "type": "function"
    },
    {
      "inputs": [],
      "name": "votingStartTime",
      "outputs": [
        {
          "internalType": "uint256",
          "name": "",
          "type": "uint256"
        }
      ],
      "stateMutability": "view",
      "type": "function"
    }
  ],
  "bytecode": "0x608060405234801561001057600080fd5b506000805460ff60a01b1933166001600160a81b03199091161790556003805460ff19169055612d33806100456000396000f3fe608060405234801561001057600080fd5b50600436106101cf5760003560e01c80637ab8c2af1161010457806396459c97116100a2578063c3403ddf11610071578063c3403ddf146104ec578063efbe52a5146104f4578063f851a44014610507578063fd11f97a1461053257600080fd5b806396459c97146103ab5780639a0e7d66146103be5780639ed1f255146103c6578063a3ec138d1461047657600080fd5b80638e7ea5b2116100de5780638e7ea5b21461033e57806394c1866114610346578063952fedbd14610385578063963ae6961461039857600080fd5b80637ab8c2af1461030b5780637de9eb361461031e5780638847103b1461032b57600080fd5b806320d94185116101715780633477ee2e1161014b5780633477ee2e146102a957806335b8e820146102cf578063408e2727146102ef57806376d852851461030357600080fd5b806320d94185146102785780632d35a8a21461028b5780632e6997fe1461029457600080fd5b80631ec6b60a116101ad5780631ec6b60a146102415780631fcef3a6146102495780632019a6081461025c57806320a75b6f1461026557600080fd5b80630121b93f146101d45780630ea21eae146101e95780631ea736e01461022a575b600080fd5b6101e76101e236600461256a565b610563565b005b6102156101f736600461259f565b6001600160a01b031660009081526005602052604090205460ff1690565b60405190151581526020015b60405180910390f35b61023360025481565b604051908152602001610221565b6101e7610918565b6101e7610257366004612678565b610a08565b61023360015481565b61023361027336600461259f565b610bda565b6101e761028636600461259f565b610ca6565b61023360065481565b61029c610df0565b604051610221919061277e565b6102bc6102b736600461256a565b61109b565b60405161022197969594939291906127e0565b6102e26102dd36600461256a565b611275565b6040516102219190612840565b60005461021590600160a01b900460ff1681565b6101e76114dc565b6101e7610319366004612864565b611546565b6003546102159060ff1681565b61023361033936600461259f565b6116a9565b6102e261172f565b60035460015460025460005460ff93841693600160a01b9091041660408051941515855260208501939093529183015215156060820152608001610221565b6101e76103933660046128a7565b611a2b565b6101e76103a6366004612951565b611bf2565b61029c6103b93660046129fe565b611e90565b610233612287565b6104466103d436600461259f565b6001600160a01b0316600090815260056020908152604091829020825160a081018452815460ff80821615158084526101009283900482161515958401869052600185015496840187905260029094015480821660608501819052929004166080909201829052919492939192909190565b604080519515158652931515602086015260ff92831693850193909352166060830152608082015260a001610221565b6104bc61048436600461259f565b60056020526000908152604090208054600182015460029092015460ff80831693610100938490048216939092808316929190041685565b60408051951515865293151560208601529284019190915260ff908116606084015216608082015260a001610221565b6101e76122c6565b6101e7610502366004612a31565b612426565b60005461051a906001600160a01b031681565b6040516001600160a01b039091168152602001610221565b61021561054036600461259f565b6001600160a01b0316600090815260056020526040902054610100900460ff1690565b600054600160a01b900460ff166105b85760405162461bcd60e51b8152602060048201526014602482015273566f74696e67206973206e6f742061637469766560601b60448201526064015b60405180910390fd5b60035460ff1615610661576001544210156106155760405162461bcd60e51b815260206004820152601a60248201527f566f74696e6720686173206e6f7420737461727465642079657400000000000060448201526064016105af565b6002544211156106615760405162461bcd60e51b8152602060048201526017602482015276159bdd1a5b99c81c195c9a5bd9081a185cc8195b991959604a1b60448201526064016105af565b336000908152600560205260409020805460ff166106c15760405162461bcd60e51b815260206004820152601e60248201527f596f7520617265206e6f7420617574686f72697a656420746f20766f7465000060448201526064016105af565b8054610100900460ff16156107115760405162461bcd60e51b8152602060048201526016602482015275165bdd481a185d9948185b1c9958591e481d9bdd195960521b60448201526064016105af565b60008211801561072357506006548211155b6107665760405162461bcd60e51b8152602060048201526014602482015273125b9d985b1a590818d85b991a59185d1948125160621b60448201526064016105af565b6000828152600460205260409020600282015460ff16158015906107905750600481015460ff1615155b1561080a576004810154600283015460ff90811691161461080a5760405162461bcd60e51b815260206004820152602e60248201527f596f752063616e206f6e6c7920766f746520666f722063616e6469646174657360448201526d20696e20796f757220737461746560901b60648201526084016105af565b6002820154610100900460ff161580159061083057506004810154610100900460ff1615155b156108bb57600481015460028301546101009182900460ff9081169290910416146108bb5760405162461bcd60e51b815260206004820152603560248201527f596f752063616e206f6e6c7920766f746520666f722063616e6469646174657360448201527420696e20796f757220636f6e7374697475656e637960581b60648201526084016105af565b815461ff001916610100178255600182018390556005810180549060006108e183612a69565b9091555050604051839033907fa36cc2bebb74db33e9f88110a07ef56e1b31b24b4c4f51b54b1664266e29f45b90600090a3505050565b6000546001600160a01b031633146109425760405162461bcd60e51b81526004016105af90612a82565b600054600160a01b900460ff161561096c5760405162461bcd60e51b81526004016105af90612ac4565b6000600654116109be5760405162461bcd60e51b815260206004820152601760248201527f4e6f2063616e646964617465732061646465642079657400000000000000000060448201526064016105af565b6000805460ff60a01b1916600160a01b179055604051600181527f9069a1a16ace751e8690f383e12f87b01e8488ba387e626810bd113fef0417f9906020015b60405180910390a1565b6000546001600160a01b03163314610a325760405162461bcd60e51b81526004016105af90612a82565b600054600160a01b900460ff1615610a5c5760405162461bcd60e51b81526004016105af90612ac4565b6000815111610aad5760405162461bcd60e51b815260206004820152601e60248201527f43616e646964617465206e616d652063616e6e6f7420626520656d707479000060448201526064016105af565b60068054906000610abd83612a69565b90915550506040805160e0810182526006548082526020808301858152845180830186526000808252858701919091528551808401875281815260608601526080850181905260a0850181905260c0850181905292835260049091529290208151815591519091906001820190610b349082612b7e565b5060408201516002820190610b499082612b7e565b5060608201516003820190610b5e9082612b7e565b50608082015160048201805460a085015160ff9081166101000261ffff1990921693169290921791909117905560c0909101516005909101556006546040517f6135a8aa9d6cc5d530ba4b0a845dee7aa1a1fdae782c52af9b878ed15a2f3be790610bcf9084906000908190612c3e565b60405180910390a250565b6001600160a01b038116600090815260056020526040812054610100900460ff16610c415760405162461bcd60e51b8152602060048201526017602482015276159bdd195c881a185cc81b9bdd081d9bdd1959081e595d604a1b60448201526064016105af565b506001600160a01b03811660009081526005602090815260409182902060010154825160609490941b6bffffffffffffffffffffffff191684830152603484015246605480850191909152825180850390910181526074909301909152815191012090565b6000546001600160a01b03163314610cd05760405162461bcd60e51b81526004016105af90612a82565b6001600160a01b038116610d1e5760405162461bcd60e51b8152602060048201526015602482015274496e76616c696420766f746572206164647265737360581b60448201526064016105af565b6001600160a01b03811660009081526005602052604090205460ff1615610d875760405162461bcd60e51b815260206004820152601b60248201527f566f74657220697320616c726561647920617574686f72697a6564000000000060448201526064016105af565b6001600160a01b03811660008181526005602090815260408083208054600161ffff199182161782556002909101805490911690558051838152918201929092527f8566080dad97874e0793db9668cb0c866def86b15a575f648354a6d13cde52389101610bcf565b6060600060065467ffffffffffffffff811115610e0f57610e0f6125c1565b604051908082528060200260200182016040528015610e4857816020015b610e35612527565b815260200190600190039081610e2d5790505b50905060015b600654811161109557600460008281526020019081526020016000206040518060e001604052908160008201548152602001600182018054610e8f90612afb565b80601f0160208091040260200160405190810160405280929190818152602001828054610ebb90612afb565b8015610f085780601f10610edd57610100808354040283529160200191610f08565b820191906000526020600020905b815481529060010190602001808311610eeb57829003601f168201915b50505050508152602001600282018054610f2190612afb565b80601f0160208091040260200160405190810160405280929190818152602001828054610f4d90612afb565b8015610f9a5780601f10610f6f57610100808354040283529160200191610f9a565b820191906000526020600020905b815481529060010190602001808311610f7d57829003601f168201915b50505050508152602001600382018054610fb390612afb565b80601f0160208091040260200160405190810160405280929190818152602001828054610fdf90612afb565b801561102c5780601f106110015761010080835404028352916020019161102c565b820191906000526020600020905b81548152906001019060200180831161100f57829003601f168201915b5050509183525050600482015460ff808216602084015261010090910416604082015260059091015460609091015282611067600184612c7e565b8151811061107757611077612c91565b6020026020010181905250808061108d90612a69565b915050610e4e565b50919050565b600460205260009081526040902080546001820180549192916110bd90612afb565b80601f01602080910402602001604051908101604052809291908181526020018280546110e990612afb565b80156111365780601f1061110b57610100808354040283529160200191611136565b820191906000526020600020905b81548152906001019060200180831161111957829003601f168201915b50505050509080600201805461114b90612afb565b80601f016020809104026020016040519081016040528092919081815260200182805461117790612afb565b80156111c45780601f10611199576101008083540402835291602001916111c4565b820191906000526020600020905b8154815290600101906020018083116111a757829003601f168201915b5050505050908060030180546111d990612afb565b80601f016020809104026020016040519081016040528092919081815260200182805461120590612afb565b80156112525780601f1061122757610100808354040283529160200191611252565b820191906000526020600020905b81548152906001019060200180831161123557829003601f168201915b505050506004830154600590930154919260ff8082169361010090920416915087565b61127d612527565b60008211801561128f57506006548211155b6112d25760405162461bcd60e51b8152602060048201526014602482015273125b9d985b1a590818d85b991a59185d1948125160621b60448201526064016105af565b600460008381526020019081526020016000206040518060e00160405290816000820154815260200160018201805461130a90612afb565b80601f016020809104026020016040519081016040528092919081815260200182805461133690612afb565b80156113835780601f1061135857610100808354040283529160200191611383565b820191906000526020600020905b81548152906001019060200180831161136657829003601f168201915b5050505050815260200160028201805461139c90612afb565b80601f01602080910402602001604051908101604052809291908181526020018280546113c890612afb565b80156114155780601f106113ea57610100808354040283529160200191611415565b820191906000526020600020905b8154815290600101906020018083116113f857829003601f168201915b5050505050815260200160038201805461142e90612afb565b80601f016020809104026020016040519081016040528092919081815260200182805461145a90612afb565b80156114a75780601f1061147c576101008083540402835291602001916114a7565b820191906000526020600020905b81548152906001019060200180831161148a57829003601f168201915b5050509183525050600482015460ff808216602084015261010090910416604082015260059091015460609091015292915050565b6000546001600160a01b031633146115065760405162461bcd60e51b81526004016105af90612a82565b600054600160a01b900460ff16156115305760405162461bcd60e51b81526004016105af90612ac4565b6003805460ff1916905560006001819055600255565b6000546001600160a01b031633146115705760405162461bcd60e51b81526004016105af90612a82565b6001600160a01b0383166115be5760405162461bcd60e51b8152602060048201526015602482015274496e76616c696420766f746572206164647265737360581b60448201526064016105af565b6001600160a01b03831660009081526005602052604090205460ff16156116275760405162461bcd60e51b815260206004820152601b60248201527f566f74657220697320616c726561647920617574686f72697a6564000000000060448201526064016105af565b6001600160a01b0383166000818152600560209081526040918290208054600161ffff199182161782556002909101805460ff888116919093168117610100938816938402179091558351908152918201527f8566080dad97874e0793db9668cb0c866def86b15a575f648354a6d13cde5238910160405180910390a2505050565b6001600160a01b038116600090815260056020526040812054610100900460ff166117105760405162461bcd60e51b8152602060048201526017602482015276159bdd195c881a185cc81b9bdd081d9bdd1959081e595d604a1b60448201526064016105af565b506001600160a01b031660009081526005602052604090206001015490565b611737612527565b6000600654116117895760405162461bcd60e51b815260206004820152601760248201527f4e6f2063616e6469646174657320617661696c61626c6500000000000000000060448201526064016105af565b60008060015b60065481116117db576000818152600460205260409020600501548310156117c95760008181526004602052604090206005015492509050805b806117d381612a69565b91505061178f565b50600081116118205760405162461bcd60e51b8152602060048201526011602482015270139bc81d9bdd195cc818d85cdd081e595d607a1b60448201526064016105af565b600460008281526020019081526020016000206040518060e00160405290816000820154815260200160018201805461185890612afb565b80601f016020809104026020016040519081016040528092919081815260200182805461188490612afb565b80156118d15780601f106118a6576101008083540402835291602001916118d1565b820191906000526020600020905b8154815290600101906020018083116118b457829003601f168201915b505050505081526020016002820180546118ea90612afb565b80601f016020809104026020016040519081016040528092919081815260200182805461191690612afb565b80156119635780601f1061193857610100808354040283529160200191611963565b820191906000526020600020905b81548152906001019060200180831161194657829003601f168201915b5050505050815260200160038201805461197c90612afb565b80601f01602080910402602001604051908101604052809291908181526020018280546119a890612afb565b80156119f55780601f106119ca576101008083540402835291602001916119f5565b820191906000526020600020905b8154815290600101906020018083116119d857829003601f168201915b5050509183525050600482015460ff80821660208401526101009091041660408201526005909101546060909101529392505050565b6000546001600160a01b03163314611a555760405162461bcd60e51b81526004016105af90612a82565b600054600160a01b900460ff1615611a7f5760405162461bcd60e51b81526004016105af90612ac4565b6000855111611ad05760405162461bcd60e51b815260206004820152601e60248201527f43616e646964617465206e616d652063616e6e6f7420626520656d707479000060448201526064016105af565b60068054906000611ae083612a69565b90915550506040805160e08101825260065480825260208083018981528385018990526060840188905260ff8088166080860152861660a0850152600060c0850181905292835260049091529290208151815591519091906001820190611b479082612b7e565b5060408201516002820190611b5c9082612b7e565b5060608201516003820190611b719082612b7e565b50608082015160048201805460a085015160ff9081166101000261ffff1990921693169290921791909117905560c0909101516005909101556006546040517f6135a8aa9d6cc5d530ba4b0a845dee7aa1a1fdae782c52af9b878ed15a2f3be790611be3908890889087908790612ca7565b60405180910390a25050505050565b6000546001600160a01b03163314611c1c5760405162461bcd60e51b81526004016105af90612a82565b60005b8151811015611e8c5760056000838381518110611c3e57611c3e612c91565b6020908102919091018101516001600160a01b031682528101919091526040016000205460ff16158015611c9e575060006001600160a01b0316828281518110611c8a57611c8a612c91565b60200260200101516001600160a01b031614155b15611e7a57600160056000848481518110611cbb57611cbb612c91565b60200260200101516001600160a01b03166001600160a01b0316815260200190815260200160002060000160006101000a81548160ff021916908315150217905550600060056000848481518110611d1557611d15612c91565b60200260200101516001600160a01b03166001600160a01b0316815260200190815260200160002060000160016101000a81548160ff021916908315150217905550600060056000848481518110611d6f57611d6f612c91565b60200260200101516001600160a01b03166001600160a01b0316815260200190815260200160002060020160006101000a81548160ff021916908360ff160217905550600060056000848481518110611dca57611dca612c91565b60200260200101516001600160a01b03166001600160a01b0316815260200190815260200160002060020160016101000a81548160ff021916908360ff160217905550818181518110611e1f57611e1f612c91565b60200260200101516001600160a01b03167f8566080dad97874e0793db9668cb0c866def86b15a575f648354a6d13cde5238600080604051611e7192919060ff92831681529116602082015260400190565b60405180910390a25b80611e8481612a69565b915050611c1f565b5050565b6060600060015b6006548111611f48576000818152600460208190526040909120015460ff86811691161480611ed957506000818152600460208190526040909120015460ff16155b8015611f2357506000818152600460208190526040909120015460ff858116610100909204161480611f23575060008181526004602081905260409091200154610100900460ff16155b15611f365781611f3281612a69565b9250505b80611f4081612a69565b915050611e97565b5060008167ffffffffffffffff811115611f6457611f646125c1565b604051908082528060200260200182016040528015611f9d57816020015b611f8a612527565b815260200190600190039081611f825790505b509050600060015b600654811161227a576000818152600460208190526040909120015460ff88811691161480611fe757506000818152600460208190526040909120015460ff16155b801561203157506000818152600460208190526040909120015460ff878116610100909204161480612031575060008181526004602081905260409091200154610100900460ff16155b1561226857600460008281526020019081526020016000206040518060e00160405290816000820154815260200160018201805461206e90612afb565b80601f016020809104026020016040519081016040528092919081815260200182805461209a90612afb565b80156120e75780601f106120bc576101008083540402835291602001916120e7565b820191906000526020600020905b8154815290600101906020018083116120ca57829003601f168201915b5050505050815260200160028201805461210090612afb565b80601f016020809104026020016040519081016040528092919081815260200182805461212c90612afb565b80156121795780601f1061214e57610100808354040283529160200191612179565b820191906000526020600020905b81548152906001019060200180831161215c57829003601f168201915b5050505050815260200160038201805461219290612afb565b80601f01602080910402602001604051908101604052809291908181526020018280546121be90612afb565b801561220b5780601f106121e05761010080835404028352916020019161220b565b820191906000526020600020905b8154815290600101906020018083116121ee57829003601f168201915b5050509183525050600482015460ff8082166020840152610100909104166040820152600590910154606090910152835184908490811061224e5761224e612c91565b6020026020010181905250818061226490612a69565b9250505b8061227281612a69565b915050611fa5565b5090925050505b92915050565b60008060015b6006548111611095576000818152600460205260409020600501546122b29083612cea565b9150806122be81612a69565b91505061228d565b6000546001600160a01b031633146122f05760405162461bcd60e51b81526004016105af90612a82565b600054600160a01b900460ff166123405760405162461bcd60e51b8152602060048201526014602482015273566f74696e67206973206e6f742061637469766560601b60448201526064016105af565b60035460ff16156123e95760015442101561239d5760405162461bcd60e51b815260206004820152601a60248201527f566f74696e6720686173206e6f7420737461727465642079657400000000000060448201526064016105af565b6002544211156123e95760405162461bcd60e51b8152602060048201526017602482015276159bdd1a5b99c81c195c9a5bd9081a185cc8195b991959604a1b60448201526064016105af565b6000805460ff60a01b191681556040519081527f9069a1a16ace751e8690f383e12f87b01e8488ba387e626810bd113fef0417f9906020016109fe565b6000546001600160a01b031633146124505760405162461bcd60e51b81526004016105af90612a82565b600054600160a01b900460ff161561247a5760405162461bcd60e51b81526004016105af90612ac4565b8181116124d35760405162461bcd60e51b815260206004820152602160248201527f456e642074696d65206d7573742062652061667465722073746172742074696d6044820152606560f81b60648201526084016105af565b600182815560028290556003805460ff1916909117905560408051838152602081018390527fa9f7a30954268b69f72fd46bd5e2c3dc8895e8ad643f8533bcdaf2e3af606e56910160405180910390a15050565b6040518060e0016040528060008152602001606081526020016060815260200160608152602001600060ff168152602001600060ff168152602001600081525090565b60006020828403121561257c57600080fd5b5035919050565b80356001600160a01b038116811461259a57600080fd5b919050565b6000602082840312156125b157600080fd5b6125ba82612583565b9392505050565b634e487b7160e01b600052604160045260246000fd5b604051601f8201601f1916810167ffffffffffffffff81118282101715612600576126006125c1565b604052919050565b600082601f83011261261957600080fd5b813567ffffffffffffffff811115612633576126336125c1565b612646601f8201601f19166020016125d7565b81815284602083860101111561265b57600080fd5b816020850160208301376000918101602001919091529392505050565b60006020828403121561268a57600080fd5b813567ffffffffffffffff8111156126a157600080fd5b6126ad84828501612608565b949350505050565b6000815180845260005b818110156126db576020818501810151868301820152016126bf565b506000602082860101526020601f19601f83011685010191505092915050565b805182526000602082015160e0602085015261271a60e08501826126b5565b90506040830151848203604086015261273382826126b5565b9150506060830151848203606086015261274d82826126b5565b91505060ff608084015116608085015260ff60a08401511660a085015260c083015160c08501528091505092915050565b6000602080830181845280855180835260408601915060408160051b870101925083870160005b828110156127d357603f198886030184526127c18583516126fb565b945092850192908501906001016127a5565b5092979650505050505050565b87815260e0602082015260006127f960e08301896126b5565b828103604084015261280b81896126b5565b9050828103606084015261281f81886126b5565b60ff96871660808501529490951660a08301525060c0015295945050505050565b6020815260006125ba60208301846126fb565b803560ff8116811461259a57600080fd5b60008060006060848603121561287957600080fd5b61288284612583565b925061289060208501612853565b915061289e60408501612853565b90509250925092565b600080600080600060a086880312156128bf57600080fd5b853567ffffffffffffffff808211156128d757600080fd5b6128e389838a01612608565b965060208801359150808211156128f957600080fd5b61290589838a01612608565b9550604088013591508082111561291b57600080fd5b5061292888828901612608565b93505061293760608701612853565b915061294560808701612853565b90509295509295909350565b6000602080838503121561296457600080fd5b823567ffffffffffffffff8082111561297c57600080fd5b818501915085601f83011261299057600080fd5b8135818111156129a2576129a26125c1565b8060051b91506129b38483016125d7565b81815291830184019184810190888411156129cd57600080fd5b938501935b838510156129f2576129e385612583565b825293850193908501906129d2565b98975050505050505050565b60008060408385031215612a1157600080fd5b612a1a83612853565b9150612a2860208401612853565b90509250929050565b60008060408385031215612a4457600080fd5b50508035926020909101359150565b634e487b7160e01b600052601160045260246000fd5b600060018201612a7b57612a7b612a53565b5060010190565b60208082526022908201527f4f6e6c792061646d696e2063616e20706572666f726d2074686973206163746960408201526137b760f11b606082015260800190565b6020808252601a908201527f566f74696e672069732063757272656e746c7920616374697665000000000000604082015260600190565b600181811c90821680612b0f57607f821691505b60208210810361109557634e487b7160e01b600052602260045260246000fd5b601f821115612b7957600081815260208120601f850160051c81016020861015612b565750805b601f850160051c820191505b81811015612b7557828155600101612b62565b5050505b505050565b815167ffffffffffffffff811115612b9857612b986125c1565b612bac81612ba68454612afb565b84612b2f565b602080601f831160018114612be15760008415612bc95750858301515b600019600386901b1c1916600185901b178555612b75565b600085815260208120601f198616915b82811015612c1057888601518255948401946001909101908401612bf1565b5085821015612c2e5787850151600019600388901b60f8161c191681555b5050505050600190811b01905550565b608081526000612c5160808301866126b5565b8281036020840152600081526020810191505060ff8416604083015260ff83166060830152949350505050565b8181038181111561228157612281612a53565b634e487b7160e01b600052603260045260246000fd5b608081526000612cba60808301876126b5565b8281036020840152612ccc81876126b5565b91505060ff8416604083015260ff8316606083015295945050505050565b8082018082111561228157612281612a5356fea264697066735822122022516370be23c8112e416749260ff41888f95737516c41ba49e6326560b5093464736f6c63430008130033",
  "linkReferences": {},
  "deployedLinkReferences": {}
}