{
  "_format": "hh-sol-artifact-1",
  "contractName": "Voting",
  "sourceName": "contracts/Voting.sol",
  "abi": [
    {
      "inputs": [],
      "stateMutability": "nonpayable",
      "type": "constructor"
    },
    {
      "anonymous": false,
      "inputs": [
        {
          "indexed": true,
          "internalType": "uint256",
          "name": "candidateId",
          "type": "uint256"
        },
        {
          "indexed": false,
          "internalType": "string",
          "name": "name",
          "type": "string"
        },
        {
          "indexed": false,
          "internalType": "string",
          "name": "partyName",
          "type": "string"
        },
        {
          "indexed": false,
          "internalType": "uint8",
          "name": "stateCode",
          "type": "uint8"
        },
        {
          "indexed": false,
          "internalType": "uint8",
          "name": "constituencyCode",
          "type": "uint8"
        }
      ],
      "name": "CandidateAdded",
      "type": "event"
    },
    {
      "anonymous": false,
      "inputs": [
        {
          "indexed": true,
          "internalType": "uint256",
          "name": "candidateId",
          "type": "uint256"
        },
        {
          "indexed": false,
          "internalType": "uint256",
          "name": "timestamp",
          "type": "uint256"
        }
      ],
      "name": "VoteCast",
      "type": "event"
    },
    {
      "anonymous": false,
      "inputs": [
        {
          "indexed": true,
          "internalType": "address",
          "name": "voter",
          "type": "address"
        },
        {
          "indexed": false,
          "internalType": "uint8",
          "name": "stateCode",
          "type": "uint8"
        },
        {
          "indexed": false,
          "internalType": "uint8",
          "name": "constituencyCode",
          "type": "uint8"
        }
      ],
      "name": "VoterAuthorized",
      "type": "event"
    },
    {
      "anonymous": false,
      "inputs": [
        {
          "indexed": false,
          "internalType": "bool",
          "name": "isActive",
          "type": "bool"
        }
      ],
      "name": "VotingStatusChanged",
      "type": "event"
    },
    {
      "anonymous": false,
      "inputs": [
        {
          "indexed": false,
          "internalType": "uint256",
          "name": "startTime",
          "type": "uint256"
        },
        {
          "indexed": false,
          "internalType": "uint256",
          "name": "endTime",
          "type": "uint256"
        }
      ],
      "name": "VotingTimelineSet",
      "type": "event"
    },
    {
      "inputs": [
        {
          "internalType": "string",
          "name": "_name",
          "type": "string"
        },
        {
          "internalType": "string",
          "name": "_partyName",
          "type": "string"
        },
        {
          "internalType": "string",
          "name": "_partySymbol",
          "type": "string"
        },
        {
          "internalType": "uint8",
          "name": "_stateCode",
          "type": "uint8"
        },
        {
          "internalType": "uint8",
          "name": "_constituencyCode",
          "type": "uint8"
        }
      ],
      "name": "addCandidate",
      "outputs": [],
      "stateMutability": "nonpayable",
      "type": "function"
    },
    {
      "inputs": [
        {
          "internalType": "string",
          "name": "_name",
          "type": "string"
        }
      ],
      "name": "addCandidateSimple",
      "outputs": [],
      "stateMutability": "nonpayable",
      "type": "function"
    },
    {
      "inputs": [],
      "name": "admin",
      "outputs": [
        {
          "internalType": "address",
          "name": "",
          "type": "address"
        }
      ],
      "stateMutability": "view",
      "type": "function"
    },
    {
      "inputs": [
        {
          "internalType": "address",
          "name": "_voter",
          "type": "address"
        },
        {
          "internalType": "uint8",
          "name": "_stateCode",
          "type": "uint8"
        },
        {
          "internalType": "uint8",
          "name": "_constituencyCode",
          "type": "uint8"
        }
      ],
      "name": "authorizeVoter",
      "outputs": [],
      "stateMutability": "nonpayable",
      "type": "function"
    },
    {
      "inputs": [
        {
          "internalType": "address",
          "name": "_voter",
          "type": "address"
        }
      ],
      "name": "authorizeVoterSimple",
      "outputs": [],
      "stateMutability": "nonpayable",
      "type": "function"
    },
    {
      "inputs": [
        {
          "internalType": "address[]",
          "name": "_voters",
          "type": "address[]"
        }
      ],
      "name": "authorizeVotersBatch",
      "outputs": [],
      "stateMutability": "nonpayable",
      "type": "function"
    },
    {
      "inputs": [
        {
          "internalType": "uint256",
          "name": "",
          "type": "uint256"
        }
      ],
      "name": "candidates",
      "outputs": [
        {
          "internalType": "uint256",
          "name": "id",
          "type": "uint256"
        },
        {
          "internalType": "string",
          "name": "name",
          "type": "string"
        },
        {
          "internalType": "string",
          "name": "partyName",
          "type": "string"
        },
        {
          "internalType": "string",
          "name": "partySymbol",
          "type": "string"
        },
        {
          "internalType": "uint8",
          "name": "stateCode",
          "type": "uint8"
        },
        {
          "internalType": "uint8",
          "name": "constituencyCode",
          "type": "uint8"
        },
        {
          "internalType": "uint256",
          "name": "voteCount",
          "type": "uint256"
        }
      ],
      "stateMutability": "view",
      "type": "function"
    },
    {
      "inputs": [],
      "name": "candidatesCount",
      "outputs": [
        {
          "internalType": "uint256",
          "name": "",
          "type": "uint256"
        }
      ],
      "stateMutability": "view",
      "type": "function"
    },
    {
      "inputs": [],
      "name": "disableTimeline",
      "outputs": [],
      "stateMutability": "nonpayable",
      "type": "function"
    },
    {
      "inputs": [],
      "name": "electionIPFSHash",
      "outputs": [
        {
          "internalType": "string",
          "name": "",
          "type": "string"
        }
      ],
      "stateMutability": "view",
      "type": "function"
    },
    {
      "inputs": [],
      "name": "endVoting",
      "outputs": [],
      "stateMutability": "nonpayable",
      "type": "function"
    },
    {
      "inputs": [],
      "name": "getAllCandidates",
      "outputs": [
        {
          "components": [
            {
              "internalType": "uint256",
              "name": "id",
              "type": "uint256"
            },
            {
              "internalType": "string",
              "name": "name",
              "type": "string"
            },
            {
              "internalType": "string",
              "name": "partyName",
              "type": "string"
            },
            {
              "internalType": "string",
              "name": "partySymbol",
              "type": "string"
            },
            {
              "internalType": "uint8",
              "name": "stateCode",
              "type": "uint8"
            },
            {
              "internalType": "uint8",
              "name": "constituencyCode",
              "type": "uint8"
            },
            {
              "internalType": "uint256",
              "name": "voteCount",
              "type": "uint256"
            }
          ],
          "internalType": "struct Voting.Candidate[]",
          "name": "",
          "type": "tuple[]"
        }
      ],
      "stateMutability": "view",
      "type": "function"
    },
    {
      "inputs": [
        {
          "internalType": "uint256",
          "name": "_candidateId",
          "type": "uint256"
        }
      ],
      "name": "getCandidate",
      "outputs": [
        {
          "components": [
            {
              "internalType": "uint256",
              "name": "id",
              "type": "uint256"
            },
            {
              "internalType": "string",
              "name": "name",
              "type": "string"
            },
            {
              "internalType": "string",
              "name": "partyName",
              "type": "string"
            },
            {
              "internalType": "string",
              "name": "partySymbol",
              "type": "string"
            },
            {
              "internalType": "uint8",
              "name": "stateCode",
              "type": "uint8"
            },
            {
              "internalType": "uint8",
              "name": "constituencyCode",
              "type": "uint8"
            },
            {
              "internalType": "uint256",
              "name": "voteCount",
              "type": "uint256"
            }
          ],
          "internalType": "struct Voting.Candidate",
          "name": "",
          "type": "tuple"
        }
      ],
      "stateMutability": "view",
      "type": "function"
    },
    {
      "inputs": [
        {
          "internalType": "uint8",
          "name": "_stateCode",
          "type": "uint8"
        },
        {
          "internalType": "uint8",
          "name": "_constituencyCode",
          "type": "uint8"
        }
      ],
      "name": "getCandidatesByConstituency",
      "outputs": [
        {
          "components": [
            {
              "internalType": "uint256",
              "name": "id",
              "type": "uint256"
            },
            {
              "internalType": "string",
              "name": "name",
              "type": "string"
            },
            {
              "internalType": "string",
              "name": "partyName",
              "type": "string"
            },
            {
              "internalType": "string",
              "name": "partySymbol",
              "type": "string"
            },
            {
              "internalType": "uint8",
              "name": "stateCode",
              "type": "uint8"
            },
            {
              "internalType": "uint8",
              "name": "constituencyCode",
              "type": "uint8"
            },
            {
              "internalType": "uint256",
              "name": "voteCount",
              "type": "uint256"
            }
          ],
          "internalType": "struct Voting.Candidate[]",
          "name": "",
          "type": "tuple[]"
        }
      ],
      "stateMutability": "view",
      "type": "function"
    },
    {
      "inputs": [],
      "name": "getTotalVotes",
      "outputs": [
        {
          "internalType": "uint256",
          "name": "",
          "type": "uint256"
        }
      ],
      "stateMutability": "view",
      "type": "function"
    },
    {
      "inputs": [
        {
          "internalType": "address",
          "name": "_voter",
          "type": "address"
        }
      ],
      "name": "getVoteReceipt",
      "outputs": [
        {
          "internalType": "bytes32",
          "name": "receiptHash",
          "type": "bytes32"
        }
      ],
      "stateMutability": "view",
      "type": "function"
    },
    {
      "inputs": [
        {
          "internalType": "address",
          "name": "_voter",
          "type": "address"
        }
      ],
      "name": "getVoterInfo",
      "outputs": [
        {
          "internalType": "bool",
          "name": "isAuthorized",
          "type": "bool"
        },
        {
          "internalType": "bool",
          "name": "hasVoted",
          "type": "bool"
        },
        {
          "internalType": "uint8",
          "name": "stateCode",
          "type": "uint8"
        },
        {
          "internalType": "uint8",
          "name": "constituencyCode",
          "type": "uint8"
        }
      ],
      "stateMutability": "view",
      "type": "function"
    },
    {
      "inputs": [],
      "name": "getVotingTimeline",
      "outputs": [
        {
          "internalType": "bool",
          "name": "_timelineEnabled",
          "type": "bool"
        },
        {
          "internalType": "uint256",
          "name": "_startTime",
          "type": "uint256"
        },
        {
          "internalType": "uint256",
          "name": "_endTime",
          "type": "uint256"
        },
        {
          "internalType": "bool",
          "name": "_isActive",
          "type": "bool"
        }
      ],
      "stateMutability": "view",
      "type": "function"
    },
    {
      "inputs": [],
      "name": "getWinner",
      "outputs": [
        {
          "components": [
            {
              "internalType": "uint256",
              "name": "id",
              "type": "uint256"
            },
            {
              "internalType": "string",
              "name": "name",
              "type": "string"
            },
            {
              "internalType": "string",
              "name": "partyName",
              "type": "string"
            },
            {
              "internalType": "string",
              "name": "partySymbol",
              "type": "string"
            },
            {
              "internalType": "uint8",
              "name": "stateCode",
              "type": "uint8"
            },
            {
              "internalType": "uint8",
              "name": "constituencyCode",
              "type": "uint8"
            },
            {
              "internalType": "uint256",
              "name": "voteCount",
              "type": "uint256"
            }
          ],
          "internalType": "struct Voting.Candidate",
          "name": "",
          "type": "tuple"
        }
      ],
      "stateMutability": "view",
      "type": "function"
    },
    {
      "inputs": [
        {
          "internalType": "address",
          "name": "_voter",
          "type": "address"
        }
      ],
      "name": "hasVoterVoted",
      "outputs": [
        {
          "internalType": "bool",
          "name": "",
          "type": "bool"
        }
      ],
      "stateMutability": "view",
      "type": "function"
    },
    {
      "inputs": [
        {
          "internalType": "address",
          "name": "forwarder",
          "type": "address"
        }
      ],
      "name": "isTrustedForwarder",
      "outputs": [
        {
          "internalType": "bool",
          "name": "",
          "type": "bool"
        }
      ],
      "stateMutability": "view",
      "type": "function"
    },
    {
      "inputs": [
        {
          "internalType": "address",
          "name": "_voter",
          "type": "address"
        }
      ],
      "name": "isVoterAuthorized",
      "outputs": [
        {
          "internalType": "bool",
          "name": "",
          "type": "bool"
        }
      ],
      "stateMutability": "view",
      "type": "function"
    },
    {
      "inputs": [
        {
          "internalType": "string",
          "name": "_hash",
          "type": "string"
        }
      ],
      "name": "setElectionIPFSHash",
      "outputs": [],
      "stateMutability": "nonpayable",
      "type": "function"
    },
    {
      "inputs": [
        {
          "internalType": "address",
          "name": "_forwarder",
          "type": "address"
        }
      ],
      "name": "setTrustedForwarder",
      "outputs": [],
      "stateMutability": "nonpayable",
      "type": "function"
    },
    {
      "inputs": [
        {
          "internalType": "uint256",
          "name": "_startTime",
          "type": "uint256"
        },
        {
          "internalType": "uint256",
          "name": "_endTime",
          "type": "uint256"
        }
      ],
      "name": "setVotingTimeline",
      "outputs": [],
      "stateMutability": "nonpayable",
      "type": "function"
    },
    {
      "inputs": [
        {
          "internalType": "bool",
          "name": "_enabled",
          "type": "bool"
        }
      ],
      "name": "setZKPMode",
      "outputs": [],
      "stateMutability": "nonpayable",
      "type": "function"
    },
    {
      "inputs": [],
      "name": "startVoting",
      "outputs": [],
      "stateMutability": "nonpayable",
      "type": "function"
    },
    {
      "inputs": [],
      "name": "timelineEnabled",
      "outputs": [
        {
          "internalType": "bool",
          "name": "",
          "type": "bool"
        }
      ],
      "stateMutability": "view",
      "type": "function"
    },
    {
      "inputs": [],
      "name": "trustedForwarder",
      "outputs": [
        {
          "internalType": "address",
          "name": "",
          "type": "address"
        }
      ],
      "stateMutability": "view",
      "type": "function"
    },
    {
      "inputs": [
        {
          "internalType": "uint256",
          "name": "_candidateId",
          "type": "uint256"
        }
      ],
      "name": "vote",
      "outputs": [],
      "stateMutability": "nonpayable",
      "type": "function"
    },
    {
      "inputs": [
        {
          "internalType": "address",
          "name": "",
          "type": "address"
        }
      ],
      "name": "voters",
      "outputs": [
        {
          "internalType": "bool",
          "name": "isAuthorized",
          "type": "bool"
        },
        {
          "internalType": "bool",
          "name": "hasVoted",
          "type": "bool"
        },
        {
          "internalType": "uint8",
          "name": "stateCode",
          "type": "uint8"
        },
        {
          "internalType": "uint8",
          "name": "constituencyCode",
          "type": "uint8"
        }
      ],
      "stateMutability": "view",
      "type": "function"
    },
    {
      "inputs": [],
      "name": "votingActive",
      "outputs": [
        {
          "internalType": "bool",
          "name": "",
          "type": "bool"
        }
      ],
      "stateMutability": "view",
      "type": "function"
    },
    {
      "inputs": [],
      "name": "votingEndTime",
      "outputs": [
        {
          "internalType": "uint256",
          "name": "",
          "type": "uint256"
        }
      ],
      "stateMutability": "view",
      "type": "function"
    },
    {
      "inputs": [],
      "name": "votingStartTime",
      "outputs": [
        {
          "internalType": "uint256",
          "name": "",
          "type": "uint256"
        }
      ],
      "stateMutability": "view",
      "type": "function"
    },
    {
      "inputs": [],
      "name": "zkpEnabled",
      "outputs": [
        {
          "internalType": "bool",
          "name": "",
          "type": "bool"
        }
      ],
      "stateMutability": "view",
      "type": "function"
    }
  ],
  "bytecode": "0x608060405234801561001057600080fd5b506000805460ff60a01b1933166001600160a81b0319909116179055600380546001600160b01b031916905561308f8061004b6000396000f3fe608060405234801561001057600080fd5b50600436106102115760003560e01c80637da0a877116101255780639a0e7d66116100ad578063da7422281161007c578063da74222814610569578063efbe52a51461057c578063f3535ed91461058f578063f851a440146105a4578063fd11f97a146105b757600080fd5b80639a0e7d661461047e5780639ed1f25514610486578063a3ec138d14610522578063c3403ddf1461056157600080fd5b8063952fedbd116100f4578063952fedbd14610420578063963ae6961461043357806396459c971461044657806399010a3f1461045957806399999dbb1461046b57600080fd5b80637da0a8771461039b5780637de9eb36146103cc5780638e7ea5b2146103d957806394c18661146103e157600080fd5b8063233af203116101a857806335b8e8201161017757806335b8e82014610324578063408e272714610344578063572b6c051461035857806376d85285146103805780637ab8c2af1461038857600080fd5b8063233af203146102cd5780632d35a8a2146102e05780632e6997fe146102e95780633477ee2e146102fe57600080fd5b80631fcef3a6116101e45780631fcef3a61461028b5780632019a6081461029e57806320a75b6f146102a757806320d94185146102ba57600080fd5b80630121b93f146102165780630ea21eae1461022b5780631ea736e01461026c5780631ec6b60a14610283575b600080fd5b610229610224366004612891565b6105e8565b005b6102576102393660046128c6565b6001600160a01b031660009081526006602052604090205460ff1690565b60405190151581526020015b60405180910390f35b61027560025481565b604051908152602001610263565b610229610a9e565b61022961029936600461299f565b610b8e565b61027560015481565b6102756102b53660046128c6565b610d60565b6102296102c83660046128c6565b610e1d565b6102296102db36600461299f565b610f5b565b61027560075481565b6102f1610f95565b6040516102639190612aa5565b61031161030c366004612891565b611240565b6040516102639796959493929190612b07565b610337610332366004612891565b61141a565b6040516102639190612b67565b60005461025790600160a01b900460ff1681565b6102576103663660046128c6565b6003546201000090046001600160a01b0390811691161490565b610229611681565b610229610396366004612b8b565b6116eb565b6003546103b4906201000090046001600160a01b031681565b6040516001600160a01b039091168152602001610263565b6003546102579060ff1681565b61033761184f565b60035460015460025460005460ff93841693600160a01b9091041660408051941515855260208501939093529183015215156060820152608001610263565b61022961042e366004612bce565b611b4d565b610229610441366004612c78565b611d14565b6102f1610454366004612d25565b61200a565b60035461025790610100900460ff1681565b610229610479366004612d58565b6123f9565b610275612467565b6104f76104943660046128c6565b6001600160a01b03166000908152600660209081526040918290208251608081018452905460ff80821615158084526101008304821615159484018590526201000083048216958401869052630100000090920416606090920182905293919291565b604080519415158552921515602085015260ff91821692840192909252166060820152608001610263565b6104f76105303660046128c6565b60066020526000908152604090205460ff808216916101008104821691620100008204811691630100000090041684565b6102296124a7565b6102296105773660046128c6565b612607565b61022961058a366004612d7a565b612685565b610597612786565b6040516102639190612d9c565b6000546103b4906001600160a01b031681565b6102576105c53660046128c6565b6001600160a01b0316600090815260066020526040902054610100900460ff1690565b600054600160a01b900460ff1661063d5760405162461bcd60e51b8152602060048201526014602482015273566f74696e67206973206e6f742061637469766560601b60448201526064015b60405180910390fd5b60035460ff16156106e65760015442101561069a5760405162461bcd60e51b815260206004820152601a60248201527f566f74696e6720686173206e6f742073746172746564207965740000000000006044820152606401610634565b6002544211156106e65760405162461bcd60e51b8152602060048201526017602482015276159bdd1a5b99c81c195c9a5bd9081a185cc8195b991959604a1b6044820152606401610634565b600354610100900460ff16156107645760405162461bcd60e51b815260206004820152603760248201527f5a4b50206d6f6465206973206163746976653a2075736520746865205a4b502060448201527f766f74696e6720636f6e747261637420696e73746561640000000000000000006064820152608401610634565b6000546001600160a01b0316610778612814565b6001600160a01b0316036107c25760405162461bcd60e51b815260206004820152601160248201527041646d696e2063616e6e6f7420766f746560781b6044820152606401610634565b6000600660006107d0612814565b6001600160a01b031681526020810191909152604001600020805490915060ff1661083d5760405162461bcd60e51b815260206004820152601e60248201527f596f7520617265206e6f7420617574686f72697a656420746f20766f746500006044820152606401610634565b8054610100900460ff161561088d5760405162461bcd60e51b8152602060048201526016602482015275165bdd481a185d9948185b1c9958591e481d9bdd195960521b6044820152606401610634565b60008211801561089f57506007548211155b6108e25760405162461bcd60e51b8152602060048201526014602482015273125b9d985b1a590818d85b991a59185d1948125160621b6044820152606401610634565b6000828152600560205260409020815462010000900460ff161580159061090f5750600481015460ff1615155b1561098c576004810154825462010000900460ff90811691161461098c5760405162461bcd60e51b815260206004820152602e60248201527f596f752063616e206f6e6c7920766f746520666f722063616e6469646174657360448201526d20696e20796f757220737461746560901b6064820152608401610634565b81546301000000900460ff16158015906109b157506004810154610100900460ff1615155b15610a3b57600481015482546301000000900460ff9081166101009092041614610a3b5760405162461bcd60e51b815260206004820152603560248201527f596f752063616e206f6e6c7920766f746520666f722063616e6469646174657360448201527420696e20796f757220636f6e7374697475656e637960581b6064820152608401610634565b815461ff001916610100178255600581018054906000610a5a83612dc5565b9190505550827fc31875ef3ed5138b71a0c1da7e494bc4d2ba4f567084ea481ec9c45f3a93948b42604051610a9191815260200190565b60405180910390a2505050565b6000546001600160a01b03163314610ac85760405162461bcd60e51b815260040161063490612dde565b600054600160a01b900460ff1615610af25760405162461bcd60e51b815260040161063490612e20565b600060075411610b445760405162461bcd60e51b815260206004820152601760248201527f4e6f2063616e64696461746573206164646564207965740000000000000000006044820152606401610634565b6000805460ff60a01b1916600160a01b179055604051600181527f9069a1a16ace751e8690f383e12f87b01e8488ba387e626810bd113fef0417f9906020015b60405180910390a1565b6000546001600160a01b03163314610bb85760405162461bcd60e51b815260040161063490612dde565b600054600160a01b900460ff1615610be25760405162461bcd60e51b815260040161063490612e20565b6000815111610c335760405162461bcd60e51b815260206004820152601e60248201527f43616e646964617465206e616d652063616e6e6f7420626520656d70747900006044820152606401610634565b60078054906000610c4383612dc5565b90915550506040805160e0810182526007548082526020808301858152845180830186526000808252858701919091528551808401875281815260608601526080850181905260a0850181905260c0850181905292835260059091529290208151815591519091906001820190610cba9082612eda565b5060408201516002820190610ccf9082612eda565b5060608201516003820190610ce49082612eda565b50608082015160048201805460a085015160ff9081166101000261ffff1990921693169290921791909117905560c0909101516005909101556007546040517f6135a8aa9d6cc5d530ba4b0a845dee7aa1a1fdae782c52af9b878ed15a2f3be790610d559084906000908190612f9a565b60405180910390a250565b6001600160a01b038116600090815260066020526040812054610100900460ff16610dcd5760405162461bcd60e51b815260206004820152601760248201527f566f74657220686173206e6f7420766f746564207965740000000000000000006044820152606401610634565b6040516bffffffffffffffffffffffff19606084901b166020820152466034820152641d9bdd195960da1b6054820152605901604051602081830303815290604052805190602001209050919050565b6000546001600160a01b03163314610e475760405162461bcd60e51b815260040161063490612dde565b6001600160a01b038116610e955760405162461bcd60e51b8152602060048201526015602482015274496e76616c696420766f746572206164647265737360581b6044820152606401610634565b6001600160a01b03811660009081526006602052604090205460ff1615610efe5760405162461bcd60e51b815260206004820152601b60248201527f566f74657220697320616c726561647920617574686f72697a656400000000006044820152606401610634565b6001600160a01b0381166000818152600660209081526040808320805463ffffffff191660011790558051838152918201929092527f8566080dad97874e0793db9668cb0c866def86b15a575f648354a6d13cde52389101610d55565b6000546001600160a01b03163314610f855760405162461bcd60e51b815260040161063490612dde565b6004610f918282612eda565b5050565b6060600060075467ffffffffffffffff811115610fb457610fb46128e8565b604051908082528060200260200182016040528015610fed57816020015b610fda61284e565b815260200190600190039081610fd25790505b50905060015b600754811161123a57600560008281526020019081526020016000206040518060e00160405290816000820154815260200160018201805461103490612e57565b80601f016020809104026020016040519081016040528092919081815260200182805461106090612e57565b80156110ad5780601f10611082576101008083540402835291602001916110ad565b820191906000526020600020905b81548152906001019060200180831161109057829003601f168201915b505050505081526020016002820180546110c690612e57565b80601f01602080910402602001604051908101604052809291908181526020018280546110f290612e57565b801561113f5780601f106111145761010080835404028352916020019161113f565b820191906000526020600020905b81548152906001019060200180831161112257829003601f168201915b5050505050815260200160038201805461115890612e57565b80601f016020809104026020016040519081016040528092919081815260200182805461118490612e57565b80156111d15780601f106111a6576101008083540402835291602001916111d1565b820191906000526020600020905b8154815290600101906020018083116111b457829003601f168201915b5050509183525050600482015460ff80821660208401526101009091041660408201526005909101546060909101528261120c600184612fda565b8151811061121c5761121c612fed565b6020026020010181905250808061123290612dc5565b915050610ff3565b50919050565b6005602052600090815260409020805460018201805491929161126290612e57565b80601f016020809104026020016040519081016040528092919081815260200182805461128e90612e57565b80156112db5780601f106112b0576101008083540402835291602001916112db565b820191906000526020600020905b8154815290600101906020018083116112be57829003601f168201915b5050505050908060020180546112f090612e57565b80601f016020809104026020016040519081016040528092919081815260200182805461131c90612e57565b80156113695780601f1061133e57610100808354040283529160200191611369565b820191906000526020600020905b81548152906001019060200180831161134c57829003601f168201915b50505050509080600301805461137e90612e57565b80601f01602080910402602001604051908101604052809291908181526020018280546113aa90612e57565b80156113f75780601f106113cc576101008083540402835291602001916113f7565b820191906000526020600020905b8154815290600101906020018083116113da57829003601f168201915b505050506004830154600590930154919260ff8082169361010090920416915087565b61142261284e565b60008211801561143457506007548211155b6114775760405162461bcd60e51b8152602060048201526014602482015273125b9d985b1a590818d85b991a59185d1948125160621b6044820152606401610634565b600560008381526020019081526020016000206040518060e0016040529081600082015481526020016001820180546114af90612e57565b80601f01602080910402602001604051908101604052809291908181526020018280546114db90612e57565b80156115285780601f106114fd57610100808354040283529160200191611528565b820191906000526020600020905b81548152906001019060200180831161150b57829003601f168201915b5050505050815260200160028201805461154190612e57565b80601f016020809104026020016040519081016040528092919081815260200182805461156d90612e57565b80156115ba5780601f1061158f576101008083540402835291602001916115ba565b820191906000526020600020905b81548152906001019060200180831161159d57829003601f168201915b505050505081526020016003820180546115d390612e57565b80601f01602080910402602001604051908101604052809291908181526020018280546115ff90612e57565b801561164c5780601f106116215761010080835404028352916020019161164c565b820191906000526020600020905b81548152906001019060200180831161162f57829003601f168201915b5050509183525050600482015460ff808216602084015261010090910416604082015260059091015460609091015292915050565b6000546001600160a01b031633146116ab5760405162461bcd60e51b815260040161063490612dde565b600054600160a01b900460ff16156116d55760405162461bcd60e51b815260040161063490612e20565b6003805460ff1916905560006001819055600255565b6000546001600160a01b031633146117155760405162461bcd60e51b815260040161063490612dde565b6001600160a01b0383166117635760405162461bcd60e51b8152602060048201526015602482015274496e76616c696420766f746572206164647265737360581b6044820152606401610634565b6001600160a01b03831660009081526006602052604090205460ff16156117cc5760405162461bcd60e51b815260206004820152601b60248201527f566f74657220697320616c726561647920617574686f72697a656400000000006044820152606401610634565b6001600160a01b0383166000818152600660209081526040918290208054600162ffffff199091166201000060ff898116918202929092179290921763ff00000019166301000000918816918202179092558351908152918201527f8566080dad97874e0793db9668cb0c866def86b15a575f648354a6d13cde52389101610a91565b61185761284e565b6000600754116118a95760405162461bcd60e51b815260206004820152601760248201527f4e6f2063616e6469646174657320617661696c61626c650000000000000000006044820152606401610634565b60008060015b60075481116118fd57600081815260056020819052604090912001548310156118eb576000818152600560208190526040909120015492509050805b806118f581612dc5565b9150506118af565b50600081116119425760405162461bcd60e51b8152602060048201526011602482015270139bc81d9bdd195cc818d85cdd081e595d607a1b6044820152606401610634565b600560008281526020019081526020016000206040518060e00160405290816000820154815260200160018201805461197a90612e57565b80601f01602080910402602001604051908101604052809291908181526020018280546119a690612e57565b80156119f35780601f106119c8576101008083540402835291602001916119f3565b820191906000526020600020905b8154815290600101906020018083116119d657829003601f168201915b50505050508152602001600282018054611a0c90612e57565b80601f0160208091040260200160405190810160405280929190818152602001828054611a3890612e57565b8015611a855780601f10611a5a57610100808354040283529160200191611a85565b820191906000526020600020905b815481529060010190602001808311611a6857829003601f168201915b50505050508152602001600382018054611a9e90612e57565b80601f0160208091040260200160405190810160405280929190818152602001828054611aca90612e57565b8015611b175780601f10611aec57610100808354040283529160200191611b17565b820191906000526020600020905b815481529060010190602001808311611afa57829003601f168201915b5050509183525050600482015460ff80821660208401526101009091041660408201526005909101546060909101529392505050565b6000546001600160a01b03163314611b775760405162461bcd60e51b815260040161063490612dde565b600054600160a01b900460ff1615611ba15760405162461bcd60e51b815260040161063490612e20565b6000855111611bf25760405162461bcd60e51b815260206004820152601e60248201527f43616e646964617465206e616d652063616e6e6f7420626520656d70747900006044820152606401610634565b60078054906000611c0283612dc5565b90915550506040805160e08101825260075480825260208083018981528385018990526060840188905260ff8088166080860152861660a0850152600060c0850181905292835260059091529290208151815591519091906001820190611c699082612eda565b5060408201516002820190611c7e9082612eda565b5060608201516003820190611c939082612eda565b50608082015160048201805460a085015160ff9081166101000261ffff1990921693169290921791909117905560c0909101516005909101556007546040517f6135a8aa9d6cc5d530ba4b0a845dee7aa1a1fdae782c52af9b878ed15a2f3be790611d05908890889087908790613003565b60405180910390a25050505050565b6000546001600160a01b03163314611d3e5760405162461bcd60e51b815260040161063490612dde565b606481511115611d9a5760405162461bcd60e51b815260206004820152602160248201527f42617463682073697a652065786365656473206d6178696d756d206f662031306044820152600360fc1b6064820152608401610634565b60005b8151811015610f915760066000838381518110611dbc57611dbc612fed565b6020908102919091018101516001600160a01b031682528101919091526040016000205460ff16158015611e1c575060006001600160a01b0316828281518110611e0857611e08612fed565b60200260200101516001600160a01b031614155b15611ff857600160066000848481518110611e3957611e39612fed565b60200260200101516001600160a01b03166001600160a01b0316815260200190815260200160002060000160006101000a81548160ff021916908315150217905550600060066000848481518110611e9357611e93612fed565b60200260200101516001600160a01b03166001600160a01b0316815260200190815260200160002060000160016101000a81548160ff021916908315150217905550600060066000848481518110611eed57611eed612fed565b60200260200101516001600160a01b03166001600160a01b0316815260200190815260200160002060000160026101000a81548160ff021916908360ff160217905550600060066000848481518110611f4857611f48612fed565b60200260200101516001600160a01b03166001600160a01b0316815260200190815260200160002060000160036101000a81548160ff021916908360ff160217905550818181518110611f9d57611f9d612fed565b60200260200101516001600160a01b03167f8566080dad97874e0793db9668cb0c866def86b15a575f648354a6d13cde5238600080604051611fef92919060ff92831681529116602082015260400190565b60405180910390a25b8061200281612dc5565b915050611d9d565b6060600060015b60075481116120be5760008181526005602052604090206004015460ff86811691161480612051575060008181526005602052604090206004015460ff16155b8015612099575060008181526005602052604090206004015460ff8581166101009092041614806120995750600081815260056020526040902060040154610100900460ff16155b156120ac57816120a881612dc5565b9250505b806120b681612dc5565b915050612011565b5060008167ffffffffffffffff8111156120da576120da6128e8565b60405190808252806020026020018201604052801561211357816020015b61210061284e565b8152602001906001900390816120f85790505b509050600060015b60075481116123ec5760008181526005602052604090206004015460ff8881169116148061215b575060008181526005602052604090206004015460ff16155b80156121a3575060008181526005602052604090206004015460ff8781166101009092041614806121a35750600081815260056020526040902060040154610100900460ff16155b156123da57600560008281526020019081526020016000206040518060e0016040529081600082015481526020016001820180546121e090612e57565b80601f016020809104026020016040519081016040528092919081815260200182805461220c90612e57565b80156122595780601f1061222e57610100808354040283529160200191612259565b820191906000526020600020905b81548152906001019060200180831161223c57829003601f168201915b5050505050815260200160028201805461227290612e57565b80601f016020809104026020016040519081016040528092919081815260200182805461229e90612e57565b80156122eb5780601f106122c0576101008083540402835291602001916122eb565b820191906000526020600020905b8154815290600101906020018083116122ce57829003601f168201915b5050505050815260200160038201805461230490612e57565b80601f016020809104026020016040519081016040528092919081815260200182805461233090612e57565b801561237d5780601f106123525761010080835404028352916020019161237d565b820191906000526020600020905b81548152906001019060200180831161236057829003601f168201915b5050509183525050600482015460ff808216602084015261010090910416604082015260059091015460609091015283518490849081106123c0576123c0612fed565b602002602001018190525081806123d690612dc5565b9250505b806123e481612dc5565b91505061211b565b5090925050505b92915050565b6000546001600160a01b031633146124235760405162461bcd60e51b815260040161063490612dde565b600054600160a01b900460ff161561244d5760405162461bcd60e51b815260040161063490612e20565b600380549115156101000261ff0019909216919091179055565b60008060015b600754811161123a57600081815260056020819052604090912001546124939083613046565b91508061249f81612dc5565b91505061246d565b6000546001600160a01b031633146124d15760405162461bcd60e51b815260040161063490612dde565b600054600160a01b900460ff166125215760405162461bcd60e51b8152602060048201526014602482015273566f74696e67206973206e6f742061637469766560601b6044820152606401610634565b60035460ff16156125ca5760015442101561257e5760405162461bcd60e51b815260206004820152601a60248201527f566f74696e6720686173206e6f742073746172746564207965740000000000006044820152606401610634565b6002544211156125ca5760405162461bcd60e51b8152602060048201526017602482015276159bdd1a5b99c81c195c9a5bd9081a185cc8195b991959604a1b6044820152606401610634565b6000805460ff60a01b191681556040519081527f9069a1a16ace751e8690f383e12f87b01e8488ba387e626810bd113fef0417f990602001610b84565b6000546001600160a01b031633146126315760405162461bcd60e51b815260040161063490612dde565b600054600160a01b900460ff161561265b5760405162461bcd60e51b815260040161063490612e20565b600380546001600160a01b03909216620100000262010000600160b01b0319909216919091179055565b6000546001600160a01b031633146126af5760405162461bcd60e51b815260040161063490612dde565b600054600160a01b900460ff16156126d95760405162461bcd60e51b815260040161063490612e20565b8181116127325760405162461bcd60e51b815260206004820152602160248201527f456e642074696d65206d7573742062652061667465722073746172742074696d6044820152606560f81b6064820152608401610634565b600182815560028290556003805460ff1916909117905560408051838152602081018390527fa9f7a30954268b69f72fd46bd5e2c3dc8895e8ad643f8533bcdaf2e3af606e56910160405180910390a15050565b6004805461279390612e57565b80601f01602080910402602001604051908101604052809291908181526020018280546127bf90612e57565b801561280c5780601f106127e15761010080835404028352916020019161280c565b820191906000526020600020905b8154815290600101906020018083116127ef57829003601f168201915b505050505081565b60006014361080159061283757506003546201000090046001600160a01b031633145b15612849575060131936013560601c90565b503390565b6040518060e0016040528060008152602001606081526020016060815260200160608152602001600060ff168152602001600060ff168152602001600081525090565b6000602082840312156128a357600080fd5b5035919050565b80356001600160a01b03811681146128c157600080fd5b919050565b6000602082840312156128d857600080fd5b6128e1826128aa565b9392505050565b634e487b7160e01b600052604160045260246000fd5b604051601f8201601f1916810167ffffffffffffffff81118282101715612927576129276128e8565b604052919050565b600082601f83011261294057600080fd5b813567ffffffffffffffff81111561295a5761295a6128e8565b61296d601f8201601f19166020016128fe565b81815284602083860101111561298257600080fd5b816020850160208301376000918101602001919091529392505050565b6000602082840312156129b157600080fd5b813567ffffffffffffffff8111156129c857600080fd5b6129d48482850161292f565b949350505050565b6000815180845260005b81811015612a02576020818501810151868301820152016129e6565b506000602082860101526020601f19601f83011685010191505092915050565b805182526000602082015160e06020850152612a4160e08501826129dc565b905060408301518482036040860152612a5a82826129dc565b91505060608301518482036060860152612a7482826129dc565b91505060ff608084015116608085015260ff60a08401511660a085015260c083015160c08501528091505092915050565b6000602080830181845280855180835260408601915060408160051b870101925083870160005b82811015612afa57603f19888603018452612ae8858351612a22565b94509285019290850190600101612acc565b5092979650505050505050565b87815260e060208201526000612b2060e08301896129dc565b8281036040840152612b3281896129dc565b90508281036060840152612b4681886129dc565b60ff96871660808501529490951660a08301525060c0015295945050505050565b6020815260006128e16020830184612a22565b803560ff811681146128c157600080fd5b600080600060608486031215612ba057600080fd5b612ba9846128aa565b9250612bb760208501612b7a565b9150612bc560408501612b7a565b90509250925092565b600080600080600060a08688031215612be657600080fd5b853567ffffffffffffffff80821115612bfe57600080fd5b612c0a89838a0161292f565b96506020880135915080821115612c2057600080fd5b612c2c89838a0161292f565b95506040880135915080821115612c4257600080fd5b50612c4f8882890161292f565b935050612c5e60608701612b7a565b9150612c6c60808701612b7a565b90509295509295909350565b60006020808385031215612c8b57600080fd5b823567ffffffffffffffff80821115612ca357600080fd5b818501915085601f830112612cb757600080fd5b813581811115612cc957612cc96128e8565b8060051b9150612cda8483016128fe565b8181529183018401918481019088841115612cf457600080fd5b938501935b83851015612d1957612d0a856128aa565b82529385019390850190612cf9565b98975050505050505050565b60008060408385031215612d3857600080fd5b612d4183612b7a565b9150612d4f60208401612b7a565b90509250929050565b600060208284031215612d6a57600080fd5b813580151581146128e157600080fd5b60008060408385031215612d8d57600080fd5b50508035926020909101359150565b6020815260006128e160208301846129dc565b634e487b7160e01b600052601160045260246000fd5b600060018201612dd757612dd7612daf565b5060010190565b60208082526022908201527f4f6e6c792061646d696e2063616e20706572666f726d2074686973206163746960408201526137b760f11b606082015260800190565b6020808252601a908201527f566f74696e672069732063757272656e746c7920616374697665000000000000604082015260600190565b600181811c90821680612e6b57607f821691505b60208210810361123a57634e487b7160e01b600052602260045260246000fd5b601f821115612ed557600081815260208120601f850160051c81016020861015612eb25750805b601f850160051c820191505b81811015612ed157828155600101612ebe565b5050505b505050565b815167ffffffffffffffff811115612ef457612ef46128e8565b612f0881612f028454612e57565b84612e8b565b602080601f831160018114612f3d5760008415612f255750858301515b600019600386901b1c1916600185901b178555612ed1565b600085815260208120601f198616915b82811015612f6c57888601518255948401946001909101908401612f4d565b5085821015612f8a5787850151600019600388901b60f8161c191681555b5050505050600190811b01905550565b608081526000612fad60808301866129dc565b8281036020840152600081526020810191505060ff8416604083015260ff83166060830152949350505050565b818103818111156123f3576123f3612daf565b634e487b7160e01b600052603260045260246000fd5b60808152600061301660808301876129dc565b828103602084015261302881876129dc565b91505060ff8416604083015260ff8316606083015295945050505050565b808201808211156123f3576123f3612daf56fea2646970667358221220469b270e13b9c962c01059b6a30aee517ce308324b5cdc122cd7ccd5c05e194364736f6c63430008130033",
  "linkReferences": {},
  "deployedLinkReferences": {}
}