{
  "_format": "hh-sol-artifact-1",
  "contractName": "ZKPVoting",
  "sourceName": "contracts/ZKPVoting.sol",
  "abi": [
    {
      "inputs": [
        {
          "internalType": "address",
          "name": "_trustedForwarder",
          "type": "address"
        },
        {
          "internalType": "uint256",
          "name": "_candidatesCount",
          "type": "uint256"
        },
        {
          "internalType": "string",
          "name": "_electionId",
          "type": "string"
        }
      ],
      "stateMutability": "nonpayable",
      "type": "constructor"
    },
    {
      "anonymous": false,
      "inputs": [
        {
          "indexed": true,
          "internalType": "uint256",
          "name": "candidateId",
          "type": "uint256"
        },
        {
          "indexed": false,
          "internalType": "string",
          "name": "ipfsHash",
          "type": "string"
        }
      ],
      "name": "CandidateMetadataStored",
      "type": "event"
    },
    {
      "anonymous": false,
      "inputs": [
        {
          "indexed": true,
          "internalType": "address",
          "name": "newForwarder",
          "type": "address"
        }
      ],
      "name": "ForwarderUpdated",
      "type": "event"
    },
    {
      "anonymous": false,
      "inputs": [
        {
          "indexed": true,
          "internalType": "address",
          "name": "relayer",
          "type": "address"
        },
        {
          "indexed": true,
          "internalType": "address",
          "name": "sender",
          "type": "address"
        }
      ],
      "name": "MetaTransactionExecuted",
      "type": "event"
    },
    {
      "anonymous": false,
      "inputs": [
        {
          "indexed": true,
          "internalType": "bytes32",
          "name": "nullifierHash",
          "type": "bytes32"
        },
        {
          "indexed": false,
          "internalType": "bool",
          "name": "valid",
          "type": "bool"
        }
      ],
      "name": "VoteVerified",
      "type": "event"
    },
    {
      "anonymous": false,
      "inputs": [
        {
          "indexed": true,
          "internalType": "bytes32",
          "name": "identityCommitment",
          "type": "bytes32"
        }
      ],
      "name": "VoterRegistered",
      "type": "event"
    },
    {
      "anonymous": false,
      "inputs": [
        {
          "indexed": false,
          "internalType": "bool",
          "name": "enabled",
          "type": "bool"
        }
      ],
      "name": "ZKPModeChanged",
      "type": "event"
    },
    {
      "anonymous": false,
      "inputs": [
        {
          "indexed": true,
          "internalType": "bytes32",
          "name": "nullifierHash",
          "type": "bytes32"
        },
        {
          "indexed": true,
          "internalType": "bytes32",
          "name": "commitment",
          "type": "bytes32"
        },
        {
          "indexed": false,
          "internalType": "string",
          "name": "ipfsHash",
          "type": "string"
        },
        {
          "indexed": false,
          "internalType": "uint256",
          "name": "timestamp",
          "type": "uint256"
        }
      ],
      "name": "ZKPVoteSubmitted",
      "type": "event"
    },
    {
      "inputs": [],
      "name": "GENERATOR_G",
      "outputs": [
        {
          "internalType": "uint256",
          "name": "",
          "type": "uint256"
        }
      ],
      "stateMutability": "view",
      "type": "function"
    },
    {
      "inputs": [],
      "name": "GENERATOR_H",
      "outputs": [
        {
          "internalType": "uint256",
          "name": "",
          "type": "uint256"
        }
      ],
      "stateMutability": "view",
      "type": "function"
    },
    {
      "inputs": [],
      "name": "PRIME",
      "outputs": [
        {
          "internalType": "uint256",
          "name": "",
          "type": "uint256"
        }
      ],
      "stateMutability": "view",
      "type": "function"
    },
    {
      "inputs": [],
      "name": "admin",
      "outputs": [
        {
          "internalType": "address",
          "name": "",
          "type": "address"
        }
      ],
      "stateMutability": "view",
      "type": "function"
    },
    {
      "inputs": [
        {
          "internalType": "uint256",
          "name": "",
          "type": "uint256"
        }
      ],
      "name": "allCommitments",
      "outputs": [
        {
          "internalType": "bytes32",
          "name": "",
          "type": "bytes32"
        }
      ],
      "stateMutability": "view",
      "type": "function"
    },
    {
      "inputs": [
        {
          "internalType": "uint256",
          "name": "",
          "type": "uint256"
        }
      ],
      "name": "allNullifiers",
      "outputs": [
        {
          "internalType": "bytes32",
          "name": "",
          "type": "bytes32"
        }
      ],
      "stateMutability": "view",
      "type": "function"
    },
    {
      "inputs": [
        {
          "internalType": "uint256",
          "name": "",
          "type": "uint256"
        }
      ],
      "name": "candidateIPFSHashes",
      "outputs": [
        {
          "internalType": "string",
          "name": "",
          "type": "string"
        }
      ],
      "stateMutability": "view",
      "type": "function"
    },
    {
      "inputs": [],
      "name": "candidatesCount",
      "outputs": [
        {
          "internalType": "uint256",
          "name": "",
          "type": "uint256"
        }
      ],
      "stateMutability": "view",
      "type": "function"
    },
    {
      "inputs": [
        {
          "internalType": "bytes32",
          "name": "",
          "type": "bytes32"
        }
      ],
      "name": "commitmentExists",
      "outputs": [
        {
          "internalType": "bool",
          "name": "",
          "type": "bool"
        }
      ],
      "stateMutability": "view",
      "type": "function"
    },
    {
      "inputs": [],
      "name": "electionId",
      "outputs": [
        {
          "internalType": "string",
          "name": "",
          "type": "string"
        }
      ],
      "stateMutability": "view",
      "type": "function"
    },
    {
      "inputs": [
        {
          "internalType": "bytes32",
          "name": "",
          "type": "bytes32"
        }
      ],
      "name": "eligibleVoters",
      "outputs": [
        {
          "internalType": "bytes32",
          "name": "identityCommitment",
          "type": "bytes32"
        },
        {
          "internalType": "bool",
          "name": "isRegistered",
          "type": "bool"
        },
        {
          "internalType": "bool",
          "name": "hasVoted",
          "type": "bool"
        }
      ],
      "stateMutability": "view",
      "type": "function"
    },
    {
      "inputs": [],
      "name": "getAllCommitments",
      "outputs": [
        {
          "internalType": "bytes32[]",
          "name": "",
          "type": "bytes32[]"
        }
      ],
      "stateMutability": "view",
      "type": "function"
    },
    {
      "inputs": [],
      "name": "getAllNullifiers",
      "outputs": [
        {
          "internalType": "bytes32[]",
          "name": "",
          "type": "bytes32[]"
        }
      ],
      "stateMutability": "view",
      "type": "function"
    },
    {
      "inputs": [
        {
          "internalType": "uint256",
          "name": "_candidateId",
          "type": "uint256"
        }
      ],
      "name": "getCandidateIPFS",
      "outputs": [
        {
          "internalType": "string",
          "name": "",
          "type": "string"
        }
      ],
      "stateMutability": "view",
      "type": "function"
    },
    {
      "inputs": [],
      "name": "getElectionSummary",
      "outputs": [
        {
          "internalType": "uint256",
          "name": "totalZKPVotes",
          "type": "uint256"
        },
        {
          "internalType": "uint256",
          "name": "totalCommitments",
          "type": "uint256"
        },
        {
          "internalType": "uint256",
          "name": "totalNullifiers",
          "type": "uint256"
        },
        {
          "internalType": "bool",
          "name": "_zkpEnabled",
          "type": "bool"
        },
        {
          "internalType": "string",
          "name": "_electionId",
          "type": "string"
        }
      ],
      "stateMutability": "view",
      "type": "function"
    },
    {
      "inputs": [],
      "name": "getZKPVoteCount",
      "outputs": [
        {
          "internalType": "uint256",
          "name": "",
          "type": "uint256"
        }
      ],
      "stateMutability": "view",
      "type": "function"
    },
    {
      "inputs": [
        {
          "internalType": "bytes32",
          "name": "_nullifierHash",
          "type": "bytes32"
        }
      ],
      "name": "getZKVoteReceipt",
      "outputs": [
        {
          "internalType": "bytes32",
          "name": "commitment",
          "type": "bytes32"
        },
        {
          "internalType": "uint256",
          "name": "timestamp",
          "type": "uint256"
        },
        {
          "internalType": "string",
          "name": "ipfsHash",
          "type": "string"
        },
        {
          "internalType": "bool",
          "name": "verified",
          "type": "bool"
        }
      ],
      "stateMutability": "view",
      "type": "function"
    },
    {
      "inputs": [
        {
          "internalType": "bytes32",
          "name": "_identityCommitment",
          "type": "bytes32"
        }
      ],
      "name": "hasIdentityVoted",
      "outputs": [
        {
          "internalType": "bool",
          "name": "",
          "type": "bool"
        }
      ],
      "stateMutability": "view",
      "type": "function"
    },
    {
      "inputs": [
        {
          "internalType": "bytes32",
          "name": "",
          "type": "bytes32"
        }
      ],
      "name": "identityRegistered",
      "outputs": [
        {
          "internalType": "bool",
          "name": "",
          "type": "bool"
        }
      ],
      "stateMutability": "view",
      "type": "function"
    },
    {
      "inputs": [
        {
          "internalType": "bytes32",
          "name": "_identityCommitment",
          "type": "bytes32"
        }
      ],
      "name": "isIdentityRegistered",
      "outputs": [
        {
          "internalType": "bool",
          "name": "",
          "type": "bool"
        }
      ],
      "stateMutability": "view",
      "type": "function"
    },
    {
      "inputs": [
        {
          "internalType": "bytes32",
          "name": "_nullifierHash",
          "type": "bytes32"
        }
      ],
      "name": "isNullifierUsed",
      "outputs": [
        {
          "internalType": "bool",
          "name": "",
          "type": "bool"
        }
      ],
      "stateMutability": "view",
      "type": "function"
    },
    {
      "inputs": [
        {
          "internalType": "address",
          "name": "forwarder",
          "type": "address"
        }
      ],
      "name": "isTrustedForwarder",
      "outputs": [
        {
          "internalType": "bool",
          "name": "",
          "type": "bool"
        }
      ],
      "stateMutability": "view",
      "type": "function"
    },
    {
      "inputs": [
        {
          "internalType": "bytes32",
          "name": "_nullifierHash",
          "type": "bytes32"
        }
      ],
      "name": "markVoteVerified",
      "outputs": [],
      "stateMutability": "nonpayable",
      "type": "function"
    },
    {
      "inputs": [
        {
          "internalType": "bytes32",
          "name": "",
          "type": "bytes32"
        }
      ],
      "name": "nullifierUsed",
      "outputs": [
        {
          "internalType": "bool",
          "name": "",
          "type": "bool"
        }
      ],
      "stateMutability": "view",
      "type": "function"
    },
    {
      "inputs": [
        {
          "internalType": "bytes32",
          "name": "_identityCommitment",
          "type": "bytes32"
        }
      ],
      "name": "registerEligibleVoter",
      "outputs": [],
      "stateMutability": "nonpayable",
      "type": "function"
    },
    {
      "inputs": [
        {
          "internalType": "bytes32[]",
          "name": "_commitments",
          "type": "bytes32[]"
        }
      ],
      "name": "registerEligibleVotersBatch",
      "outputs": [],
      "stateMutability": "nonpayable",
      "type": "function"
    },
    {
      "inputs": [
        {
          "internalType": "uint256",
          "name": "_candidateId",
          "type": "uint256"
        },
        {
          "internalType": "string",
          "name": "_ipfsHash",
          "type": "string"
        }
      ],
      "name": "setCandidateIPFSHash",
      "outputs": [],
      "stateMutability": "nonpayable",
      "type": "function"
    },
    {
      "inputs": [
        {
          "internalType": "uint256",
          "name": "_count",
          "type": "uint256"
        }
      ],
      "name": "setCandidatesCount",
      "outputs": [],
      "stateMutability": "nonpayable",
      "type": "function"
    },
    {
      "inputs": [
        {
          "internalType": "address",
          "name": "_forwarder",
          "type": "address"
        }
      ],
      "name": "setTrustedForwarder",
      "outputs": [],
      "stateMutability": "nonpayable",
      "type": "function"
    },
    {
      "inputs": [
        {
          "internalType": "bool",
          "name": "_enabled",
          "type": "bool"
        }
      ],
      "name": "setZKPMode",
      "outputs": [],
      "stateMutability": "nonpayable",
      "type": "function"
    },
    {
      "inputs": [
        {
          "internalType": "bytes32",
          "name": "_commitment",
          "type": "bytes32"
        },
        {
          "internalType": "bytes32",
          "name": "_nullifierHash",
          "type": "bytes32"
        },
        {
          "internalType": "bytes32",
          "name": "_identityCommitment",
          "type": "bytes32"
        },
        {
          "internalType": "uint256[4]",
          "name": "_proof",
          "type": "uint256[4]"
        },
        {
          "internalType": "string",
          "name": "_ipfsHash",
          "type": "string"
        }
      ],
      "name": "submitEncryptedVote",
      "outputs": [],
      "stateMutability": "nonpayable",
      "type": "function"
    },
    {
      "inputs": [],
      "name": "trustedForwarder",
      "outputs": [
        {
          "internalType": "address",
          "name": "",
          "type": "address"
        }
      ],
      "stateMutability": "view",
      "type": "function"
    },
    {
      "inputs": [
        {
          "internalType": "bytes32",
          "name": "_commitment",
          "type": "bytes32"
        }
      ],
      "name": "verifyVoteInclusion",
      "outputs": [
        {
          "internalType": "bool",
          "name": "included",
          "type": "bool"
        }
      ],
      "stateMutability": "view",
      "type": "function"
    },
    {
      "inputs": [],
      "name": "zkpEnabled",
      "outputs": [
        {
          "internalType": "bool",
          "name": "",
          "type": "bool"
        }
      ],
      "stateMutability": "view",
      "type": "function"
    },
    {
      "inputs": [],
      "name": "zkpVoteCount",
      "outputs": [
        {
          "internalType": "uint256",
          "name": "",
          "type": "uint256"
        }
      ],
      "stateMutability": "view",
      "type": "function"
    },
    {
      "inputs": [
        {
          "internalType": "bytes32",
          "name": "",
          "type": "bytes32"
        }
      ],
      "name": "zkpVotes",
      "outputs": [
        {
          "internalType": "bytes32",
          "name": "commitment",
          "type": "bytes32"
        },
        {
          "internalType": "bytes32",
          "name": "nullifierHash",
          "type": "bytes32"
        },
        {
          "internalType": "uint256",
          "name": "timestamp",
          "type": "uint256"
        },
        {
          "internalType": "string",
          "name": "ipfsMetadataHash",
          "type": "string"
        },
        {
          "internalType": "bool",
          "name": "verified",
          "type": "bool"
        }
      ],
      "stateMutability": "view",
      "type": "function"
    }
  ],
  "bytecode": "0x60806040523480156200001157600080fd5b5060405162002119380380620021198339810160408190526200003491620000a4565b60008054336001600160a01b031991821617909155600180549091166001600160a01b0385161790556002829055600462000070828262000232565b50506001805460ff60a01b1916600160a01b17905550620002fe9050565b634e487b7160e01b600052604160045260246000fd5b600080600060608486031215620000ba57600080fd5b83516001600160a01b0381168114620000d257600080fd5b60208581015160408701519295509350906001600160401b0380821115620000f957600080fd5b818701915087601f8301126200010e57600080fd5b8151818111156200012357620001236200008e565b604051601f8201601f19908116603f011681019083821181831017156200014e576200014e6200008e565b816040528281528a868487010111156200016757600080fd5b600093505b828410156200018b57848401860151818501870152928501926200016c565b60008684830101528096505050505050509250925092565b600181811c90821680620001b857607f821691505b602082108103620001d957634e487b7160e01b600052602260045260246000fd5b50919050565b601f8211156200022d57600081815260208120601f850160051c81016020861015620002085750805b601f850160051c820191505b81811015620002295782815560010162000214565b5050505b505050565b81516001600160401b038111156200024e576200024e6200008e565b62000266816200025f8454620001a3565b84620001df565b602080601f8311600181146200029e5760008415620002855750858301515b600019600386901b1c1916600185901b17855562000229565b600085815260208120601f198616915b82811015620002cf57888601518255948401946001909101908401620002ae565b5085821015620002ee5787850151600019600388901b60f8161c191681555b5050505050600190811b01905550565b611e0b806200030e6000396000f3fe608060405234801561001057600080fd5b506004361061021b5760003560e01c806380493b9311610125578063b74954f4116100ad578063da7422281161007c578063da74222814610580578063e8e4138814610593578063ed4fa039146105b6578063f851a440146105c9578063fac54689146105dc57600080fd5b8063b74954f41461051a578063c6913bea14610533578063ca367ac814610546578063ca664a481461056d57600080fd5b806399010a3f116100f457806399010a3f146104c557806399999dbb146104d9578063a8fb4d3e146104ec578063ab2ae5ee146104ff578063ac0861811461051257600080fd5b806380493b931461042c57806383b3749c1461043f578063853c63e71461048f57806386307865146104a257600080fd5b8063556996b5116101a85780635ee6abdf116101775780635ee6abdf1461037f5780636033dbc3146103a657806363582010146103c95780637da0a877146103de5780637ecf686d1461040957600080fd5b8063556996b51461031f578063572b6c05146103275780635c8fdd35146103495780635ccb15e81461036c57600080fd5b80632c0ee3c4116101ef5780632c0ee3c4146102a75780632d35a8a2146102bc57806335cd3222146102c55780633fa332a7146102e857806350eb40441461030c57600080fd5b806217cd8b14610220578063051364d41461024c5780630dd56fae1461026157806322dc7b4c14610274575b600080fd5b61023970014551231950b75fc4402da1732fc9bebe1981565b6040519081526020015b60405180910390f35b6102546105e5565b6040516102439190611809565b61025461026f366004611823565b610673565b610297610282366004611823565b6000908152600a602052604090205460ff1690565b6040519015158152602001610243565b6102af610715565b604051610243919061183c565b61023960025481565b6102d86102d3366004611823565b61076d565b6040516102439493929190611880565b6102fb6102f6366004611823565b6108e8565b6040516102439594939291906118b2565b61029761031a366004611823565b6109a4565b600354610239565b6102976103353660046118eb565b6001546001600160a01b0391821691161490565b610297610357366004611823565b6000908152600b602052604090205460ff1690565b61025461037a366004611823565b610a16565b6102397f79be667ef9dcbbac55a06295ce870b07029bfcdb2dce28d959f2815b16f8179881565b6102976103b4366004611823565b60009081526009602052604090205460ff1690565b6103dc6103d73660046119f4565b610a2f565b005b6001546103f1906001600160a01b031681565b6040516001600160a01b039091168152602001610243565b610297610417366004611823565b600a6020526000908152604090205460ff1681565b61023961043a366004611823565b610b1c565b61047261044d366004611823565b6006602052600090815260409020805460019091015460ff8082169161010090041683565b604080519384529115156020840152151590820152606001610243565b61023961049d366004611823565b610b3d565b6102976104b0366004611823565b60096020526000908152604090205460ff1681565b60015461029790600160a01b900460ff1681565b6103dc6104e7366004611a3b565b610b4d565b6103dc6104fa366004611a5d565b610bdf565b6103dc61050d366004611823565b610dcd565b6102af610f0c565b610522610f62565b604051610243959493929190611b03565b6103dc610541366004611823565b611028565b6102397fc6047f9441ed7d6d3045406e95c07cd85c778e4b8cef3ca7abac09b95c709ee581565b6103dc61057b366004611b3b565b611067565b6103dc61058e3660046118eb565b6113f9565b6102976105a1366004611823565b600b6020526000908152604090205460ff1681565b6103dc6105c4366004611823565b61147d565b6000546103f1906001600160a01b031681565b61023960035481565b600480546105f290611be2565b80601f016020809104026020016040519081016040528092919081815260200182805461061e90611be2565b801561066b5780601f106106405761010080835404028352916020019161066b565b820191906000526020600020905b81548152906001019060200180831161064e57829003601f168201915b505050505081565b6000818152600c6020526040902080546060919061069090611be2565b80601f01602080910402602001604051908101604052809291908181526020018280546106bc90611be2565b80156107095780601f106106de57610100808354040283529160200191610709565b820191906000526020600020905b8154815290600101906020018083116106ec57829003601f168201915b50505050509050919050565b6060600880548060200260200160405190810160405280929190818152602001828054801561076357602002820191906000526020600020905b81548152602001906001019080831161074f575b5050505050905090565b6000818152600a60205260408120548190606090829060ff166107e55760405162461bcd60e51b815260206004820152602560248201527f5a4b503a204e6f20766f746520666f756e6420666f722074686973206e756c6c60448201526434b334b2b960d91b60648201526084015b60405180910390fd5b6000600560008781526020019081526020016000206040518060a001604052908160008201548152602001600182015481526020016002820154815260200160038201805461083390611be2565b80601f016020809104026020016040519081016040528092919081815260200182805461085f90611be2565b80156108ac5780601f10610881576101008083540402835291602001916108ac565b820191906000526020600020905b81548152906001019060200180831161088f57829003601f168201915b50505091835250506004919091015460ff1615156020909101528051604082015160608301516080909301519199909850919650945092505050565b60056020526000908152604090208054600182015460028301546003840180549394929391929161091890611be2565b80601f016020809104026020016040519081016040528092919081815260200182805461094490611be2565b80156109915780601f1061096657610100808354040283529160200191610991565b820191906000526020600020905b81548152906001019060200180831161097457829003601f168201915b5050506004909301549192505060ff1685565b6000818152600b602052604081205460ff166109f85760405162461bcd60e51b81526020600482015260136024820152721692d40e88139bdd081c9959da5cdd195c9959606a1b60448201526064016107dc565b50600090815260066020526040902060010154610100900460ff1690565b600c60205260009081526040902080546105f290611be2565b6000546001600160a01b0316610a436115f7565b6001600160a01b031614610a695760405162461bcd60e51b81526004016107dc90611c1c565b600082118015610a7b57506002548211155b610ac75760405162461bcd60e51b815260206004820152601960248201527f5a4b503a20496e76616c69642063616e6469646174652049440000000000000060448201526064016107dc565b6000828152600c60205260409020610adf8282611c94565b50817fce1afc8a7f4101719cc0bdc87531881979dfd8df81c04bbfcc08bf40a9bcce0b82604051610b109190611809565b60405180910390a25050565b60088181548110610b2c57600080fd5b600091825260209091200154905081565b60078181548110610b2c57600080fd5b6000546001600160a01b0316610b616115f7565b6001600160a01b031614610b875760405162461bcd60e51b81526004016107dc90611c1c565b60018054821515600160a01b0260ff60a01b199091161790556040517fadff02641deb29f682e9963c376f80b7954b1c58787029d499e3f8f43c9a875190610bd490831515815260200190565b60405180910390a150565b6000546001600160a01b0316610bf36115f7565b6001600160a01b031614610c195760405162461bcd60e51b81526004016107dc90611c1c565b60005b8151811015610dc9576000801b828281518110610c3b57610c3b611d54565b602002602001015114158015610c825750600b6000838381518110610c6257610c62611d54565b60209081029190910181015182528101919091526040016000205460ff16155b15610db7576040518060600160405280838381518110610ca457610ca4611d54565b602002602001015181526020016001151581526020016000151581525060066000848481518110610cd757610cd7611d54565b60209081029190910181015182528181019290925260409081016000908120845181559284015160019384018054959093015161ffff1990951690151561ff001916176101009415159490940293909317905583519091600b91859085908110610d4357610d43611d54565b6020026020010151815260200190815260200160002060006101000a81548160ff021916908315150217905550818181518110610d8257610d82611d54565b60200260200101517fe1e93aab4d6cae623ae197f9c4d63ac5eede4c69f9d0fbc92e4dbb0766abd11560405160405180910390a25b80610dc181611d6a565b915050610c1c565b5050565b6000546001600160a01b0316610de16115f7565b6001600160a01b031614610e075760405162461bcd60e51b81526004016107dc90611c1c565b6000818152600a602052604090205460ff16610e5a5760405162461bcd60e51b81526020600482015260126024820152711692d40e88139bc81d9bdd1948199bdd5b9960721b60448201526064016107dc565b60008181526005602052604090206004015460ff1615610eb45760405162461bcd60e51b81526020600482015260156024820152741692d40e88105b1c9958591e481d995c9a599a5959605a1b60448201526064016107dc565b600081815260056020908152604091829020600401805460ff19166001908117909155915191825282917fc39a9f8123869a1d06798e0e4c4fc29a9b1033017c0820de8ec69ce46f782e73910160405180910390a250565b60606007805480602002602001604051908101604052809291908181526020018280548015610763576020028201919060005260206000209081548152602001906001019080831161074f575050505050905090565b6000806000806060600354600880549050600780549050600160149054906101000a900460ff166004808054610f9790611be2565b80601f0160208091040260200160405190810160405280929190818152602001828054610fc390611be2565b80156110105780601f10610fe557610100808354040283529160200191611010565b820191906000526020600020905b815481529060010190602001808311610ff357829003601f168201915b50505050509050945094509450945094509091929394565b6000546001600160a01b031661103c6115f7565b6001600160a01b0316146110625760405162461bcd60e51b81526004016107dc90611c1c565b600255565b600154600160a01b900460ff166110c05760405162461bcd60e51b815260206004820152601c60248201527f5a4b503a205a4b50206d6f6465206973206e6f7420656e61626c65640000000060448201526064016107dc565b6000838152600b602052604090205460ff1661111e5760405162461bcd60e51b815260206004820152601b60248201527f5a4b503a204e6f742061207265676973746572656420766f746572000000000060448201526064016107dc565b600083815260066020526040902060010154610100900460ff16156111855760405162461bcd60e51b815260206004820152601860248201527f5a4b503a20566f74657220616c726561647920766f746564000000000000000060448201526064016107dc565b6000848152600a602052604090205460ff16156111fe5760405162461bcd60e51b815260206004820152603160248201527f5a4b503a204e756c6c696669657220616c726561647920757365642028646f75604482015270626c6520766f746520617474656d70742960781b60648201526084016107dc565b61120a8585858561162b565b61127c5760405162461bcd60e51b815260206004820152603760248201527f5a4b503a20496e76616c6964207a65726f2d6b6e6f776c656467652070726f6f60448201527f66206f72207369676e6174757265206d69736d6174636800000000000000000060648201526084016107dc565b6040805160a081018252868152602080820187815242838501908152606084018681526000608086018190528a8152600590945294909220835181559051600182015590516002820155915190919060038201906112da9082611c94565b50608091909101516004909101805491151560ff199283161790556000858152600a60209081526040808320805485166001908117909155600780548083019091557fa66cc928b5edb82af9bd49922954155ab7b0942694bea4ce44661d9a8736c68801899055600880548083019091557ff3f7a9fe364faab93b216da50a3214154f22a0a2b415b23a84c8169e8b636ee3018a905589845260099092528220805490931617909155600380549161139183611d6a565b909155505060008381526006602052604090819020600101805461ff00191661010017905551859085907fe9ff783ccceb0a708f01efa07100bf9e107e5b7555f3de5c4beb0b2c6048e13a906113ea9085904290611d91565b60405180910390a35050505050565b6000546001600160a01b031661140d6115f7565b6001600160a01b0316146114335760405162461bcd60e51b81526004016107dc90611c1c565b600180546001600160a01b0319166001600160a01b0383169081179091556040517f9d90a82ec1d038d4e13317a0eb136f9c65b7ed42156fc204ec4b7c4731e7395090600090a250565b6000546001600160a01b03166114916115f7565b6001600160a01b0316146114b75760405162461bcd60e51b81526004016107dc90611c1c565b806115045760405162461bcd60e51b815260206004820181905260248201527f5a4b503a20496e76616c6964206964656e7469747920636f6d6d69746d656e7460448201526064016107dc565b6000818152600b602052604090205460ff16156115635760405162461bcd60e51b815260206004820152601760248201527f5a4b503a20416c7265616479207265676973746572656400000000000000000060448201526064016107dc565b60408051606081018252828152600160208083018281526000848601818152878252600684528682209551865591519484018054925115156101000261ff00199615159690961661ffff1990931692909217949094179055600b9052828220805460ff19169091179055905182917fe1e93aab4d6cae623ae197f9c4d63ac5eede4c69f9d0fbc92e4dbb0766abd11591a250565b60006014361080159061161457506001546001600160a01b031633145b15611626575060131936013560601c90565b503390565b80516020820151604083015160608401516002546000949392919081146116945760405162461bcd60e51b815260206004820152601d60248201527f5a4b503a2043616e64696461746520636f756e74206d69736d6174636800000060448201526064016107dc565b83158015906116a257508215155b80156116ad57508115155b6116f95760405162461bcd60e51b815260206004820152601960248201527f5a4b503a205a65726f2070726f6f6620636f6d706f6e656e740000000000000060448201526064016107dc565b6040805160208082018c90528183018b9052606082018690526080820185905260a08083018590528351808403909101815260c09092019092528051910120600061175670014551231950b75fc4402da1732fc9bebe1983611db3565b90508581146117b25760405162461bcd60e51b815260206004820152602260248201527f5a4b503a204368616c6c656e676520766572696669636174696f6e206661696c604482015261195960f21b60648201526084016107dc565b5060019a9950505050505050505050565b6000815180845260005b818110156117e9576020818501810151868301820152016117cd565b506000602082860101526020601f19601f83011685010191505092915050565b60208152600061181c60208301846117c3565b9392505050565b60006020828403121561183557600080fd5b5035919050565b6020808252825182820181905260009190848201906040850190845b8181101561187457835183529284019291840191600101611858565b50909695505050505050565b84815283602082015260806040820152600061189f60808301856117c3565b9050821515606083015295945050505050565b85815284602082015283604082015260a0606082015260006118d760a08301856117c3565b905082151560808301529695505050505050565b6000602082840312156118fd57600080fd5b81356001600160a01b038116811461181c57600080fd5b634e487b7160e01b600052604160045260246000fd5b6040516080810167ffffffffffffffff8111828210171561194d5761194d611914565b60405290565b604051601f8201601f1916810167ffffffffffffffff8111828210171561197c5761197c611914565b604052919050565b600082601f83011261199557600080fd5b813567ffffffffffffffff8111156119af576119af611914565b6119c2601f8201601f1916602001611953565b8181528460208386010111156119d757600080fd5b816020850160208301376000918101602001919091529392505050565b60008060408385031215611a0757600080fd5b82359150602083013567ffffffffffffffff811115611a2557600080fd5b611a3185828601611984565b9150509250929050565b600060208284031215611a4d57600080fd5b8135801515811461181c57600080fd5b60006020808385031215611a7057600080fd5b823567ffffffffffffffff80821115611a8857600080fd5b818501915085601f830112611a9c57600080fd5b813581811115611aae57611aae611914565b8060051b9150611abf848301611953565b8181529183018401918481019088841115611ad957600080fd5b938501935b83851015611af757843582529385019390850190611ade565b98975050505050505050565b858152846020820152836040820152821515606082015260a060808201526000611b3060a08301846117c3565b979650505050505050565b60008060008060006101008688031215611b5457600080fd5b8535945060208087013594506040870135935087607f880112611b7657600080fd5b611b7e61192a565b8060e089018a811115611b9057600080fd5b60608a015b81811015611bac5780358452928401928401611b95565b509094503591505067ffffffffffffffff811115611bc957600080fd5b611bd588828901611984565b9150509295509295909350565b600181811c90821680611bf657607f821691505b602082108103611c1657634e487b7160e01b600052602260045260246000fd5b50919050565b6020808252600f908201526e2d25a81d1027b7363c9030b236b4b760891b604082015260600190565b601f821115611c8f57600081815260208120601f850160051c81016020861015611c6c5750805b601f850160051c820191505b81811015611c8b57828155600101611c78565b5050505b505050565b815167ffffffffffffffff811115611cae57611cae611914565b611cc281611cbc8454611be2565b84611c45565b602080601f831160018114611cf75760008415611cdf5750858301515b600019600386901b1c1916600185901b178555611c8b565b600085815260208120601f198616915b82811015611d2657888601518255948401946001909101908401611d07565b5085821015611d445787850151600019600388901b60f8161c191681555b5050505050600190811b01905550565b634e487b7160e01b600052603260045260246000fd5b600060018201611d8a57634e487b7160e01b600052601160045260246000fd5b5060010190565b604081526000611da460408301856117c3565b90508260208301529392505050565b600082611dd057634e487b7160e01b600052601260045260246000fd5b50069056fea2646970667358221220c2590faac36de3a639f5391fe0660d487dd326bd06b8893d52ee4c8f068282f064736f6c63430008130033",
  "linkReferences": {},
  "deployedLinkReferences": {}
}