{
  "_format": "hh-sol-artifact-1",
  "contractName": "ZKPVoting",
  "sourceName": "contracts/ZKPVoting.sol",
  "abi": [
    {
      "inputs": [
        {
          "internalType": "address",
          "name": "_trustedForwarder",
          "type": "address"
        },
        {
          "internalType": "uint256",
          "name": "_candidatesCount",
          "type": "uint256"
        },
        {
          "internalType": "string",
          "name": "_electionId",
          "type": "string"
        }
      ],
      "stateMutability": "nonpayable",
      "type": "constructor"
    },
    {
      "anonymous": false,
      "inputs": [
        {
          "indexed": true,
          "internalType": "uint256",
          "name": "candidateId",
          "type": "uint256"
        },
        {
          "indexed": false,
          "internalType": "string",
          "name": "ipfsHash",
          "type": "string"
        }
      ],
      "name": "CandidateMetadataStored",
      "type": "event"
    },
    {
      "anonymous": false,
      "inputs": [
        {
          "indexed": true,
          "internalType": "address",
          "name": "newForwarder",
          "type": "address"
        }
      ],
      "name": "ForwarderUpdated",
      "type": "event"
    },
    {
      "anonymous": false,
      "inputs": [
        {
          "indexed": true,
          "internalType": "address",
          "name": "relayer",
          "type": "address"
        },
        {
          "indexed": true,
          "internalType": "address",
          "name": "sender",
          "type": "address"
        }
      ],
      "name": "MetaTransactionExecuted",
      "type": "event"
    },
    {
      "anonymous": false,
      "inputs": [
        {
          "indexed": true,
          "internalType": "bytes32",
          "name": "nullifierHash",
          "type": "bytes32"
        },
        {
          "indexed": false,
          "internalType": "bool",
          "name": "valid",
          "type": "bool"
        }
      ],
      "name": "VoteVerified",
      "type": "event"
    },
    {
      "anonymous": false,
      "inputs": [
        {
          "indexed": true,
          "internalType": "bytes32",
          "name": "identityCommitment",
          "type": "bytes32"
        }
      ],
      "name": "VoterRegistered",
      "type": "event"
    },
    {
      "anonymous": false,
      "inputs": [
        {
          "indexed": false,
          "internalType": "uint256",
          "name": "startTime",
          "type": "uint256"
        },
        {
          "indexed": false,
          "internalType": "uint256",
          "name": "endTime",
          "type": "uint256"
        }
      ],
      "name": "VotingTimelineSet",
      "type": "event"
    },
    {
      "anonymous": false,
      "inputs": [
        {
          "indexed": false,
          "internalType": "bool",
          "name": "enabled",
          "type": "bool"
        }
      ],
      "name": "ZKPModeChanged",
      "type": "event"
    },
    {
      "anonymous": false,
      "inputs": [
        {
          "indexed": true,
          "internalType": "bytes32",
          "name": "nullifierHash",
          "type": "bytes32"
        },
        {
          "indexed": true,
          "internalType": "bytes32",
          "name": "commitment",
          "type": "bytes32"
        },
        {
          "indexed": false,
          "internalType": "string",
          "name": "ipfsHash",
          "type": "string"
        },
        {
          "indexed": false,
          "internalType": "uint256",
          "name": "timestamp",
          "type": "uint256"
        }
      ],
      "name": "ZKPVoteSubmitted",
      "type": "event"
    },
    {
      "inputs": [],
      "name": "GENERATOR_G",
      "outputs": [
        {
          "internalType": "uint256",
          "name": "",
          "type": "uint256"
        }
      ],
      "stateMutability": "view",
      "type": "function"
    },
    {
      "inputs": [],
      "name": "GENERATOR_H",
      "outputs": [
        {
          "internalType": "uint256",
          "name": "",
          "type": "uint256"
        }
      ],
      "stateMutability": "view",
      "type": "function"
    },
    {
      "inputs": [],
      "name": "PRIME",
      "outputs": [
        {
          "internalType": "uint256",
          "name": "",
          "type": "uint256"
        }
      ],
      "stateMutability": "view",
      "type": "function"
    },
    {
      "inputs": [],
      "name": "admin",
      "outputs": [
        {
          "internalType": "address",
          "name": "",
          "type": "address"
        }
      ],
      "stateMutability": "view",
      "type": "function"
    },
    {
      "inputs": [
        {
          "internalType": "uint256",
          "name": "",
          "type": "uint256"
        }
      ],
      "name": "candidateIPFSHashes",
      "outputs": [
        {
          "internalType": "string",
          "name": "",
          "type": "string"
        }
      ],
      "stateMutability": "view",
      "type": "function"
    },
    {
      "inputs": [],
      "name": "candidatesCount",
      "outputs": [
        {
          "internalType": "uint256",
          "name": "",
          "type": "uint256"
        }
      ],
      "stateMutability": "view",
      "type": "function"
    },
    {
      "inputs": [
        {
          "internalType": "bytes32",
          "name": "",
          "type": "bytes32"
        }
      ],
      "name": "commitmentExists",
      "outputs": [
        {
          "internalType": "bool",
          "name": "",
          "type": "bool"
        }
      ],
      "stateMutability": "view",
      "type": "function"
    },
    {
      "inputs": [],
      "name": "disableTimeline",
      "outputs": [],
      "stateMutability": "nonpayable",
      "type": "function"
    },
    {
      "inputs": [],
      "name": "electionId",
      "outputs": [
        {
          "internalType": "string",
          "name": "",
          "type": "string"
        }
      ],
      "stateMutability": "view",
      "type": "function"
    },
    {
      "inputs": [
        {
          "internalType": "bytes32",
          "name": "",
          "type": "bytes32"
        }
      ],
      "name": "eligibleVoters",
      "outputs": [
        {
          "internalType": "bool",
          "name": "isRegistered",
          "type": "bool"
        },
        {
          "internalType": "bool",
          "name": "hasVoted",
          "type": "bool"
        }
      ],
      "stateMutability": "view",
      "type": "function"
    },
    {
      "inputs": [
        {
          "internalType": "uint256",
          "name": "_candidateId",
          "type": "uint256"
        }
      ],
      "name": "getCandidateIPFS",
      "outputs": [
        {
          "internalType": "string",
          "name": "",
          "type": "string"
        }
      ],
      "stateMutability": "view",
      "type": "function"
    },
    {
      "inputs": [],
      "name": "getElectionSummary",
      "outputs": [
        {
          "internalType": "uint256",
          "name": "totalZKPVotes",
          "type": "uint256"
        },
        {
          "internalType": "uint256",
          "name": "totalCommitments",
          "type": "uint256"
        },
        {
          "internalType": "uint256",
          "name": "totalNullifiers",
          "type": "uint256"
        },
        {
          "internalType": "bool",
          "name": "_zkpEnabled",
          "type": "bool"
        },
        {
          "internalType": "string",
          "name": "_electionId",
          "type": "string"
        }
      ],
      "stateMutability": "view",
      "type": "function"
    },
    {
      "inputs": [],
      "name": "getZKPVoteCount",
      "outputs": [
        {
          "internalType": "uint256",
          "name": "",
          "type": "uint256"
        }
      ],
      "stateMutability": "view",
      "type": "function"
    },
    {
      "inputs": [
        {
          "internalType": "bytes32",
          "name": "_nullifierHash",
          "type": "bytes32"
        }
      ],
      "name": "getZKVoteReceipt",
      "outputs": [
        {
          "internalType": "bytes32",
          "name": "commitment",
          "type": "bytes32"
        },
        {
          "internalType": "uint256",
          "name": "timestamp",
          "type": "uint256"
        },
        {
          "internalType": "string",
          "name": "ipfsHash",
          "type": "string"
        },
        {
          "internalType": "bool",
          "name": "verified",
          "type": "bool"
        }
      ],
      "stateMutability": "view",
      "type": "function"
    },
    {
      "inputs": [
        {
          "internalType": "bytes32",
          "name": "_identityCommitment",
          "type": "bytes32"
        }
      ],
      "name": "hasIdentityVoted",
      "outputs": [
        {
          "internalType": "bool",
          "name": "",
          "type": "bool"
        }
      ],
      "stateMutability": "view",
      "type": "function"
    },
    {
      "inputs": [
        {
          "internalType": "bytes32",
          "name": "",
          "type": "bytes32"
        }
      ],
      "name": "identityRegistered",
      "outputs": [
        {
          "internalType": "bool",
          "name": "",
          "type": "bool"
        }
      ],
      "stateMutability": "view",
      "type": "function"
    },
    {
      "inputs": [
        {
          "internalType": "bytes32",
          "name": "_identityCommitment",
          "type": "bytes32"
        }
      ],
      "name": "isIdentityRegistered",
      "outputs": [
        {
          "internalType": "bool",
          "name": "",
          "type": "bool"
        }
      ],
      "stateMutability": "view",
      "type": "function"
    },
    {
      "inputs": [
        {
          "internalType": "bytes32",
          "name": "_nullifierHash",
          "type": "bytes32"
        }
      ],
      "name": "isNullifierUsed",
      "outputs": [
        {
          "internalType": "bool",
          "name": "",
          "type": "bool"
        }
      ],
      "stateMutability": "view",
      "type": "function"
    },
    {
      "inputs": [
        {
          "internalType": "address",
          "name": "forwarder",
          "type": "address"
        }
      ],
      "name": "isTrustedForwarder",
      "outputs": [
        {
          "internalType": "bool",
          "name": "",
          "type": "bool"
        }
      ],
      "stateMutability": "view",
      "type": "function"
    },
    {
      "inputs": [
        {
          "internalType": "bytes32",
          "name": "_nullifierHash",
          "type": "bytes32"
        }
      ],
      "name": "markVoteVerified",
      "outputs": [],
      "stateMutability": "nonpayable",
      "type": "function"
    },
    {
      "inputs": [
        {
          "internalType": "bytes32",
          "name": "",
          "type": "bytes32"
        }
      ],
      "name": "nullifierUsed",
      "outputs": [
        {
          "internalType": "bool",
          "name": "",
          "type": "bool"
        }
      ],
      "stateMutability": "view",
      "type": "function"
    },
    {
      "inputs": [
        {
          "internalType": "bytes32",
          "name": "_identityCommitment",
          "type": "bytes32"
        }
      ],
      "name": "registerEligibleVoter",
      "outputs": [],
      "stateMutability": "nonpayable",
      "type": "function"
    },
    {
      "inputs": [
        {
          "internalType": "bytes32[]",
          "name": "_commitments",
          "type": "bytes32[]"
        }
      ],
      "name": "registerEligibleVotersBatch",
      "outputs": [],
      "stateMutability": "nonpayable",
      "type": "function"
    },
    {
      "inputs": [
        {
          "internalType": "uint256",
          "name": "_candidateId",
          "type": "uint256"
        },
        {
          "internalType": "string",
          "name": "_ipfsHash",
          "type": "string"
        }
      ],
      "name": "setCandidateIPFSHash",
      "outputs": [],
      "stateMutability": "nonpayable",
      "type": "function"
    },
    {
      "inputs": [
        {
          "internalType": "uint256",
          "name": "_count",
          "type": "uint256"
        }
      ],
      "name": "setCandidatesCount",
      "outputs": [],
      "stateMutability": "nonpayable",
      "type": "function"
    },
    {
      "inputs": [
        {
          "internalType": "address",
          "name": "_forwarder",
          "type": "address"
        }
      ],
      "name": "setTrustedForwarder",
      "outputs": [],
      "stateMutability": "nonpayable",
      "type": "function"
    },
    {
      "inputs": [
        {
          "internalType": "uint256",
          "name": "_startTime",
          "type": "uint256"
        },
        {
          "internalType": "uint256",
          "name": "_endTime",
          "type": "uint256"
        }
      ],
      "name": "setVotingTimeline",
      "outputs": [],
      "stateMutability": "nonpayable",
      "type": "function"
    },
    {
      "inputs": [
        {
          "internalType": "bool",
          "name": "_enabled",
          "type": "bool"
        }
      ],
      "name": "setZKPMode",
      "outputs": [],
      "stateMutability": "nonpayable",
      "type": "function"
    },
    {
      "inputs": [
        {
          "internalType": "bytes32",
          "name": "_commitment",
          "type": "bytes32"
        },
        {
          "internalType": "bytes32",
          "name": "_nullifierHash",
          "type": "bytes32"
        },
        {
          "internalType": "bytes32",
          "name": "_identityCommitment",
          "type": "bytes32"
        },
        {
          "internalType": "uint256[4]",
          "name": "_proof",
          "type": "uint256[4]"
        },
        {
          "internalType": "string",
          "name": "_ipfsHash",
          "type": "string"
        }
      ],
      "name": "submitEncryptedVote",
      "outputs": [],
      "stateMutability": "nonpayable",
      "type": "function"
    },
    {
      "inputs": [],
      "name": "timelineEnabled",
      "outputs": [
        {
          "internalType": "bool",
          "name": "",
          "type": "bool"
        }
      ],
      "stateMutability": "view",
      "type": "function"
    },
    {
      "inputs": [],
      "name": "trustedForwarder",
      "outputs": [
        {
          "internalType": "address",
          "name": "",
          "type": "address"
        }
      ],
      "stateMutability": "view",
      "type": "function"
    },
    {
      "inputs": [
        {
          "internalType": "bytes32",
          "name": "_commitment",
          "type": "bytes32"
        }
      ],
      "name": "verifyVoteInclusion",
      "outputs": [
        {
          "internalType": "bool",
          "name": "included",
          "type": "bool"
        }
      ],
      "stateMutability": "view",
      "type": "function"
    },
    {
      "inputs": [],
      "name": "votingEndTime",
      "outputs": [
        {
          "internalType": "uint256",
          "name": "",
          "type": "uint256"
        }
      ],
      "stateMutability": "view",
      "type": "function"
    },
    {
      "inputs": [],
      "name": "votingStartTime",
      "outputs": [
        {
          "internalType": "uint256",
          "name": "",
          "type": "uint256"
        }
      ],
      "stateMutability": "view",
      "type": "function"
    },
    {
      "inputs": [],
      "name": "zkpEnabled",
      "outputs": [
        {
          "internalType": "bool",
          "name": "",
          "type": "bool"
        }
      ],
      "stateMutability": "view",
      "type": "function"
    },
    {
      "inputs": [],
      "name": "zkpVoteCount",
      "outputs": [
        {
          "internalType": "uint256",
          "name": "",
          "type": "uint256"
        }
      ],
      "stateMutability": "view",
      "type": "function"
    },
    {
      "inputs": [
        {
          "internalType": "bytes32",
          "name": "",
          "type": "bytes32"
        }
      ],
      "name": "zkpVotes",
      "outputs": [
        {
          "internalType": "bytes32",
          "name": "commitment",
          "type": "bytes32"
        },
        {
          "internalType": "bytes32",
          "name": "nullifierHash",
          "type": "bytes32"
        },
        {
          "internalType": "uint64",
          "name": "timestamp",
          "type": "uint64"
        },
        {
          "internalType": "bool",
          "name": "verified",
          "type": "bool"
        },
        {
          "internalType": "string",
          "name": "ipfsMetadataHash",
          "type": "string"
        }
      ],
      "stateMutability": "view",
      "type": "function"
    }
  ],
  "bytecode": "0x60806040523480156200001157600080fd5b50604051620020eb380380620020eb8339810160408190526200003491620000ad565b60008054336001600160a01b031991821617909155600180549091166001600160a01b038516179055600282905560046200007082826200023b565b50506001805460ff60a01b1916600160a01b17905550506005805460ff1916905562000307565b634e487b7160e01b600052604160045260246000fd5b600080600060608486031215620000c357600080fd5b83516001600160a01b0381168114620000db57600080fd5b60208581015160408701519295509350906001600160401b03808211156200010257600080fd5b818701915087601f8301126200011757600080fd5b8151818111156200012c576200012c62000097565b604051601f8201601f19908116603f0116810190838211818310171562000157576200015762000097565b816040528281528a868487010111156200017057600080fd5b600093505b8284101562000194578484018601518185018701529285019262000175565b60008684830101528096505050505050509250925092565b600181811c90821680620001c157607f821691505b602082108103620001e257634e487b7160e01b600052602260045260246000fd5b50919050565b601f8211156200023657600081815260208120601f850160051c81016020861015620002115750805b601f850160051c820191505b8181101562000232578281556001016200021d565b5050505b505050565b81516001600160401b0381111562000257576200025762000097565b6200026f81620002688454620001ac565b84620001e8565b602080601f831160018114620002a757600084156200028e5750858301515b600019600386901b1c1916600185901b17855562000232565b600085815260208120601f198616915b82811015620002d857888601518255948401946001909101908401620002b7565b5085821015620002f75787850151600019600388901b60f8161c191681555b5050505050600190811b01905550565b611dd480620003176000396000f3fe608060405234801561001057600080fd5b50600436106102265760003560e01c80637da0a87711610130578063b74954f4116100b8578063e8e413881161007c578063e8e4138814610575578063ed4fa03914610598578063efbe52a5146105ab578063f851a440146105be578063fac54689146105d157600080fd5b8063b74954f4146104fc578063c6913bea14610515578063ca367ac814610528578063ca664a481461054f578063da7422281461056257600080fd5b806386307865116100ff578063863078651461048c57806399010a3f146104af57806399999dbb146104c3578063a8fb4d3e146104d6578063ab2ae5ee146104e957600080fd5b80637da0a877146103ee5780637de9eb36146104195780637ecf686d1461042657806383b3749c1461044957600080fd5b806350eb4044116101b35780635ccb15e8116101825780635ccb15e8146103745780635ee6abdf146103875780636033dbc3146103ae57806363582010146103d157806376d85285146103e657600080fd5b806350eb404414610314578063556996b514610327578063572b6c051461032f5780635c8fdd351461035157600080fd5b80632019a608116101fa5780632019a6081461028857806322dc7b4c146102915780632d35a8a2146102c457806335cd3222146102cd5780633fa332a7146102f057600080fd5b806217cd8b1461022b578063051364d4146102575780630dd56fae1461026c5780631ea736e01461027f575b600080fd5b61024470014551231950b75fc4402da1732fc9bebe1981565b6040519081526020015b60405180910390f35b61025f6105da565b60405161024e919061183b565b61025f61027a366004611855565b610668565b61024460075481565b61024460065481565b6102b461029f366004611855565b6000908152600b602052604090205460ff1690565b604051901515815260200161024e565b61024460025481565b6102e06102db366004611855565b61070a565b60405161024e949392919061186e565b6103036102fe366004611855565b61089a565b60405161024e9594939291906118a0565b6102b4610322366004611855565b610964565b600354610244565b6102b461033d3660046118e2565b6001546001600160a01b0391821691161490565b6102b461035f366004611855565b6000908152600c602052604090205460ff1690565b61025f610382366004611855565b6109d3565b6102447f79be667ef9dcbbac55a06295ce870b07029bfcdb2dce28d959f2815b16f8179881565b6102b46103bc366004611855565b6000908152600a602052604090205460ff1690565b6103e46103df3660046119d7565b6109ec565b005b6103e4610ad9565b600154610401906001600160a01b031681565b6040516001600160a01b03909116815260200161024e565b6005546102b49060ff1681565b6102b4610434366004611855565b600b6020526000908152604090205460ff1681565b610475610457366004611855565b60096020526000908152604090205460ff8082169161010090041682565b60408051921515835290151560208301520161024e565b6102b461049a366004611855565b600a6020526000908152604090205460ff1681565b6001546102b490600160a01b900460ff1681565b6103e46104d1366004611a1e565b610b29565b6103e46104e4366004611a40565b610bbb565b6103e46104f7366004611855565b610cdb565b610504610e32565b60405161024e959493929190611ab5565b6103e4610523366004611855565b610ef2565b6102447fc6047f9441ed7d6d3045406e95c07cd85c778e4b8cef3ca7abac09b95c709ee581565b6103e461055d366004611ae2565b610f31565b6103e46105703660046118e2565b611326565b6102b4610583366004611855565b600c6020526000908152604090205460ff1681565b6103e46105a6366004611855565b6113aa565b6103e46105b9366004611b89565b611513565b600054610401906001600160a01b031681565b61024460035481565b600480546105e790611bab565b80601f016020809104026020016040519081016040528092919081815260200182805461061390611bab565b80156106605780601f1061063557610100808354040283529160200191610660565b820191906000526020600020905b81548152906001019060200180831161064357829003601f168201915b505050505081565b6000818152600d6020526040902080546060919061068590611bab565b80601f01602080910402602001604051908101604052809291908181526020018280546106b190611bab565b80156106fe5780601f106106d3576101008083540402835291602001916106fe565b820191906000526020600020905b8154815290600101906020018083116106e157829003601f168201915b50505050509050919050565b6000818152600b60205260408120548190606090829060ff166107825760405162461bcd60e51b815260206004820152602560248201527f5a4b503a204e6f20766f746520666f756e6420666f722074686973206e756c6c60448201526434b334b2b960d91b60648201526084015b60405180910390fd5b6000858152600860209081526040808320815160a08101835281548152600182015493810193909352600281015467ffffffffffffffff811692840192909252600160401b90910460ff16151560608301526003810180546080840191906107e990611bab565b80601f016020809104026020016040519081016040528092919081815260200182805461081590611bab565b80156108625780601f1061083757610100808354040283529160200191610862565b820191906000526020600020905b81548152906001019060200180831161084557829003601f168201915b505050919092525050815160408301516080840151606090940151919a67ffffffffffffffff90911699509297509550909350505050565b60086020526000908152604090208054600182015460028301546003840180549394929367ffffffffffffffff831693600160401b90930460ff169291906108e190611bab565b80601f016020809104026020016040519081016040528092919081815260200182805461090d90611bab565b801561095a5780601f1061092f5761010080835404028352916020019161095a565b820191906000526020600020905b81548152906001019060200180831161093d57829003601f168201915b5050505050905085565b6000818152600c602052604081205460ff166109b85760405162461bcd60e51b81526020600482015260136024820152721692d40e88139bdd081c9959da5cdd195c9959606a1b6044820152606401610779565b50600090815260096020526040902054610100900460ff1690565b600d60205260009081526040902080546105e790611bab565b6000546001600160a01b0316610a006115ff565b6001600160a01b031614610a265760405162461bcd60e51b815260040161077990611be5565b600082118015610a3857506002548211155b610a845760405162461bcd60e51b815260206004820152601960248201527f5a4b503a20496e76616c69642063616e646964617465204944000000000000006044820152606401610779565b6000828152600d60205260409020610a9c8282611c5d565b50817fce1afc8a7f4101719cc0bdc87531881979dfd8df81c04bbfcc08bf40a9bcce0b82604051610acd919061183b565b60405180910390a25050565b6000546001600160a01b0316610aed6115ff565b6001600160a01b031614610b135760405162461bcd60e51b815260040161077990611be5565b6005805460ff1916905560006006819055600755565b6000546001600160a01b0316610b3d6115ff565b6001600160a01b031614610b635760405162461bcd60e51b815260040161077990611be5565b60018054821515600160a01b0260ff60a01b199091161790556040517fadff02641deb29f682e9963c376f80b7954b1c58787029d499e3f8f43c9a875190610bb090831515815260200190565b60405180910390a150565b6000546001600160a01b0316610bcf6115ff565b6001600160a01b031614610bf55760405162461bcd60e51b815260040161077990611be5565b8060005b81811015610cd5576000848483818110610c1557610c15611d1d565b60200291909101359150508015801590610c3e57506000818152600c602052604090205460ff16155b15610cc4576040805180820182526001808252600060208084018281528683526009825285832094518554915161ffff1990921690151561ff001916176101009115159190910217909355600c909252828220805460ff19169091179055905182917fe1e93aab4d6cae623ae197f9c4d63ac5eede4c69f9d0fbc92e4dbb0766abd11591a25b50610cce81611d33565b9050610bf9565b50505050565b6000546001600160a01b0316610cef6115ff565b6001600160a01b031614610d155760405162461bcd60e51b815260040161077990611be5565b6000818152600b602052604090205460ff16610d685760405162461bcd60e51b81526020600482015260126024820152711692d40e88139bc81d9bdd1948199bdd5b9960721b6044820152606401610779565b600081815260086020526040902060020154600160401b900460ff1615610dc95760405162461bcd60e51b81526020600482015260156024820152741692d40e88105b1c9958591e481d995c9a599a5959605a1b6044820152606401610779565b60008181526008602052604090819020600201805468ff00000000000000001916600160401b1790555181907fc39a9f8123869a1d06798e0e4c4fc29a9b1033017c0820de8ec69ce46f782e7390610e279060011515815260200190565b60405180910390a250565b6000806000806060600354600354600354600160149054906101000a900460ff166004808054610e6190611bab565b80601f0160208091040260200160405190810160405280929190818152602001828054610e8d90611bab565b8015610eda5780601f10610eaf57610100808354040283529160200191610eda565b820191906000526020600020905b815481529060010190602001808311610ebd57829003601f168201915b50505050509050945094509450945094509091929394565b6000546001600160a01b0316610f066115ff565b6001600160a01b031614610f2c5760405162461bcd60e51b815260040161077990611be5565b600255565b600154600160a01b900460ff16610f8a5760405162461bcd60e51b815260206004820152601c60248201527f5a4b503a205a4b50206d6f6465206973206e6f7420656e61626c6564000000006044820152606401610779565b60055460ff161561103957600654421015610fe75760405162461bcd60e51b815260206004820152601f60248201527f5a4b503a20566f74696e6720686173206e6f74207374617274656420796574006044820152606401610779565b6007544211156110395760405162461bcd60e51b815260206004820152601c60248201527f5a4b503a20566f74696e6720706572696f642068617320656e646564000000006044820152606401610779565b6000838152600c602052604090205460ff166110975760405162461bcd60e51b815260206004820152601b60248201527f5a4b503a204e6f742061207265676973746572656420766f74657200000000006044820152606401610779565b600083815260096020526040902054610100900460ff16156110fb5760405162461bcd60e51b815260206004820152601860248201527f5a4b503a20566f74657220616c726561647920766f74656400000000000000006044820152606401610779565b6000848152600b602052604090205460ff16156111745760405162461bcd60e51b815260206004820152603160248201527f5a4b503a204e756c6c696669657220616c726561647920757365642028646f75604482015270626c6520766f746520617474656d70742960781b6064820152608401610779565b61118085858585611633565b6111f25760405162461bcd60e51b815260206004820152603760248201527f5a4b503a20496e76616c6964207a65726f2d6b6e6f776c656467652070726f6f60448201527f66206f72207369676e6174757265206d69736d617463680000000000000000006064820152608401610779565b6040805160a081018252868152602080820187815267ffffffffffffffff428116848601908152600060608601818152608087018981528c8352600890965296902085518155925160018401555160028301805496511515600160401b0268ffffffffffffffffff1990971691909216179490941790935551909190600382019061127d9082611c5d565b5050506000848152600b602090815260408083208054600160ff199182168117909255898552600a909352908320805490921617905560038054916112c183611d33565b909155505060008381526009602052604090819020805461ff00191661010017905551859085907fe9ff783ccceb0a708f01efa07100bf9e107e5b7555f3de5c4beb0b2c6048e13a906113179085904290611d5a565b60405180910390a35050505050565b6000546001600160a01b031661133a6115ff565b6001600160a01b0316146113605760405162461bcd60e51b815260040161077990611be5565b600180546001600160a01b0319166001600160a01b0383169081179091556040517f9d90a82ec1d038d4e13317a0eb136f9c65b7ed42156fc204ec4b7c4731e7395090600090a250565b6000546001600160a01b03166113be6115ff565b6001600160a01b0316146113e45760405162461bcd60e51b815260040161077990611be5565b806114315760405162461bcd60e51b815260206004820181905260248201527f5a4b503a20496e76616c6964206964656e7469747920636f6d6d69746d656e746044820152606401610779565b6000818152600c602052604090205460ff16156114905760405162461bcd60e51b815260206004820152601760248201527f5a4b503a20416c726561647920726567697374657265640000000000000000006044820152606401610779565b6040805180820182526001808252600060208084018281528683526009825285832094518554915161ffff1990921690151561ff001916176101009115159190910217909355600c909252828220805460ff19169091179055905182917fe1e93aab4d6cae623ae197f9c4d63ac5eede4c69f9d0fbc92e4dbb0766abd11591a250565b6000546001600160a01b03166115276115ff565b6001600160a01b03161461154d5760405162461bcd60e51b815260040161077990611be5565b8181116115ab5760405162461bcd60e51b815260206004820152602660248201527f5a4b503a20456e642074696d65206d7573742062652061667465722073746172604482015265742074696d6560d01b6064820152608401610779565b600682905560078190556005805460ff1916600117905560408051838152602081018390527fa9f7a30954268b69f72fd46bd5e2c3dc8895e8ad643f8533bcdaf2e3af606e56910160405180910390a15050565b60006014361080159061161c57506001546001600160a01b031633145b1561162e575060131936013560601c90565b503390565b805160208201516040830151606084015160025460009493929190811461169c5760405162461bcd60e51b815260206004820152601d60248201527f5a4b503a2043616e64696461746520636f756e74206d69736d617463680000006044820152606401610779565b83158015906116aa57508215155b80156116b557508115155b6117015760405162461bcd60e51b815260206004820152601960248201527f5a4b503a205a65726f2070726f6f6620636f6d706f6e656e74000000000000006044820152606401610779565b600089898585856117106115ff565b604080516020810197909752860194909452606080860193909352608085019190915260a08401521b6bffffffffffffffffffffffff191660c082015260d40160408051601f1981840301815291905280516020909101209050600061178870014551231950b75fc4402da1732fc9bebe1983611d7c565b90508581146117e45760405162461bcd60e51b815260206004820152602260248201527f5a4b503a204368616c6c656e676520766572696669636174696f6e206661696c604482015261195960f21b6064820152608401610779565b5060019a9950505050505050505050565b6000815180845260005b8181101561181b576020818501810151868301820152016117ff565b506000602082860101526020601f19601f83011685010191505092915050565b60208152600061184e60208301846117f5565b9392505050565b60006020828403121561186757600080fd5b5035919050565b84815283602082015260806040820152600061188d60808301856117f5565b9050821515606083015295945050505050565b85815284602082015267ffffffffffffffff84166040820152821515606082015260a0608082015260006118d760a08301846117f5565b979650505050505050565b6000602082840312156118f457600080fd5b81356001600160a01b038116811461184e57600080fd5b634e487b7160e01b600052604160045260246000fd5b6040516080810167ffffffffffffffff811182821017156119445761194461190b565b60405290565b600082601f83011261195b57600080fd5b813567ffffffffffffffff808211156119765761197661190b565b604051601f8301601f19908116603f0116810190828211818310171561199e5761199e61190b565b816040528381528660208588010111156119b757600080fd5b836020870160208301376000602085830101528094505050505092915050565b600080604083850312156119ea57600080fd5b82359150602083013567ffffffffffffffff811115611a0857600080fd5b611a148582860161194a565b9150509250929050565b600060208284031215611a3057600080fd5b8135801515811461184e57600080fd5b60008060208385031215611a5357600080fd5b823567ffffffffffffffff80821115611a6b57600080fd5b818501915085601f830112611a7f57600080fd5b813581811115611a8e57600080fd5b8660208260051b8501011115611aa357600080fd5b60209290920196919550909350505050565b858152846020820152836040820152821515606082015260a0608082015260006118d760a08301846117f5565b60008060008060006101008688031215611afb57600080fd5b8535945060208087013594506040870135935087607f880112611b1d57600080fd5b611b25611921565b8060e089018a811115611b3757600080fd5b60608a015b81811015611b535780358452928401928401611b3c565b509094503591505067ffffffffffffffff811115611b7057600080fd5b611b7c8882890161194a565b9150509295509295909350565b60008060408385031215611b9c57600080fd5b50508035926020909101359150565b600181811c90821680611bbf57607f821691505b602082108103611bdf57634e487b7160e01b600052602260045260246000fd5b50919050565b6020808252600f908201526e2d25a81d1027b7363c9030b236b4b760891b604082015260600190565b601f821115611c5857600081815260208120601f850160051c81016020861015611c355750805b601f850160051c820191505b81811015611c5457828155600101611c41565b5050505b505050565b815167ffffffffffffffff811115611c7757611c7761190b565b611c8b81611c858454611bab565b84611c0e565b602080601f831160018114611cc05760008415611ca85750858301515b600019600386901b1c1916600185901b178555611c54565b600085815260208120601f198616915b82811015611cef57888601518255948401946001909101908401611cd0565b5085821015611d0d5787850151600019600388901b60f8161c191681555b5050505050600190811b01905550565b634e487b7160e01b600052603260045260246000fd5b600060018201611d5357634e487b7160e01b600052601160045260246000fd5b5060010190565b604081526000611d6d60408301856117f5565b90508260208301529392505050565b600082611d9957634e487b7160e01b600052601260045260246000fd5b50069056fea26469706673582212206e5493eda8b2ab7c0c59b2d89ceca88d8820d3936eeb9b46de7e6ce4a4fbc95e64736f6c63430008130033",
  "linkReferences": {},
  "deployedLinkReferences": {}
}