{
  "_format": "hh-sol-artifact-1",
  "contractName": "ZKPVoting",
  "sourceName": "contracts/ZKPVoting.sol",
  "abi": [
    {
      "inputs": [
        {
          "internalType": "address",
          "name": "_trustedForwarder",
          "type": "address"
        },
        {
          "internalType": "uint256",
          "name": "_candidatesCount",
          "type": "uint256"
        },
        {
          "internalType": "string",
          "name": "_electionId",
          "type": "string"
        }
      ],
      "stateMutability": "nonpayable",
      "type": "constructor"
    },
    {
      "anonymous": false,
      "inputs": [
        {
          "indexed": true,
          "internalType": "uint256",
          "name": "candidateId",
          "type": "uint256"
        },
        {
          "indexed": false,
          "internalType": "string",
          "name": "ipfsHash",
          "type": "string"
        }
      ],
      "name": "CandidateMetadataStored",
      "type": "event"
    },
    {
      "anonymous": false,
      "inputs": [
        {
          "indexed": true,
          "internalType": "address",
          "name": "newForwarder",
          "type": "address"
        }
      ],
      "name": "ForwarderUpdated",
      "type": "event"
    },
    {
      "anonymous": false,
      "inputs": [
        {
          "indexed": true,
          "internalType": "address",
          "name": "relayer",
          "type": "address"
        },
        {
          "indexed": true,
          "internalType": "address",
          "name": "sender",
          "type": "address"
        }
      ],
      "name": "MetaTransactionExecuted",
      "type": "event"
    },
    {
      "anonymous": false,
      "inputs": [
        {
          "indexed": true,
          "internalType": "bytes32",
          "name": "nullifierHash",
          "type": "bytes32"
        },
        {
          "indexed": false,
          "internalType": "bool",
          "name": "valid",
          "type": "bool"
        }
      ],
      "name": "VoteVerified",
      "type": "event"
    },
    {
      "anonymous": false,
      "inputs": [
        {
          "indexed": true,
          "internalType": "bytes32",
          "name": "identityCommitment",
          "type": "bytes32"
        }
      ],
      "name": "VoterRegistered",
      "type": "event"
    },
    {
      "anonymous": false,
      "inputs": [
        {
          "indexed": false,
          "internalType": "bool",
          "name": "enabled",
          "type": "bool"
        }
      ],
      "name": "ZKPModeChanged",
      "type": "event"
    },
    {
      "anonymous": false,
      "inputs": [
        {
          "indexed": true,
          "internalType": "bytes32",
          "name": "nullifierHash",
          "type": "bytes32"
        },
        {
          "indexed": true,
          "internalType": "bytes32",
          "name": "commitment",
          "type": "bytes32"
        },
        {
          "indexed": false,
          "internalType": "string",
          "name": "ipfsHash",
          "type": "string"
        },
        {
          "indexed": false,
          "internalType": "uint256",
          "name": "timestamp",
          "type": "uint256"
        }
      ],
      "name": "ZKPVoteSubmitted",
      "type": "event"
    },
    {
      "inputs": [],
      "name": "GENERATOR_G",
      "outputs": [
        {
          "internalType": "uint256",
          "name": "",
          "type": "uint256"
        }
      ],
      "stateMutability": "view",
      "type": "function"
    },
    {
      "inputs": [],
      "name": "GENERATOR_H",
      "outputs": [
        {
          "internalType": "uint256",
          "name": "",
          "type": "uint256"
        }
      ],
      "stateMutability": "view",
      "type": "function"
    },
    {
      "inputs": [],
      "name": "PRIME",
      "outputs": [
        {
          "internalType": "uint256",
          "name": "",
          "type": "uint256"
        }
      ],
      "stateMutability": "view",
      "type": "function"
    },
    {
      "inputs": [],
      "name": "admin",
      "outputs": [
        {
          "internalType": "address",
          "name": "",
          "type": "address"
        }
      ],
      "stateMutability": "view",
      "type": "function"
    },
    {
      "inputs": [
        {
          "internalType": "uint256",
          "name": "",
          "type": "uint256"
        }
      ],
      "name": "allCommitments",
      "outputs": [
        {
          "internalType": "bytes32",
          "name": "",
          "type": "bytes32"
        }
      ],
      "stateMutability": "view",
      "type": "function"
    },
    {
      "inputs": [
        {
          "internalType": "uint256",
          "name": "",
          "type": "uint256"
        }
      ],
      "name": "allNullifiers",
      "outputs": [
        {
          "internalType": "bytes32",
          "name": "",
          "type": "bytes32"
        }
      ],
      "stateMutability": "view",
      "type": "function"
    },
    {
      "inputs": [
        {
          "internalType": "uint256",
          "name": "",
          "type": "uint256"
        }
      ],
      "name": "candidateIPFSHashes",
      "outputs": [
        {
          "internalType": "string",
          "name": "",
          "type": "string"
        }
      ],
      "stateMutability": "view",
      "type": "function"
    },
    {
      "inputs": [],
      "name": "candidatesCount",
      "outputs": [
        {
          "internalType": "uint256",
          "name": "",
          "type": "uint256"
        }
      ],
      "stateMutability": "view",
      "type": "function"
    },
    {
      "inputs": [],
      "name": "electionId",
      "outputs": [
        {
          "internalType": "string",
          "name": "",
          "type": "string"
        }
      ],
      "stateMutability": "view",
      "type": "function"
    },
    {
      "inputs": [
        {
          "internalType": "bytes32",
          "name": "",
          "type": "bytes32"
        }
      ],
      "name": "eligibleVoters",
      "outputs": [
        {
          "internalType": "bytes32",
          "name": "identityCommitment",
          "type": "bytes32"
        },
        {
          "internalType": "bool",
          "name": "isRegistered",
          "type": "bool"
        },
        {
          "internalType": "bool",
          "name": "hasVoted",
          "type": "bool"
        }
      ],
      "stateMutability": "view",
      "type": "function"
    },
    {
      "inputs": [],
      "name": "getAllCommitments",
      "outputs": [
        {
          "internalType": "bytes32[]",
          "name": "",
          "type": "bytes32[]"
        }
      ],
      "stateMutability": "view",
      "type": "function"
    },
    {
      "inputs": [],
      "name": "getAllNullifiers",
      "outputs": [
        {
          "internalType": "bytes32[]",
          "name": "",
          "type": "bytes32[]"
        }
      ],
      "stateMutability": "view",
      "type": "function"
    },
    {
      "inputs": [
        {
          "internalType": "uint256",
          "name": "_candidateId",
          "type": "uint256"
        }
      ],
      "name": "getCandidateIPFS",
      "outputs": [
        {
          "internalType": "string",
          "name": "",
          "type": "string"
        }
      ],
      "stateMutability": "view",
      "type": "function"
    },
    {
      "inputs": [],
      "name": "getElectionSummary",
      "outputs": [
        {
          "internalType": "uint256",
          "name": "totalZKPVotes",
          "type": "uint256"
        },
        {
          "internalType": "uint256",
          "name": "totalCommitments",
          "type": "uint256"
        },
        {
          "internalType": "uint256",
          "name": "totalNullifiers",
          "type": "uint256"
        },
        {
          "internalType": "bool",
          "name": "_zkpEnabled",
          "type": "bool"
        },
        {
          "internalType": "string",
          "name": "_electionId",
          "type": "string"
        }
      ],
      "stateMutability": "view",
      "type": "function"
    },
    {
      "inputs": [],
      "name": "getZKPVoteCount",
      "outputs": [
        {
          "internalType": "uint256",
          "name": "",
          "type": "uint256"
        }
      ],
      "stateMutability": "view",
      "type": "function"
    },
    {
      "inputs": [
        {
          "internalType": "bytes32",
          "name": "_nullifierHash",
          "type": "bytes32"
        }
      ],
      "name": "getZKVoteReceipt",
      "outputs": [
        {
          "internalType": "bytes32",
          "name": "commitment",
          "type": "bytes32"
        },
        {
          "internalType": "uint256",
          "name": "timestamp",
          "type": "uint256"
        },
        {
          "internalType": "string",
          "name": "ipfsHash",
          "type": "string"
        },
        {
          "internalType": "bool",
          "name": "verified",
          "type": "bool"
        }
      ],
      "stateMutability": "view",
      "type": "function"
    },
    {
      "inputs": [
        {
          "internalType": "bytes32",
          "name": "_identityCommitment",
          "type": "bytes32"
        }
      ],
      "name": "hasIdentityVoted",
      "outputs": [
        {
          "internalType": "bool",
          "name": "",
          "type": "bool"
        }
      ],
      "stateMutability": "view",
      "type": "function"
    },
    {
      "inputs": [
        {
          "internalType": "bytes32",
          "name": "",
          "type": "bytes32"
        }
      ],
      "name": "identityRegistered",
      "outputs": [
        {
          "internalType": "bool",
          "name": "",
          "type": "bool"
        }
      ],
      "stateMutability": "view",
      "type": "function"
    },
    {
      "inputs": [
        {
          "internalType": "bytes32",
          "name": "_identityCommitment",
          "type": "bytes32"
        }
      ],
      "name": "isIdentityRegistered",
      "outputs": [
        {
          "internalType": "bool",
          "name": "",
          "type": "bool"
        }
      ],
      "stateMutability": "view",
      "type": "function"
    },
    {
      "inputs": [
        {
          "internalType": "bytes32",
          "name": "_nullifierHash",
          "type": "bytes32"
        }
      ],
      "name": "isNullifierUsed",
      "outputs": [
        {
          "internalType": "bool",
          "name": "",
          "type": "bool"
        }
      ],
      "stateMutability": "view",
      "type": "function"
    },
    {
      "inputs": [
        {
          "internalType": "address",
          "name": "forwarder",
          "type": "address"
        }
      ],
      "name": "isTrustedForwarder",
      "outputs": [
        {
          "internalType": "bool",
          "name": "",
          "type": "bool"
        }
      ],
      "stateMutability": "view",
      "type": "function"
    },
    {
      "inputs": [
        {
          "internalType": "bytes32",
          "name": "_nullifierHash",
          "type": "bytes32"
        }
      ],
      "name": "markVoteVerified",
      "outputs": [],
      "stateMutability": "nonpayable",
      "type": "function"
    },
    {
      "inputs": [
        {
          "internalType": "bytes32",
          "name": "",
          "type": "bytes32"
        }
      ],
      "name": "nullifierUsed",
      "outputs": [
        {
          "internalType": "bool",
          "name": "",
          "type": "bool"
        }
      ],
      "stateMutability": "view",
      "type": "function"
    },
    {
      "inputs": [
        {
          "internalType": "bytes32",
          "name": "_identityCommitment",
          "type": "bytes32"
        }
      ],
      "name": "registerEligibleVoter",
      "outputs": [],
      "stateMutability": "nonpayable",
      "type": "function"
    },
    {
      "inputs": [
        {
          "internalType": "bytes32[]",
          "name": "_commitments",
          "type": "bytes32[]"
        }
      ],
      "name": "registerEligibleVotersBatch",
      "outputs": [],
      "stateMutability": "nonpayable",
      "type": "function"
    },
    {
      "inputs": [
        {
          "internalType": "uint256",
          "name": "_candidateId",
          "type": "uint256"
        },
        {
          "internalType": "string",
          "name": "_ipfsHash",
          "type": "string"
        }
      ],
      "name": "setCandidateIPFSHash",
      "outputs": [],
      "stateMutability": "nonpayable",
      "type": "function"
    },
    {
      "inputs": [
        {
          "internalType": "uint256",
          "name": "_count",
          "type": "uint256"
        }
      ],
      "name": "setCandidatesCount",
      "outputs": [],
      "stateMutability": "nonpayable",
      "type": "function"
    },
    {
      "inputs": [
        {
          "internalType": "address",
          "name": "_forwarder",
          "type": "address"
        }
      ],
      "name": "setTrustedForwarder",
      "outputs": [],
      "stateMutability": "nonpayable",
      "type": "function"
    },
    {
      "inputs": [
        {
          "internalType": "bool",
          "name": "_enabled",
          "type": "bool"
        }
      ],
      "name": "setZKPMode",
      "outputs": [],
      "stateMutability": "nonpayable",
      "type": "function"
    },
    {
      "inputs": [
        {
          "internalType": "bytes32",
          "name": "_commitment",
          "type": "bytes32"
        },
        {
          "internalType": "bytes32",
          "name": "_nullifierHash",
          "type": "bytes32"
        },
        {
          "internalType": "bytes32",
          "name": "_identityCommitment",
          "type": "bytes32"
        },
        {
          "internalType": "uint256[4]",
          "name": "_proof",
          "type": "uint256[4]"
        },
        {
          "internalType": "string",
          "name": "_ipfsHash",
          "type": "string"
        }
      ],
      "name": "submitEncryptedVote",
      "outputs": [],
      "stateMutability": "nonpayable",
      "type": "function"
    },
    {
      "inputs": [],
      "name": "trustedForwarder",
      "outputs": [
        {
          "internalType": "address",
          "name": "",
          "type": "address"
        }
      ],
      "stateMutability": "view",
      "type": "function"
    },
    {
      "inputs": [
        {
          "internalType": "bytes32",
          "name": "_commitment",
          "type": "bytes32"
        }
      ],
      "name": "verifyVoteInclusion",
      "outputs": [
        {
          "internalType": "bool",
          "name": "included",
          "type": "bool"
        },
        {
          "internalType": "uint256",
          "name": "index",
          "type": "uint256"
        }
      ],
      "stateMutability": "view",
      "type": "function"
    },
    {
      "inputs": [],
      "name": "zkpEnabled",
      "outputs": [
        {
          "internalType": "bool",
          "name": "",
          "type": "bool"
        }
      ],
      "stateMutability": "view",
      "type": "function"
    },
    {
      "inputs": [],
      "name": "zkpVoteCount",
      "outputs": [
        {
          "internalType": "uint256",
          "name": "",
          "type": "uint256"
        }
      ],
      "stateMutability": "view",
      "type": "function"
    },
    {
      "inputs": [
        {
          "internalType": "bytes32",
          "name": "",
          "type": "bytes32"
        }
      ],
      "name": "zkpVotes",
      "outputs": [
        {
          "internalType": "bytes32",
          "name": "commitment",
          "type": "bytes32"
        },
        {
          "internalType": "bytes32",
          "name": "nullifierHash",
          "type": "bytes32"
        },
        {
          "internalType": "uint256",
          "name": "timestamp",
          "type": "uint256"
        },
        {
          "internalType": "string",
          "name": "ipfsMetadataHash",
          "type": "string"
        },
        {
          "internalType": "bool",
          "name": "verified",
          "type": "bool"
        }
      ],
      "stateMutability": "view",
      "type": "function"
    }
  ],
  "bytecode": "0x60806040523480156200001157600080fd5b50604051620021cf380380620021cf8339810160408190526200003491620000a4565b60008054336001600160a01b031991821617909155600180549091166001600160a01b0385161790556002829055600462000070828262000232565b50506001805460ff60a01b1916600160a01b17905550620002fe9050565b634e487b7160e01b600052604160045260246000fd5b600080600060608486031215620000ba57600080fd5b83516001600160a01b0381168114620000d257600080fd5b60208581015160408701519295509350906001600160401b0380821115620000f957600080fd5b818701915087601f8301126200010e57600080fd5b8151818111156200012357620001236200008e565b604051601f8201601f19908116603f011681019083821181831017156200014e576200014e6200008e565b816040528281528a868487010111156200016757600080fd5b600093505b828410156200018b57848401860151818501870152928501926200016c565b60008684830101528096505050505050509250925092565b600181811c90821680620001b857607f821691505b602082108103620001d957634e487b7160e01b600052602260045260246000fd5b50919050565b601f8211156200022d57600081815260208120601f850160051c81016020861015620002085750805b601f850160051c820191505b81811015620002295782815560010162000214565b5050505b505050565b81516001600160401b038111156200024e576200024e6200008e565b62000266816200025f8454620001a3565b84620001df565b602080601f8311600181146200029e5760008415620002855750858301515b600019600386901b1c1916600185901b17855562000229565b600085815260208120601f198616915b82811015620002cf57888601518255948401946001909101908401620002ae565b5085821015620002ee5787850151600019600388901b60f8161c191681555b5050505050600190811b01905550565b611ec1806200030e6000396000f3fe608060405234801561001057600080fd5b50600436106102105760003560e01c80637ecf686d11610125578063b74954f4116100ad578063da7422281161007c578063da74222814610559578063e8e413881461056c578063ed4fa0391461058f578063f851a440146105a2578063fac54689146105b557600080fd5b8063b74954f4146104f3578063c6913bea1461050c578063ca367ac81461051f578063ca664a481461054657600080fd5b806399010a3f116100f457806399010a3f1461049e57806399999dbb146104b2578063a8fb4d3e146104c5578063ab2ae5ee146104d8578063ac086181146104eb57600080fd5b80637ecf686d1461040557806380493b931461042857806383b3749c1461043b578063853c63e71461048b57600080fd5b806350eb4044116101a85780635ccb15e8116101775780635ccb15e8146103615780635ee6abdf146103745780636033dbc31461039b57806363582010146103c55780637da0a877146103da57600080fd5b806350eb404414610301578063556996b514610314578063572b6c051461031c5780635c8fdd351461033e57600080fd5b80632c0ee3c4116101e45780632c0ee3c41461029c5780632d35a8a2146102b157806335cd3222146102ba5780633fa332a7146102dd57600080fd5b806217cd8b14610215578063051364d4146102415780630dd56fae1461025657806322dc7b4c14610269575b600080fd5b61022e70014551231950b75fc4402da1732fc9bebe1981565b6040519081526020015b60405180910390f35b6102496105be565b60405161023891906118bf565b6102496102643660046118d9565b61064c565b61028c6102773660046118d9565b60009081526009602052604090205460ff1690565b6040519015158152602001610238565b6102a46106ee565b60405161023891906118f2565b61022e60025481565b6102cd6102c83660046118d9565b610746565b6040516102389493929190611936565b6102f06102eb3660046118d9565b6108c1565b604051610238959493929190611968565b61028c61030f3660046118d9565b61097d565b60035461022e565b61028c61032a3660046119a1565b6001546001600160a01b0391821691161490565b61028c61034c3660046118d9565b6000908152600a602052604090205460ff1690565b61024961036f3660046118d9565b6109ef565b61022e7f79be667ef9dcbbac55a06295ce870b07029bfcdb2dce28d959f2815b16f8179881565b6103ae6103a93660046118d9565b610a08565b604080519215158352602083019190915201610238565b6103d86103d3366004611aaa565b610a65565b005b6001546103ed906001600160a01b031681565b6040516001600160a01b039091168152602001610238565b61028c6104133660046118d9565b60096020526000908152604090205460ff1681565b61022e6104363660046118d9565b610b52565b61046e6104493660046118d9565b6006602052600090815260409020805460019091015460ff8082169161010090041683565b604080519384529115156020840152151590820152606001610238565b61022e6104993660046118d9565b610b73565b60015461028c90600160a01b900460ff1681565b6103d86104c0366004611af1565b610b83565b6103d86104d3366004611b13565b610c15565b6103d86104e63660046118d9565b610e03565b6102a4610f42565b6104fb610f98565b604051610238959493929190611bb9565b6103d861051a3660046118d9565b61105e565b61022e7fc6047f9441ed7d6d3045406e95c07cd85c778e4b8cef3ca7abac09b95c709ee581565b6103d8610554366004611bf1565b61109d565b6103d86105673660046119a1565b611400565b61028c61057a3660046118d9565b600a6020526000908152604090205460ff1681565b6103d861059d3660046118d9565b611484565b6000546103ed906001600160a01b031681565b61022e60035481565b600480546105cb90611c98565b80601f01602080910402602001604051908101604052809291908181526020018280546105f790611c98565b80156106445780601f1061061957610100808354040283529160200191610644565b820191906000526020600020905b81548152906001019060200180831161062757829003601f168201915b505050505081565b6000818152600b6020526040902080546060919061066990611c98565b80601f016020809104026020016040519081016040528092919081815260200182805461069590611c98565b80156106e25780601f106106b7576101008083540402835291602001916106e2565b820191906000526020600020905b8154815290600101906020018083116106c557829003601f168201915b50505050509050919050565b6060600880548060200260200160405190810160405280929190818152602001828054801561073c57602002820191906000526020600020905b815481526020019060010190808311610728575b5050505050905090565b6000818152600960205260408120548190606090829060ff166107be5760405162461bcd60e51b815260206004820152602560248201527f5a4b503a204e6f20766f746520666f756e6420666f722074686973206e756c6c60448201526434b334b2b960d91b60648201526084015b60405180910390fd5b6000600560008781526020019081526020016000206040518060a001604052908160008201548152602001600182015481526020016002820154815260200160038201805461080c90611c98565b80601f016020809104026020016040519081016040528092919081815260200182805461083890611c98565b80156108855780601f1061085a57610100808354040283529160200191610885565b820191906000526020600020905b81548152906001019060200180831161086857829003601f168201915b50505091835250506004919091015460ff1615156020909101528051604082015160608301516080909301519199909850919650945092505050565b6005602052600090815260409020805460018201546002830154600384018054939492939192916108f190611c98565b80601f016020809104026020016040519081016040528092919081815260200182805461091d90611c98565b801561096a5780601f1061093f5761010080835404028352916020019161096a565b820191906000526020600020905b81548152906001019060200180831161094d57829003601f168201915b5050506004909301549192505060ff1685565b6000818152600a602052604081205460ff166109d15760405162461bcd60e51b81526020600482015260136024820152721692d40e88139bdd081c9959da5cdd195c9959606a1b60448201526064016107b5565b50600090815260066020526040902060010154610100900460ff1690565b600b60205260009081526040902080546105cb90611c98565b60008060005b600854811015610a59578360088281548110610a2c57610a2c611cd2565b906000526020600020015403610a4757600194909350915050565b80610a5181611ce8565b915050610a0e565b50600093849350915050565b6000546001600160a01b0316610a796115fe565b6001600160a01b031614610a9f5760405162461bcd60e51b81526004016107b590611d0f565b600082118015610ab157506002548211155b610afd5760405162461bcd60e51b815260206004820152601960248201527f5a4b503a20496e76616c69642063616e6469646174652049440000000000000060448201526064016107b5565b6000828152600b60205260409020610b158282611d87565b50817fce1afc8a7f4101719cc0bdc87531881979dfd8df81c04bbfcc08bf40a9bcce0b82604051610b4691906118bf565b60405180910390a25050565b60088181548110610b6257600080fd5b600091825260209091200154905081565b60078181548110610b6257600080fd5b6000546001600160a01b0316610b976115fe565b6001600160a01b031614610bbd5760405162461bcd60e51b81526004016107b590611d0f565b60018054821515600160a01b0260ff60a01b199091161790556040517fadff02641deb29f682e9963c376f80b7954b1c58787029d499e3f8f43c9a875190610c0a90831515815260200190565b60405180910390a150565b6000546001600160a01b0316610c296115fe565b6001600160a01b031614610c4f5760405162461bcd60e51b81526004016107b590611d0f565b60005b8151811015610dff576000801b828281518110610c7157610c71611cd2565b602002602001015114158015610cb85750600a6000838381518110610c9857610c98611cd2565b60209081029190910181015182528101919091526040016000205460ff16155b15610ded576040518060600160405280838381518110610cda57610cda611cd2565b602002602001015181526020016001151581526020016000151581525060066000848481518110610d0d57610d0d611cd2565b60209081029190910181015182528181019290925260409081016000908120845181559284015160019384018054959093015161ffff1990951690151561ff001916176101009415159490940293909317905583519091600a91859085908110610d7957610d79611cd2565b6020026020010151815260200190815260200160002060006101000a81548160ff021916908315150217905550818181518110610db857610db8611cd2565b60200260200101517fe1e93aab4d6cae623ae197f9c4d63ac5eede4c69f9d0fbc92e4dbb0766abd11560405160405180910390a25b80610df781611ce8565b915050610c52565b5050565b6000546001600160a01b0316610e176115fe565b6001600160a01b031614610e3d5760405162461bcd60e51b81526004016107b590611d0f565b60008181526009602052604090205460ff16610e905760405162461bcd60e51b81526020600482015260126024820152711692d40e88139bc81d9bdd1948199bdd5b9960721b60448201526064016107b5565b60008181526005602052604090206004015460ff1615610eea5760405162461bcd60e51b81526020600482015260156024820152741692d40e88105b1c9958591e481d995c9a599a5959605a1b60448201526064016107b5565b600081815260056020908152604091829020600401805460ff19166001908117909155915191825282917fc39a9f8123869a1d06798e0e4c4fc29a9b1033017c0820de8ec69ce46f782e73910160405180910390a250565b6060600780548060200260200160405190810160405280929190818152602001828054801561073c5760200282019190600052602060002090815481526020019060010190808311610728575050505050905090565b6000806000806060600354600880549050600780549050600160149054906101000a900460ff166004808054610fcd90611c98565b80601f0160208091040260200160405190810160405280929190818152602001828054610ff990611c98565b80156110465780601f1061101b57610100808354040283529160200191611046565b820191906000526020600020905b81548152906001019060200180831161102957829003601f168201915b50505050509050945094509450945094509091929394565b6000546001600160a01b03166110726115fe565b6001600160a01b0316146110985760405162461bcd60e51b81526004016107b590611d0f565b600255565b600154600160a01b900460ff166110f65760405162461bcd60e51b815260206004820152601c60248201527f5a4b503a205a4b50206d6f6465206973206e6f7420656e61626c65640000000060448201526064016107b5565b6000838152600a602052604090205460ff166111545760405162461bcd60e51b815260206004820152601b60248201527f5a4b503a204e6f742061207265676973746572656420766f746572000000000060448201526064016107b5565b600083815260066020526040902060010154610100900460ff16156111bb5760405162461bcd60e51b815260206004820152601860248201527f5a4b503a20566f74657220616c726561647920766f746564000000000000000060448201526064016107b5565b60008481526009602052604090205460ff16156112345760405162461bcd60e51b815260206004820152603160248201527f5a4b503a204e756c6c696669657220616c726561647920757365642028646f75604482015270626c6520766f746520617474656d70742960781b60648201526084016107b5565b61123f858584611632565b6112955760405162461bcd60e51b815260206004820152602160248201527f5a4b503a20496e76616c6964207a65726f2d6b6e6f776c656467652070726f6f6044820152603360f91b60648201526084016107b5565b6040805160a081018252868152602080820187815242838501908152606084018681526000608086018190528a8152600590945294909220835181559051600182015590516002820155915190919060038201906112f39082611d87565b50608091909101516004909101805491151560ff19928316179055600085815260096020526040812080549092166001908117909255600780548084019091557fa66cc928b5edb82af9bd49922954155ab7b0942694bea4ce44661d9a8736c6880186905560088054928301815581527ff3f7a9fe364faab93b216da50a3214154f22a0a2b415b23a84c8169e8b636ee3909101869055600380549161139883611ce8565b909155505060008381526006602052604090819020600101805461ff00191661010017905551859085907fe9ff783ccceb0a708f01efa07100bf9e107e5b7555f3de5c4beb0b2c6048e13a906113f19085904290611e47565b60405180910390a35050505050565b6000546001600160a01b03166114146115fe565b6001600160a01b03161461143a5760405162461bcd60e51b81526004016107b590611d0f565b600180546001600160a01b0319166001600160a01b0383169081179091556040517f9d90a82ec1d038d4e13317a0eb136f9c65b7ed42156fc204ec4b7c4731e7395090600090a250565b6000546001600160a01b03166114986115fe565b6001600160a01b0316146114be5760405162461bcd60e51b81526004016107b590611d0f565b8061150b5760405162461bcd60e51b815260206004820181905260248201527f5a4b503a20496e76616c6964206964656e7469747920636f6d6d69746d656e7460448201526064016107b5565b6000818152600a602052604090205460ff161561156a5760405162461bcd60e51b815260206004820152601760248201527f5a4b503a20416c7265616479207265676973746572656400000000000000000060448201526064016107b5565b60408051606081018252828152600160208083018281526000848601818152878252600684528682209551865591519484018054925115156101000261ff00199615159690961661ffff1990931692909217949094179055600a9052828220805460ff19169091179055905182917fe1e93aab4d6cae623ae197f9c4d63ac5eede4c69f9d0fbc92e4dbb0766abd11591a250565b60006014361080159061161b57506001546001600160a01b031633145b1561162d575060131936013560601c90565b503390565b805160208201516040830151606084015160025460009493929190811461169b5760405162461bcd60e51b815260206004820152601d60248201527f5a4b503a2043616e64696461746520636f756e74206d69736d6174636800000060448201526064016107b5565b83158015906116a957508215155b80156116b457508115155b6117005760405162461bcd60e51b815260206004820152601960248201527f5a4b503a205a65726f2070726f6f6620636f6d706f6e656e740000000000000060448201526064016107b5565b70014551231950b75fc4402da1732fc9bebe1984108015611732575070014551231950b75fc4402da1732fc9bebe1983105b801561174f575070014551231950b75fc4402da1732fc9bebe1982105b61179b5760405162461bcd60e51b815260206004820152601760248201527f5a4b503a2050726f6f66206f7574206f66206669656c6400000000000000000060448201526064016107b5565b6040805160208082018b90528183018a9052606082018690526080820185905260a08083018590528351808403909101815260c090920190925280519101206117f670014551231950b75fc4402da1732fc9bebe1986611e69565b61181270014551231950b75fc4402da1732fc9bebe1983611e69565b1461186a5760405162461bcd60e51b815260206004820152602260248201527f5a4b503a204368616c6c656e676520766572696669636174696f6e206661696c604482015261195960f21b60648201526084016107b5565b50600198975050505050505050565b6000815180845260005b8181101561189f57602081850181015186830182015201611883565b506000602082860101526020601f19601f83011685010191505092915050565b6020815260006118d26020830184611879565b9392505050565b6000602082840312156118eb57600080fd5b5035919050565b6020808252825182820181905260009190848201906040850190845b8181101561192a5783518352928401929184019160010161190e565b50909695505050505050565b8481528360208201526080604082015260006119556080830185611879565b9050821515606083015295945050505050565b85815284602082015283604082015260a06060820152600061198d60a0830185611879565b905082151560808301529695505050505050565b6000602082840312156119b357600080fd5b81356001600160a01b03811681146118d257600080fd5b634e487b7160e01b600052604160045260246000fd5b6040516080810167ffffffffffffffff81118282101715611a0357611a036119ca565b60405290565b604051601f8201601f1916810167ffffffffffffffff81118282101715611a3257611a326119ca565b604052919050565b600082601f830112611a4b57600080fd5b813567ffffffffffffffff811115611a6557611a656119ca565b611a78601f8201601f1916602001611a09565b818152846020838601011115611a8d57600080fd5b816020850160208301376000918101602001919091529392505050565b60008060408385031215611abd57600080fd5b82359150602083013567ffffffffffffffff811115611adb57600080fd5b611ae785828601611a3a565b9150509250929050565b600060208284031215611b0357600080fd5b813580151581146118d257600080fd5b60006020808385031215611b2657600080fd5b823567ffffffffffffffff80821115611b3e57600080fd5b818501915085601f830112611b5257600080fd5b813581811115611b6457611b646119ca565b8060051b9150611b75848301611a09565b8181529183018401918481019088841115611b8f57600080fd5b938501935b83851015611bad57843582529385019390850190611b94565b98975050505050505050565b858152846020820152836040820152821515606082015260a060808201526000611be660a0830184611879565b979650505050505050565b60008060008060006101008688031215611c0a57600080fd5b8535945060208087013594506040870135935087607f880112611c2c57600080fd5b611c346119e0565b8060e089018a811115611c4657600080fd5b60608a015b81811015611c625780358452928401928401611c4b565b509094503591505067ffffffffffffffff811115611c7f57600080fd5b611c8b88828901611a3a565b9150509295509295909350565b600181811c90821680611cac57607f821691505b602082108103611ccc57634e487b7160e01b600052602260045260246000fd5b50919050565b634e487b7160e01b600052603260045260246000fd5b600060018201611d0857634e487b7160e01b600052601160045260246000fd5b5060010190565b6020808252600f908201526e2d25a81d1027b7363c9030b236b4b760891b604082015260600190565b601f821115611d8257600081815260208120601f850160051c81016020861015611d5f5750805b601f850160051c820191505b81811015611d7e57828155600101611d6b565b5050505b505050565b815167ffffffffffffffff811115611da157611da16119ca565b611db581611daf8454611c98565b84611d38565b602080601f831160018114611dea5760008415611dd25750858301515b600019600386901b1c1916600185901b178555611d7e565b600085815260208120601f198616915b82811015611e1957888601518255948401946001909101908401611dfa565b5085821015611e375787850151600019600388901b60f8161c191681555b5050505050600190811b01905550565b604081526000611e5a6040830185611879565b90508260208301529392505050565b600082611e8657634e487b7160e01b600052601260045260246000fd5b50069056fea26469706673582212209dcf024ae8800ba7ea73c2fca93f02667d8d7cda3b75affbfc8a9d671de1cd9c64736f6c63430008130033",
  "linkReferences": {},
  "deployedLinkReferences": {}
}