{
  "_format": "hh-sol-artifact-1",
  "contractName": "ZKPVoting",
  "sourceName": "contracts/ZKPVoting.sol",
  "abi": [
    {
      "inputs": [
        {
          "internalType": "address",
          "name": "_trustedForwarder",
          "type": "address"
        },
        {
          "internalType": "uint256",
          "name": "_candidatesCount",
          "type": "uint256"
        },
        {
          "internalType": "string",
          "name": "_electionId",
          "type": "string"
        }
      ],
      "stateMutability": "nonpayable",
      "type": "constructor"
    },
    {
      "anonymous": false,
      "inputs": [
        {
          "indexed": true,
          "internalType": "uint256",
          "name": "candidateId",
          "type": "uint256"
        },
        {
          "indexed": false,
          "internalType": "string",
          "name": "ipfsHash",
          "type": "string"
        }
      ],
      "name": "CandidateMetadataStored",
      "type": "event"
    },
    {
      "anonymous": false,
      "inputs": [
        {
          "indexed": true,
          "internalType": "address",
          "name": "newForwarder",
          "type": "address"
        }
      ],
      "name": "ForwarderUpdated",
      "type": "event"
    },
    {
      "anonymous": false,
      "inputs": [
        {
          "indexed": true,
          "internalType": "address",
          "name": "relayer",
          "type": "address"
        },
        {
          "indexed": true,
          "internalType": "address",
          "name": "sender",
          "type": "address"
        }
      ],
      "name": "MetaTransactionExecuted",
      "type": "event"
    },
    {
      "anonymous": false,
      "inputs": [
        {
          "indexed": true,
          "internalType": "bytes32",
          "name": "nullifierHash",
          "type": "bytes32"
        },
        {
          "indexed": false,
          "internalType": "bool",
          "name": "valid",
          "type": "bool"
        }
      ],
      "name": "VoteVerified",
      "type": "event"
    },
    {
      "anonymous": false,
      "inputs": [
        {
          "indexed": true,
          "internalType": "bytes32",
          "name": "identityCommitment",
          "type": "bytes32"
        }
      ],
      "name": "VoterRegistered",
      "type": "event"
    },
    {
      "anonymous": false,
      "inputs": [
        {
          "indexed": false,
          "internalType": "bool",
          "name": "enabled",
          "type": "bool"
        }
      ],
      "name": "ZKPModeChanged",
      "type": "event"
    },
    {
      "anonymous": false,
      "inputs": [
        {
          "indexed": true,
          "internalType": "bytes32",
          "name": "nullifierHash",
          "type": "bytes32"
        },
        {
          "indexed": true,
          "internalType": "bytes32",
          "name": "commitment",
          "type": "bytes32"
        },
        {
          "indexed": false,
          "internalType": "string",
          "name": "ipfsHash",
          "type": "string"
        },
        {
          "indexed": false,
          "internalType": "uint256",
          "name": "timestamp",
          "type": "uint256"
        }
      ],
      "name": "ZKPVoteSubmitted",
      "type": "event"
    },
    {
      "inputs": [],
      "name": "GENERATOR_G",
      "outputs": [
        {
          "internalType": "uint256",
          "name": "",
          "type": "uint256"
        }
      ],
      "stateMutability": "view",
      "type": "function"
    },
    {
      "inputs": [],
      "name": "GENERATOR_H",
      "outputs": [
        {
          "internalType": "uint256",
          "name": "",
          "type": "uint256"
        }
      ],
      "stateMutability": "view",
      "type": "function"
    },
    {
      "inputs": [],
      "name": "PRIME",
      "outputs": [
        {
          "internalType": "uint256",
          "name": "",
          "type": "uint256"
        }
      ],
      "stateMutability": "view",
      "type": "function"
    },
    {
      "inputs": [],
      "name": "admin",
      "outputs": [
        {
          "internalType": "address",
          "name": "",
          "type": "address"
        }
      ],
      "stateMutability": "view",
      "type": "function"
    },
    {
      "inputs": [
        {
          "internalType": "uint256",
          "name": "",
          "type": "uint256"
        }
      ],
      "name": "candidateIPFSHashes",
      "outputs": [
        {
          "internalType": "string",
          "name": "",
          "type": "string"
        }
      ],
      "stateMutability": "view",
      "type": "function"
    },
    {
      "inputs": [],
      "name": "candidatesCount",
      "outputs": [
        {
          "internalType": "uint256",
          "name": "",
          "type": "uint256"
        }
      ],
      "stateMutability": "view",
      "type": "function"
    },
    {
      "inputs": [
        {
          "internalType": "bytes32",
          "name": "",
          "type": "bytes32"
        }
      ],
      "name": "commitmentExists",
      "outputs": [
        {
          "internalType": "bool",
          "name": "",
          "type": "bool"
        }
      ],
      "stateMutability": "view",
      "type": "function"
    },
    {
      "inputs": [],
      "name": "electionId",
      "outputs": [
        {
          "internalType": "string",
          "name": "",
          "type": "string"
        }
      ],
      "stateMutability": "view",
      "type": "function"
    },
    {
      "inputs": [
        {
          "internalType": "bytes32",
          "name": "",
          "type": "bytes32"
        }
      ],
      "name": "eligibleVoters",
      "outputs": [
        {
          "internalType": "bool",
          "name": "isRegistered",
          "type": "bool"
        },
        {
          "internalType": "bool",
          "name": "hasVoted",
          "type": "bool"
        }
      ],
      "stateMutability": "view",
      "type": "function"
    },
    {
      "inputs": [
        {
          "internalType": "uint256",
          "name": "_candidateId",
          "type": "uint256"
        }
      ],
      "name": "getCandidateIPFS",
      "outputs": [
        {
          "internalType": "string",
          "name": "",
          "type": "string"
        }
      ],
      "stateMutability": "view",
      "type": "function"
    },
    {
      "inputs": [],
      "name": "getElectionSummary",
      "outputs": [
        {
          "internalType": "uint256",
          "name": "totalZKPVotes",
          "type": "uint256"
        },
        {
          "internalType": "uint256",
          "name": "totalCommitments",
          "type": "uint256"
        },
        {
          "internalType": "uint256",
          "name": "totalNullifiers",
          "type": "uint256"
        },
        {
          "internalType": "bool",
          "name": "_zkpEnabled",
          "type": "bool"
        },
        {
          "internalType": "string",
          "name": "_electionId",
          "type": "string"
        }
      ],
      "stateMutability": "view",
      "type": "function"
    },
    {
      "inputs": [],
      "name": "getZKPVoteCount",
      "outputs": [
        {
          "internalType": "uint256",
          "name": "",
          "type": "uint256"
        }
      ],
      "stateMutability": "view",
      "type": "function"
    },
    {
      "inputs": [
        {
          "internalType": "bytes32",
          "name": "_nullifierHash",
          "type": "bytes32"
        }
      ],
      "name": "getZKVoteReceipt",
      "outputs": [
        {
          "internalType": "bytes32",
          "name": "commitment",
          "type": "bytes32"
        },
        {
          "internalType": "uint256",
          "name": "timestamp",
          "type": "uint256"
        },
        {
          "internalType": "string",
          "name": "ipfsHash",
          "type": "string"
        },
        {
          "internalType": "bool",
          "name": "verified",
          "type": "bool"
        }
      ],
      "stateMutability": "view",
      "type": "function"
    },
    {
      "inputs": [
        {
          "internalType": "bytes32",
          "name": "_identityCommitment",
          "type": "bytes32"
        }
      ],
      "name": "hasIdentityVoted",
      "outputs": [
        {
          "internalType": "bool",
          "name": "",
          "type": "bool"
        }
      ],
      "stateMutability": "view",
      "type": "function"
    },
    {
      "inputs": [
        {
          "internalType": "bytes32",
          "name": "",
          "type": "bytes32"
        }
      ],
      "name": "identityRegistered",
      "outputs": [
        {
          "internalType": "bool",
          "name": "",
          "type": "bool"
        }
      ],
      "stateMutability": "view",
      "type": "function"
    },
    {
      "inputs": [
        {
          "internalType": "bytes32",
          "name": "_identityCommitment",
          "type": "bytes32"
        }
      ],
      "name": "isIdentityRegistered",
      "outputs": [
        {
          "internalType": "bool",
          "name": "",
          "type": "bool"
        }
      ],
      "stateMutability": "view",
      "type": "function"
    },
    {
      "inputs": [
        {
          "internalType": "bytes32",
          "name": "_nullifierHash",
          "type": "bytes32"
        }
      ],
      "name": "isNullifierUsed",
      "outputs": [
        {
          "internalType": "bool",
          "name": "",
          "type": "bool"
        }
      ],
      "stateMutability": "view",
      "type": "function"
    },
    {
      "inputs": [
        {
          "internalType": "address",
          "name": "forwarder",
          "type": "address"
        }
      ],
      "name": "isTrustedForwarder",
      "outputs": [
        {
          "internalType": "bool",
          "name": "",
          "type": "bool"
        }
      ],
      "stateMutability": "view",
      "type": "function"
    },
    {
      "inputs": [
        {
          "internalType": "bytes32",
          "name": "_nullifierHash",
          "type": "bytes32"
        }
      ],
      "name": "markVoteVerified",
      "outputs": [],
      "stateMutability": "nonpayable",
      "type": "function"
    },
    {
      "inputs": [
        {
          "internalType": "bytes32",
          "name": "",
          "type": "bytes32"
        }
      ],
      "name": "nullifierUsed",
      "outputs": [
        {
          "internalType": "bool",
          "name": "",
          "type": "bool"
        }
      ],
      "stateMutability": "view",
      "type": "function"
    },
    {
      "inputs": [
        {
          "internalType": "bytes32",
          "name": "_identityCommitment",
          "type": "bytes32"
        }
      ],
      "name": "registerEligibleVoter",
      "outputs": [],
      "stateMutability": "nonpayable",
      "type": "function"
    },
    {
      "inputs": [
        {
          "internalType": "bytes32[]",
          "name": "_commitments",
          "type": "bytes32[]"
        }
      ],
      "name": "registerEligibleVotersBatch",
      "outputs": [],
      "stateMutability": "nonpayable",
      "type": "function"
    },
    {
      "inputs": [
        {
          "internalType": "uint256",
          "name": "_candidateId",
          "type": "uint256"
        },
        {
          "internalType": "string",
          "name": "_ipfsHash",
          "type": "string"
        }
      ],
      "name": "setCandidateIPFSHash",
      "outputs": [],
      "stateMutability": "nonpayable",
      "type": "function"
    },
    {
      "inputs": [
        {
          "internalType": "uint256",
          "name": "_count",
          "type": "uint256"
        }
      ],
      "name": "setCandidatesCount",
      "outputs": [],
      "stateMutability": "nonpayable",
      "type": "function"
    },
    {
      "inputs": [
        {
          "internalType": "address",
          "name": "_forwarder",
          "type": "address"
        }
      ],
      "name": "setTrustedForwarder",
      "outputs": [],
      "stateMutability": "nonpayable",
      "type": "function"
    },
    {
      "inputs": [
        {
          "internalType": "bool",
          "name": "_enabled",
          "type": "bool"
        }
      ],
      "name": "setZKPMode",
      "outputs": [],
      "stateMutability": "nonpayable",
      "type": "function"
    },
    {
      "inputs": [
        {
          "internalType": "bytes32",
          "name": "_commitment",
          "type": "bytes32"
        },
        {
          "internalType": "bytes32",
          "name": "_nullifierHash",
          "type": "bytes32"
        },
        {
          "internalType": "bytes32",
          "name": "_identityCommitment",
          "type": "bytes32"
        },
        {
          "internalType": "uint256[4]",
          "name": "_proof",
          "type": "uint256[4]"
        },
        {
          "internalType": "string",
          "name": "_ipfsHash",
          "type": "string"
        }
      ],
      "name": "submitEncryptedVote",
      "outputs": [],
      "stateMutability": "nonpayable",
      "type": "function"
    },
    {
      "inputs": [],
      "name": "trustedForwarder",
      "outputs": [
        {
          "internalType": "address",
          "name": "",
          "type": "address"
        }
      ],
      "stateMutability": "view",
      "type": "function"
    },
    {
      "inputs": [
        {
          "internalType": "bytes32",
          "name": "_commitment",
          "type": "bytes32"
        }
      ],
      "name": "verifyVoteInclusion",
      "outputs": [
        {
          "internalType": "bool",
          "name": "included",
          "type": "bool"
        }
      ],
      "stateMutability": "view",
      "type": "function"
    },
    {
      "inputs": [],
      "name": "zkpEnabled",
      "outputs": [
        {
          "internalType": "bool",
          "name": "",
          "type": "bool"
        }
      ],
      "stateMutability": "view",
      "type": "function"
    },
    {
      "inputs": [],
      "name": "zkpVoteCount",
      "outputs": [
        {
          "internalType": "uint256",
          "name": "",
          "type": "uint256"
        }
      ],
      "stateMutability": "view",
      "type": "function"
    },
    {
      "inputs": [
        {
          "internalType": "bytes32",
          "name": "",
          "type": "bytes32"
        }
      ],
      "name": "zkpVotes",
      "outputs": [
        {
          "internalType": "bytes32",
          "name": "commitment",
          "type": "bytes32"
        },
        {
          "internalType": "bytes32",
          "name": "nullifierHash",
          "type": "bytes32"
        },
        {
          "internalType": "uint64",
          "name": "timestamp",
          "type": "uint64"
        },
        {
          "internalType": "bool",
          "name": "verified",
          "type": "bool"
        },
        {
          "internalType": "string",
          "name": "ipfsMetadataHash",
          "type": "string"
        }
      ],
      "stateMutability": "view",
      "type": "function"
    }
  ],
  "bytecode": "0x60806040523480156200001157600080fd5b5060405162001e3a38038062001e3a8339810160408190526200003491620000a4565b60008054336001600160a01b031991821617909155600180549091166001600160a01b0385161790556002829055600462000070828262000232565b50506001805460ff60a01b1916600160a01b17905550620002fe9050565b634e487b7160e01b600052604160045260246000fd5b600080600060608486031215620000ba57600080fd5b83516001600160a01b0381168114620000d257600080fd5b60208581015160408701519295509350906001600160401b0380821115620000f957600080fd5b818701915087601f8301126200010e57600080fd5b8151818111156200012357620001236200008e565b604051601f8201601f19908116603f011681019083821181831017156200014e576200014e6200008e565b816040528281528a868487010111156200016757600080fd5b600093505b828410156200018b57848401860151818501870152928501926200016c565b60008684830101528096505050505050509250925092565b600181811c90821680620001b857607f821691505b602082108103620001d957634e487b7160e01b600052602260045260246000fd5b50919050565b601f8211156200022d57600081815260208120601f850160051c81016020861015620002085750805b601f850160051c820191505b81811015620002295782815560010162000214565b5050505b505050565b81516001600160401b038111156200024e576200024e6200008e565b62000266816200025f8454620001a3565b84620001df565b602080601f8311600181146200029e5760008415620002855750858301515b600019600386901b1c1916600185901b17855562000229565b600085815260208120601f198616915b82811015620002cf57888601518255948401946001909101908401620002ae565b5085821015620002ee5787850151600019600388901b60f8161c191681555b5050505050600190811b01905550565b611b2c806200030e6000396000f3fe608060405234801561001057600080fd5b50600436106101ef5760003560e01c80637ecf686d1161010f578063c6913bea116100a2578063e8e4138811610071578063e8e4138814610517578063ed4fa0391461053a578063f851a4401461054d578063fac546891461056057600080fd5b8063c6913bea146104b7578063ca367ac8146104ca578063ca664a48146104f1578063da7422281461050457600080fd5b806399999dbb116100de57806399999dbb14610465578063a8fb4d3e14610478578063ab2ae5ee1461048b578063b74954f41461049e57600080fd5b80637ecf686d146103c857806383b3749c146103eb578063863078651461042e57806399010a3f1461045157600080fd5b8063556996b5116101875780635ee6abdf116101565780635ee6abdf1461033e5780636033dbc31461036557806363582010146103885780637da0a8771461039d57600080fd5b8063556996b5146102de578063572b6c05146102e65780635c8fdd35146103085780635ccb15e81461032b57600080fd5b80632d35a8a2116101c35780632d35a8a21461027b57806335cd3222146102845780633fa332a7146102a757806350eb4044146102cb57600080fd5b806217cd8b146101f4578063051364d4146102205780630dd56fae1461023557806322dc7b4c14610248575b600080fd5b61020d70014551231950b75fc4402da1732fc9bebe1981565b6040519081526020015b60405180910390f35b610228610569565b60405161021791906115b5565b6102286102433660046115cf565b6105f7565b61026b6102563660046115cf565b60009081526008602052604090205460ff1690565b6040519015158152602001610217565b61020d60025481565b6102976102923660046115cf565b610699565b60405161021794939291906115e8565b6102ba6102b53660046115cf565b610829565b60405161021795949392919061161a565b61026b6102d93660046115cf565b6108f3565b60035461020d565b61026b6102f436600461165c565b6001546001600160a01b0391821691161490565b61026b6103163660046115cf565b60009081526009602052604090205460ff1690565b6102286103393660046115cf565b610962565b61020d7f79be667ef9dcbbac55a06295ce870b07029bfcdb2dce28d959f2815b16f8179881565b61026b6103733660046115cf565b60009081526007602052604090205460ff1690565b61039b610396366004611751565b61097b565b005b6001546103b0906001600160a01b031681565b6040516001600160a01b039091168152602001610217565b61026b6103d63660046115cf565b60086020526000908152604090205460ff1681565b6104176103f93660046115cf565b60066020526000908152604090205460ff8082169161010090041682565b604080519215158352901515602083015201610217565b61026b61043c3660046115cf565b60076020526000908152604090205460ff1681565b60015461026b90600160a01b900460ff1681565b61039b610473366004611798565b610a68565b61039b6104863660046117ba565b610afa565b61039b6104993660046115cf565b610c1a565b6104a6610d71565b60405161021795949392919061182f565b61039b6104c53660046115cf565b610e31565b61020d7fc6047f9441ed7d6d3045406e95c07cd85c778e4b8cef3ca7abac09b95c709ee581565b61039b6104ff36600461185c565b610e70565b61039b61051236600461165c565b6111b6565b61026b6105253660046115cf565b60096020526000908152604090205460ff1681565b61039b6105483660046115cf565b61123a565b6000546103b0906001600160a01b031681565b61020d60035481565b6004805461057690611903565b80601f01602080910402602001604051908101604052809291908181526020018280546105a290611903565b80156105ef5780601f106105c4576101008083540402835291602001916105ef565b820191906000526020600020905b8154815290600101906020018083116105d257829003601f168201915b505050505081565b6000818152600a6020526040902080546060919061061490611903565b80601f016020809104026020016040519081016040528092919081815260200182805461064090611903565b801561068d5780601f106106625761010080835404028352916020019161068d565b820191906000526020600020905b81548152906001019060200180831161067057829003601f168201915b50505050509050919050565b6000818152600860205260408120548190606090829060ff166107115760405162461bcd60e51b815260206004820152602560248201527f5a4b503a204e6f20766f746520666f756e6420666f722074686973206e756c6c60448201526434b334b2b960d91b60648201526084015b60405180910390fd5b6000858152600560209081526040808320815160a08101835281548152600182015493810193909352600281015467ffffffffffffffff811692840192909252600160401b90910460ff161515606083015260038101805460808401919061077890611903565b80601f01602080910402602001604051908101604052809291908181526020018280546107a490611903565b80156107f15780601f106107c6576101008083540402835291602001916107f1565b820191906000526020600020905b8154815290600101906020018083116107d457829003601f168201915b505050919092525050815160408301516080840151606090940151919a67ffffffffffffffff90911699509297509550909350505050565b60056020526000908152604090208054600182015460028301546003840180549394929367ffffffffffffffff831693600160401b90930460ff1692919061087090611903565b80601f016020809104026020016040519081016040528092919081815260200182805461089c90611903565b80156108e95780601f106108be576101008083540402835291602001916108e9565b820191906000526020600020905b8154815290600101906020018083116108cc57829003601f168201915b5050505050905085565b60008181526009602052604081205460ff166109475760405162461bcd60e51b81526020600482015260136024820152721692d40e88139bdd081c9959da5cdd195c9959606a1b6044820152606401610708565b50600090815260066020526040902054610100900460ff1690565b600a602052600090815260409020805461057690611903565b6000546001600160a01b031661098f6113a3565b6001600160a01b0316146109b55760405162461bcd60e51b81526004016107089061193d565b6000821180156109c757506002548211155b610a135760405162461bcd60e51b815260206004820152601960248201527f5a4b503a20496e76616c69642063616e646964617465204944000000000000006044820152606401610708565b6000828152600a60205260409020610a2b82826119b5565b50817fce1afc8a7f4101719cc0bdc87531881979dfd8df81c04bbfcc08bf40a9bcce0b82604051610a5c91906115b5565b60405180910390a25050565b6000546001600160a01b0316610a7c6113a3565b6001600160a01b031614610aa25760405162461bcd60e51b81526004016107089061193d565b60018054821515600160a01b0260ff60a01b199091161790556040517fadff02641deb29f682e9963c376f80b7954b1c58787029d499e3f8f43c9a875190610aef90831515815260200190565b60405180910390a150565b6000546001600160a01b0316610b0e6113a3565b6001600160a01b031614610b345760405162461bcd60e51b81526004016107089061193d565b8060005b81811015610c14576000848483818110610b5457610b54611a75565b60200291909101359150508015801590610b7d575060008181526009602052604090205460ff16155b15610c03576040805180820182526001808252600060208084018281528683526006825285832094518554915161ffff1990921690151561ff0019161761010091151591909102179093556009909252828220805460ff19169091179055905182917fe1e93aab4d6cae623ae197f9c4d63ac5eede4c69f9d0fbc92e4dbb0766abd11591a25b50610c0d81611a8b565b9050610b38565b50505050565b6000546001600160a01b0316610c2e6113a3565b6001600160a01b031614610c545760405162461bcd60e51b81526004016107089061193d565b60008181526008602052604090205460ff16610ca75760405162461bcd60e51b81526020600482015260126024820152711692d40e88139bc81d9bdd1948199bdd5b9960721b6044820152606401610708565b600081815260056020526040902060020154600160401b900460ff1615610d085760405162461bcd60e51b81526020600482015260156024820152741692d40e88105b1c9958591e481d995c9a599a5959605a1b6044820152606401610708565b60008181526005602052604090819020600201805468ff00000000000000001916600160401b1790555181907fc39a9f8123869a1d06798e0e4c4fc29a9b1033017c0820de8ec69ce46f782e7390610d669060011515815260200190565b60405180910390a250565b6000806000806060600354600354600354600160149054906101000a900460ff166004808054610da090611903565b80601f0160208091040260200160405190810160405280929190818152602001828054610dcc90611903565b8015610e195780601f10610dee57610100808354040283529160200191610e19565b820191906000526020600020905b815481529060010190602001808311610dfc57829003601f168201915b50505050509050945094509450945094509091929394565b6000546001600160a01b0316610e456113a3565b6001600160a01b031614610e6b5760405162461bcd60e51b81526004016107089061193d565b600255565b600154600160a01b900460ff16610ec95760405162461bcd60e51b815260206004820152601c60248201527f5a4b503a205a4b50206d6f6465206973206e6f7420656e61626c6564000000006044820152606401610708565b60008381526009602052604090205460ff16610f275760405162461bcd60e51b815260206004820152601b60248201527f5a4b503a204e6f742061207265676973746572656420766f74657200000000006044820152606401610708565b600083815260066020526040902054610100900460ff1615610f8b5760405162461bcd60e51b815260206004820152601860248201527f5a4b503a20566f74657220616c726561647920766f74656400000000000000006044820152606401610708565b60008481526008602052604090205460ff16156110045760405162461bcd60e51b815260206004820152603160248201527f5a4b503a204e756c6c696669657220616c726561647920757365642028646f75604482015270626c6520766f746520617474656d70742960781b6064820152608401610708565b611010858585856113d7565b6110825760405162461bcd60e51b815260206004820152603760248201527f5a4b503a20496e76616c6964207a65726f2d6b6e6f776c656467652070726f6f60448201527f66206f72207369676e6174757265206d69736d617463680000000000000000006064820152608401610708565b6040805160a081018252868152602080820187815267ffffffffffffffff428116848601908152600060608601818152608087018981528c8352600590965296902085518155925160018401555160028301805496511515600160401b0268ffffffffffffffffff1990971691909216179490941790935551909190600382019061110d90826119b5565b50505060008481526008602090815260408083208054600160ff19918216811790925589855260079093529083208054909216179055600380549161115183611a8b565b909155505060008381526006602052604090819020805461ff00191661010017905551859085907fe9ff783ccceb0a708f01efa07100bf9e107e5b7555f3de5c4beb0b2c6048e13a906111a79085904290611ab2565b60405180910390a35050505050565b6000546001600160a01b03166111ca6113a3565b6001600160a01b0316146111f05760405162461bcd60e51b81526004016107089061193d565b600180546001600160a01b0319166001600160a01b0383169081179091556040517f9d90a82ec1d038d4e13317a0eb136f9c65b7ed42156fc204ec4b7c4731e7395090600090a250565b6000546001600160a01b031661124e6113a3565b6001600160a01b0316146112745760405162461bcd60e51b81526004016107089061193d565b806112c15760405162461bcd60e51b815260206004820181905260248201527f5a4b503a20496e76616c6964206964656e7469747920636f6d6d69746d656e746044820152606401610708565b60008181526009602052604090205460ff16156113205760405162461bcd60e51b815260206004820152601760248201527f5a4b503a20416c726561647920726567697374657265640000000000000000006044820152606401610708565b6040805180820182526001808252600060208084018281528683526006825285832094518554915161ffff1990921690151561ff0019161761010091151591909102179093556009909252828220805460ff19169091179055905182917fe1e93aab4d6cae623ae197f9c4d63ac5eede4c69f9d0fbc92e4dbb0766abd11591a250565b6000601436108015906113c057506001546001600160a01b031633145b156113d2575060131936013560601c90565b503390565b80516020820151604083015160608401516002546000949392919081146114405760405162461bcd60e51b815260206004820152601d60248201527f5a4b503a2043616e64696461746520636f756e74206d69736d617463680000006044820152606401610708565b831580159061144e57508215155b801561145957508115155b6114a55760405162461bcd60e51b815260206004820152601960248201527f5a4b503a205a65726f2070726f6f6620636f6d706f6e656e74000000000000006044820152606401610708565b6040805160208082018c90528183018b9052606082018690526080820185905260a08083018590528351808403909101815260c09092019092528051910120600061150270014551231950b75fc4402da1732fc9bebe1983611ad4565b905085811461155e5760405162461bcd60e51b815260206004820152602260248201527f5a4b503a204368616c6c656e676520766572696669636174696f6e206661696c604482015261195960f21b6064820152608401610708565b5060019a9950505050505050505050565b6000815180845260005b8181101561159557602081850181015186830182015201611579565b506000602082860101526020601f19601f83011685010191505092915050565b6020815260006115c8602083018461156f565b9392505050565b6000602082840312156115e157600080fd5b5035919050565b848152836020820152608060408201526000611607608083018561156f565b9050821515606083015295945050505050565b85815284602082015267ffffffffffffffff84166040820152821515606082015260a06080820152600061165160a083018461156f565b979650505050505050565b60006020828403121561166e57600080fd5b81356001600160a01b03811681146115c857600080fd5b634e487b7160e01b600052604160045260246000fd5b6040516080810167ffffffffffffffff811182821017156116be576116be611685565b60405290565b600082601f8301126116d557600080fd5b813567ffffffffffffffff808211156116f0576116f0611685565b604051601f8301601f19908116603f0116810190828211818310171561171857611718611685565b8160405283815286602085880101111561173157600080fd5b836020870160208301376000602085830101528094505050505092915050565b6000806040838503121561176457600080fd5b82359150602083013567ffffffffffffffff81111561178257600080fd5b61178e858286016116c4565b9150509250929050565b6000602082840312156117aa57600080fd5b813580151581146115c857600080fd5b600080602083850312156117cd57600080fd5b823567ffffffffffffffff808211156117e557600080fd5b818501915085601f8301126117f957600080fd5b81358181111561180857600080fd5b8660208260051b850101111561181d57600080fd5b60209290920196919550909350505050565b858152846020820152836040820152821515606082015260a06080820152600061165160a083018461156f565b6000806000806000610100868803121561187557600080fd5b8535945060208087013594506040870135935087607f88011261189757600080fd5b61189f61169b565b8060e089018a8111156118b157600080fd5b60608a015b818110156118cd57803584529284019284016118b6565b509094503591505067ffffffffffffffff8111156118ea57600080fd5b6118f6888289016116c4565b9150509295509295909350565b600181811c9082168061191757607f821691505b60208210810361193757634e487b7160e01b600052602260045260246000fd5b50919050565b6020808252600f908201526e2d25a81d1027b7363c9030b236b4b760891b604082015260600190565b601f8211156119b057600081815260208120601f850160051c8101602086101561198d5750805b601f850160051c820191505b818110156119ac57828155600101611999565b5050505b505050565b815167ffffffffffffffff8111156119cf576119cf611685565b6119e3816119dd8454611903565b84611966565b602080601f831160018114611a185760008415611a005750858301515b600019600386901b1c1916600185901b1785556119ac565b600085815260208120601f198616915b82811015611a4757888601518255948401946001909101908401611a28565b5085821015611a655787850151600019600388901b60f8161c191681555b5050505050600190811b01905550565b634e487b7160e01b600052603260045260246000fd5b600060018201611aab57634e487b7160e01b600052601160045260246000fd5b5060010190565b604081526000611ac5604083018561156f565b90508260208301529392505050565b600082611af157634e487b7160e01b600052601260045260246000fd5b50069056fea26469706673582212202c72973b98a069ae5d161d0cbdef5efae18050bb46a41f650f862d229d4509b264736f6c63430008130033",
  "linkReferences": {},
  "deployedLinkReferences": {}
}